:020000040800F2
:100000000050002001220008CD1D0008D31D00086B
:10001000D91D0008DF1D0008E51D000800000000D4
:10002000000000000000000000000000EB1D0008C0
:10003000F71D000800000000031E00080F1E000846
:1000400049220008492200084922000849220008E4
:1000500049220008492200084922000849220008D4
:1000600049220008492200084922000849220008C4
:1000700049220008492200084922000849220008B4
:1000800049220008492200084922000849220008A4
:100090001D1E0008492200084922000849220008C4
:1000A0004922000849220008492200084922000884
:1000B000311E0008451E0008492200084922000898
:1000C0004922000849220008492200084922000864
:1000D0004922000849220008492200084922000854
:1000E00049220008492200084922000800000000B7
:1000F0000000000000000000000000000000000000
:0C01000000000000000000005FF808F1A3
:10010C0010B5054C237833B9044B13B10448AFF345
:10011C0000800123237010BDD401002000000000DA
:10012C0080B7000808B5034B1BB103490348AFF374
:10013C00008008BD00000000D801002080B7000836
:10014C00034613F8012B002AFBD1181A013870470B
:10015C0080B588B000AF07F1100300221A605A6016
:10016C009A60DA604F4B9B694E4A43F010039361DF
:10017C004C4B9B6903F01003FB60FB68494B9B697C
:10018C00484A43F020039361464B9B6903F02003DC
:10019C00BB60BB68434B9B69424A43F004039361C9
:1001AC00404B9B6903F004037B607B683D4B9B6970
:1001BC003C4A43F0080393613A4B9B6903F00803F4
:1001CC003B603B6800224FF40051374802F050FB73
:1001DC0000223F21354802F04BFB00224FF49C716A
:1001EC00334802F045FB4FF400533B6101237B6124
:1001FC000023BB610223FB6107F1100319462A4857
:10020C0002F0B2F94FF440433B6103237B6107F1E9
:10021C0010031946244802F0A7F93F233B61012340
:10022C007B610023BB610223FB6107F110031946BC
:10023C001E4802F099F948F2C0733B6103237B61BD
:10024C0007F110031946194802F08EF940F60743DE
:10025C003B6103237B6107F110031946144802F03C
:10026C0083F94FF470433B61124B7B610023BB61FC
:10027C0007F1100319460E4802F076F94FF49C73FF
:10028C003B6101237B610023BB610223FB6107F10E
:10029C0010031946064802F067F900BF2037BD4627
:1002AC0080BD00BF0010024000100140000801405A
:1002BC00000C01400000111080B500AF124B134A26
:1002CC001A60114B124A5A600F4B00229A600E4B67
:1002DC000022DA600C4B4FF480421A610A4B002268
:1002EC005A61094B00229A61074B0022DA61064BD6
:1002FC0000221A62044802F0EDFA0346002B01D0EA
:10030C0001F026FD00BF80BDF0010020005400402C
:10031C00A086010080B588B000AF786007F11003AB
:10032C0000221A605A609A60DA607B681B68154A72
:10033C00934223D1144B9B69134A43F008039361F6
:10034C00114B9B6903F00803FB60FB68C0233B6106
:10035C0012237B610323FB6107F1100319460B4841
:10036C0002F002F9084BDB69074A43F40013D3612E
:10037C00054BDB6903F40013BB60BB6800BF20377F
:10038C00BD4680BD0054004000100240000C0140EE
:10039C0080B586B002AF0346FB71FB7923F00F03E7
:1003AC00FB73FB791B01BB73FB7B43F00C03DBB2D0
:1003BC003B72FB7B43F00803DBB27B72BB7B43F0ED
:1003CC000C03DBB2BB72BB7B43F00803DBB2FB72EA
:1003DC0007F108026423009304234E21034802F022
:1003EC00BDFB00BF1037BD4680BD00BFF001002033
:1003FC0080B586B002AF0346FB71FB7923F00F0387
:10040C00FB73FB791B01BB73FB7B43F00D03DBB26E
:10041C003B72FB7B43F00903DBB27B72BB7B43F08B
:10042C000D03DBB2BB72BB7B43F00903DBB2FB7287
:10043C0007F108026423009304234E21034802F0C1
:10044C008DFB00BF1037BD4680BD00BFF001002002
:10045C0080B500AF3C2001F055FF0220FFF798FF5C
:10046C002820FFF795FF0C20FFF792FF8020FFF765
:10047C008FFF0120FFF78CFF00BF80BD80B500AF60
:10048C000120FFF785FF022001F03CFF00BF80BD7B
:10049C0080B584B000AF786039607B68013B032B7A
:1004AC0016D801A252F823F0C5040008CB040008AA
:1004BC00D1040008D70400080023FB7308E0402394
:1004CC00FB7305E01423FB7302E05423FB7300BFA2
:1004DC003B68DAB2FB7B1344DBB2013BFB73FB7B67
:1004EC0063F07F03DBB21846FFF752FF00BF1037F3
:1004FC00BD4680BD80B582B000AF786006E07B68F9
:10050C005A1C7A601B781846FFF772FF7B681B78C1
:10051C00002BF4D100BF00BF0837BD4680BD80B5AD
:10052C0000AF0F20FFF734FF00BF80BDB0B5BCB0EB
:10053C0002AF01F085FE00F04FFBFFF709FE01F062
:10054C00C1FC09F023FF01F057FD01F007FDFFF797
:10055C00B3FEFFF77DFF00222021B14802F088F99D
:10056C0000221021AE4802F083F900220821AC4889
:10057C0002F07EF901224FF48071A94802F078F95B
:10058C00A84B1B781D46A84B1B881C46A74B1B78F9
:10059C001846A74B1B781946A64BA74A1A60A54BC1
:1005AC0004229A80A34BA44A9A60A24B20229A81DF
:1005BC00A04B1D619F4B5C619E4B98619D4B002233
:1005CC00DA619C4B00221A629A4B00225A62994BB8
:1005DC0000229A62974BD962984B1B781D46984B18
:1005EC001B881C46974B1B781846974B1B78194653
:1005FC00904B914A1A638F4B02229A868D4B8E4AEE
:10060C009A638C4B10229A878A4B1D64894B5C64CD
:10061C00884B9864874B0022DA64864B00221A655B
:10062C00844B00225A65834B00229A65814BD96515
:10063C00864B1B781D46864B1B881C46854B1B78AE
:10064C001846854B1B7819467A4B7B4A1A66794BB0
:10065C000122A3F86420774B774A9A66754B0822DF
:10066C00A3F86C20734B1D67724B5C67714B9867DA
:10067C00704B0022DA676F4B0022C3F880206D4B61
:10068C000022C3F884206B4B0022C3F88820694BEE
:10069C00C3F88C10714805F029F80C21704805F04E
:1006AC00FDF86F4805F022F86E4805F01FF86E4B08
:1006BC001C686D4B1B681846FFF742FD03469BB246
:1006CC001946204609F03AFFFFF7D8FE0121012018
:1006DC00FFF7DEFE6548FFF70DFF01210220FFF753
:1006EC00D7FE6348FFF706FF0E210220FFF7D0FE6E
:1006FC00FFF715FF4FF4FA6001F004FE5D4B1B7819
:10070C00012B40F0FA804FF400515B4802F0C8F81E
:10071C005A4B1B783A2B40F0CB80584B5B78233BE1
:10072C001C2B00F2B78001A252F823F0ED07000851
:10073C00A1080008A1080008A1080008A1080008E9
:10074C00A1080008A1080008A1080008CD070008AE
:10075C00A1080008AD070008A1080008A1080008BE
:10076C00A1080008A1080008A1080008A1080008B9
:10077C00A1080008A1080008A1080008A1080008A9
:10078C00A1080008A1080008A1080008A108000899
:10079C00A1080008A1080008A10800080D0800081D
:1007AC00374938480AF034FB3648FFF7C9FC034692
:1007BC009BB21946334809F0C1FE00F09BFB98E050
:1007CC00314930480AF024FB2E48FFF7B9FC0346A8
:1007DC009BB219462B4809F0B1FE00F073FE88E07D
:1007EC002A4928480AF014FB2648FFF7A9FC0346BF
:1007FC009BB21946234809F0A1FE00F051FF78E0A6
:10080C00234920480AF004FB1E48FFF799FC0346D5
:10081C009BB219461B4809F091FE00F037FA68E0CC
:10082C00000C0140DC020020D60200200000002059
:10083C00DF0200204402002000080140DD020020FD
:10084C00D802002001000020E0020020DE0200207F
:10085C00DA02002002000020E102002074030020D4
:10086C0004040020BC03002004000020A8B70008EA
:10087C00B4B70008F102002000100140F40200207F
:10088C00C4B700081C030020ECB7000814B800081B
:10089C0038B80008BD49BE480AF0BAFABC48FFF7A0
:1008AC004FFC03469BB21946B94809F047FE20E0BD
:1008BC00B84B1B783F2B0FD1B749B5480AF0A8FAB3
:1008CC00B348FFF73DFC03469BB21946B04809F00C
:1008DC0035FE00F0DBF90CE0B049AD480AF098FAAF
:1008EC00AB48FFF72DFC03469BB21946A84809F00C
:1008FC0025FEAB4B00221A7000E7AA4B1B68002B9D
:10090C0035D101210120FFF7C3FDA748FFF7F2FD08
:10091C0001210220FFF7BCFDA448FFF7EBFDA44921
:10092C009B480AF075FA9A48FFF70AFC03469BB2FB
:10093C001946974809F002FE002220219D4801F03B
:10094C0097FF002210219B4801F092FF40F24510C6
:10095C0001F0D8FC0821974801F0A2FF40F24510A5
:10096C0001F0D0FC0821934801F09AFFF7E092497E
:10097C0087480AF04DFA0023C7F8E43022E0D7F894
:10098C00E42013465B0013441B018C4A9818D7F8DB
:10099C00E42013465B0013441B012033874A99184B
:1009AC00D7F8E42013465B0013441B011033834A31
:1009BC00134404331A4601F0A5F8D7F8E430013398
:1009CC00C7F8E430D7F8E430022BD8DD7048FFF7D5
:1009DC00B7FB03469BB219466D4809F0AFFD3F23A8
:1009EC0087F8E330764B1B78002B03D1432387F831
:1009FC00E33006E0724B1B78012B02D1412387F8C0
:100A0C00E3300023C7F8DC301DE00023C7F8D830F2
:100A1C0010E0D7F8DC309A00D7F8D83013449B009C
:100A2C00E8333B44002243F8E42CD7F8D8300133A8
:100A3C00C7F8D830D7F8D830022BEADDD7F8DC303D
:100A4C000133C7F8DC30D7F8DC30022BDDDD0023B6
:100A5C00C7F8D4305DE05949D7F8D42013465B0071
:100A6C0013441B010B441C331B68092B15DCD7F8F2
:100A7C00D4301B01E8333B44E43B18684F49D7F8AA
:100A8C00D42013465B0013441B010B441C331B681E
:100A9C001A464C490AF0BCF936E04849D7F8D4203C
:100AAC0013465B0013441B010B441C331B68632B64
:100ABC0015DCD7F8D4301B01E8333B44E43B186811
:100ACC003E49D7F8D42013465B0013441B010B445A
:100ADC001C331B681A463C490AF09AF914E0D7F803
:100AEC00D4301B01E8333B44E43B18683349D7F856
:100AFC00D42013465B0013441B010B441C331B68AE
:100B0C001A4632490AF084F9D7F8D4300133C7F8C1
:100B1C00D430D7F8D430022B9DDD97F8E3303A1D52
:100B2C0002F110013A1D07F1340001933B1D2033F3
:100B3C0000930B4626490AF06BF901210220FFF7BE
:100B4C00A7FC07F134031846FFF7D4FC40F2EE2063
:100B5C0001F0D8FB01221021164801F089FE1D4B33
:100B6C001B68002BBFF6CAAD40F2451001F0CAFB62
:100B7C000821104801F094FE40F2451001F0C2FB30
:100B8C0008210C4801F08CFEB8E500BF6CB80008D9
:100B9C001C030020F402002038B800088CB80008B0
:100BAC00F1020020E8020020A8B80008B8B800083C
:100BBC00CCB80008000C0140E4B800084402002046
:100BCC00D4020020F8B8000800B9000804B90008E5
:100BDC0008B90008EC02002080B594B000AF07F112
:100BEC0028032822002118460AF032F907F11403D1
:100BFC0000221A605A609A60DA601A613B1D00226A
:100C0C001A605A609A60DA600123BB624FF4803339
:100C1C00FB6200233B630123BB6302237B644FF421
:100C2C008033BB644FF4E013FB6407F128031846D0
:100C3C0004F05AF80346002B01D001F089F80F2379
:100C4C007B610223BB610023FB614FF480633B6239
:100C5C0000237B6207F114030221184604F0C6FA44
:100C6C000346002B01D001F073F810237B600023A6
:100C7C003B613B1D184604F033FC0346002B01D0AE
:100C8C0001F066F800BF5037BD4680BD80B500AF9F
:100C9C0089498A480AF0BCF88848FFF751FA03469C
:100CAC009BB21946854809F049FC854983480AF0EE
:100CBC00AFF88248FFF744FA03469BB219467F48C7
:100CCC0009F03CFC7F497D480AF0A2F87B48FFF70D
:100CDC0037FA03469BB21946784809F02FFC7A493B
:100CEC0076480AF095F87548FFF72AFA03469BB246
:100CFC001946724809F022FC744970480AF088F8C9
:100D0C006E48FFF71DFA03469BB219466B4809F073
:100D1C0015FC6F4969480AF07BF86848FFF710FA30
:100D2C0003469BB21946654809F008FC69496348BB
:100D3C000AF06EF86148FFF703FA03469BB21946B6
:100D4C005E4809F0FBFB64495C480AF061F85B48BB
:100D5C00FFF7F6F903469BB21946584809F0EEFB2B
:100D6C005E4956480AF054F85448FFF7E9F903462F
:100D7C009BB21946514809F0E1FB59494F480AF01A
:100D8C0047F84E48FFF7DCF903469BB219464B482F
:100D9C0009F0D4FB534949480AF03AF84748FFF7A1
:100DAC00CFF903469BB21946444809F0C7FB4E499C
:100DBC0042480AF02DF84148FFF7C2F903469BB2AE
:100DCC0019463E4809F0BAFB48493C480AF020F85D
:100DDC003A48FFF7B5F903469BB21946374809F074
:100DEC00ADFB434935480AF013F83448FFF7A8F92E
:100DFC0003469BB21946314809F0A0FB36492F48EF
:100E0C000AF006F82D48FFF79BF903469BB21946EA
:100E1C002A4809F093FB3149284809F0F9FF274883
:100E2C00FFF78EF903469BB21946244809F086FB5E
:100E3C002B49224809F0ECFF2048FFF781F90346C3
:100E4C009BB219461D4809F079FB26491B4809F04D
:100E5C00DFFF1A48FFF774F903469BB2194617488F
:100E6C0009F06CFB2049154809F0D2FF1348FFF735
:100E7C0067F903469BB21946104809F05FFB1B4902
:100E8C000E4809F0C5FF0D48FFF75AF903469BB20F
:100E9C0019460A4809F052FB1549084809F0B8FFF1
:100EAC000648FFF74DF903469BB21946034809F073
:100EBC0045FB00BF80BD00BF18B900081C03002013
:100ECC004CB9000884B90008C0B90008F8B900088A
:100EDC0034BA00086CBA000890BA0008B8BA000816
:100EEC00ECBA000818BB000840BB00086CBB00083B
:100EFC0098BB000880B584B000AFB34B9B78482BEF
:100F0C0040F0018101222021B04801F0B1FC002207
:100F1C001021AE4801F0ACFCFFF7B0FA0121012022
:100F2C00FFF7B6FAAA48FFF7E5FA01210220FFF70E
:100F3C00AFFAA848FFF7DEFA962001F0E3F900209B
:100F4C0000F036FEA44B00221A70A44AA449A5480E
:100F5C0000F094FC0346A44A1360A34B1B68002BBF
:100F6C0028D1A14B1B681A46A049A14809F050FF93
:100F7C009F48FFF7E5F803469BB219469C4809F0D9
:100F8C00DDFAFFF77BFA01210120FFF781FA99487E
:100F9C00FFF7B0FA01210220FFF77AFA9648FFF723
:100FAC00A9FA962001F0AEF901220821874801F038
:100FBC005FFCA2E08C4B1B68B3F1FF3F23D18A4B43
:100FCC001B681A468D498A4809F022FF8848FFF7AA
:100FDC00B7F803469BB21946854809F0AFFAFFF7FC
:100FEC004DFA01210120FFF753FA8548FFF782FAE9
:100FFC0001210220FFF74CFA8248FFF77BFA96207A
:10100C0001F080F979E0784B1B6813F1020F23D1C2
:10101C00754B1B681A467C49754809F0F9FE7448F3
:10102C00FFF78EF803469BB21946714809F086FA11
:10103C00FFF724FA01210120FFF72AFA7048FFF785
:10104C0059FA01210220FFF723FA7048FFF752FAF0
:10105C00962001F057F950E0634B1B6813F1030F16
:10106C0023D1614B1B681A466949614809F0D0FECF
:10107C005F48FFF765F803469BB219465C4809F0D8
:10108C005DFAFFF7FBF901210120FFF701FA5C483B
:10109C00FFF730FA01210220FFF7FAF95D48FFF75C
:1010AC0029FA962001F02EF927E04F4B1B68012BF3
:1010BC0023D14D4B1B681A4657494D4809F0A8FEE1
:1010CC004B48FFF73DF803469BB21946484809F0D8
:1010DC0035FAFFF7D3F901210120FFF7D9F94F4871
:1010EC00FFF708FA01210220FFF7D2F94C48FFF76D
:1010FC0001FA40F2EE2001F005F940F2DC5001F06B
:10110C0001F90023B3E1304B9B78562B40F09480CF
:10111C00012220212D4801F0ABFB002210212B488D
:10112C0001F0A6FB3F4B284A0521032000F062FD8D
:10113C003C4809F0E1FD0346FB71FB79632B28D891
:10114C000023FB600CE0F9793748FA6813465B0022
:10115C0013441B01034414331960FB680133FB6017
:10116C00FB68022BEFDD01210120FFF791F92F49DC
:10117C001F4809F04DFE1E48FEF7E2FF03469BB2E6
:10118C0019461B4809F0DAF9962001F0BBF8002348
:10119C006DE12749164809F03BFE1548FEF7D0FFD4
:1011AC0003469BB21946124809F0C8F901210120E7
:1011BC00FFF76EF91F48FFF79DF940F2EE2001F0A2
:1011CC00A1F8012353E100BFF4020020000C014000
:1011DC00D4BB0008E4BB0008D4020020E4020020C9
:1011EC00E3020020E2020020EC020020F8BB000821
:1011FC001C03002018BC000828BC00083CBC0008DC
:10120C005CBC000870BC000884BC0008A4BC0008CE
:10121C00B8BC0008D8BC0008ECBC000814BD000821
:10122C00B8B80008580300204402002028BD00086C
:10123C0048BD000874BD00088F4B9B78762B62D19B
:10124C008D4BDB78582B44D18B4BDB79592B40D110
:10125C00894BDB7A5A2B3CD101222021874801F0A3
:10126C0007FB00221021854801F002FB844B824AC7
:10127C000621042000F0BEFC824B7F4A0A21082084
:10128C0000F0B8FC804B7C4A0E210C2000F0B2FC24
:10129C000023BB6019E0BB685A1C13465B00134467
:1012AC005B007A4A1344184609F026FD0346DBB26C
:1012BC0018467749BA6813465B0013441B010B446C
:1012CC0014331860BB680133BB60BB68022BE2DDD2
:1012DC0017E07049704809F09BFD6F48FEF730FF2E
:1012EC0003469BB219466C4809F028F901210120EC
:1012FC00FFF7CEF86948FFF7FDF840F2EE2001F059
:10130C0001F80023B3E05C4B9B78452B76D101228E
:10131C0020215A4801F0ACFA00221021574801F064
:10132C00A7FA5A4B544A0321032000F063FC574898
:10133C0009F0E2FC0346DBB2012B1FD1534809F044
:10134C00DBFC0346DBB2184600F090FB54495248D4
:10135C0009F05EFD5048FEF7F3FE03469BB21946BA
:10136C004D4809F0EBF801210120FFF791F84D48A9
:10137C00FFF7C0F8962000F0C5FF3DE0434809F0A8
:10138C00BBFC0346DBB2002B1FD1404809F0B4FC78
:10139C000346DBB2184600F069FB43493E4809F0AE
:1013AC0037FD3D48FEF7CCFE03469BB219463A4842
:1013BC0009F0C4F801210120FFF76AF83B48FFF758
:1013CC0099F8962000F09EFF16E03949324809F052
:1013DC001FFD3148FEF7B4FE03469BB219462E485A
:1013EC0009F0ACF801210120FFF752F83148FFF762
:1013FC0081F8962000F086FF002338E01E4B9B7886
:10140C00532B26D1012220211C4801F031FA002255
:10141C0010211A4801F02CFA4FF0FF3000F026FB97
:10142C0025491D4809F0F4FC1B48FEF789FE0346CC
:10143C009BB21946184809F081F801210120FFF7E9
:10144C0027F81E48FFF756F8962000F05BFF0023A4
:10145C000DE01B49104809F0DBFC0F48FEF770FE4D
:10146C0003469BB219460C4809F068F8012318464C
:10147C001037BD4680BD00BFF4020020000C0140B7
:10148C005E030020640300206A0300205803002040
:10149C004402002088BD00081C030020B4BD0008D5
:1014AC00C8BD0008E8BD0008FCBD000820BE00084F
:1014BC0034BE000850BE000860BE000880BE0008A4
:1014CC0094BE000880B586B000AF6B4B1B78442BE4
:1014DC003DD101222021694801F0CAF900221021D6
:1014EC00664801F0C5F93B1D654A0421022000F055
:1014FC0081FB3B1D0533624A0821062000F07AFB74
:10150C003B1D0A335E4A0B21092000F073FB0023BC
:10151C007B6118E07A6913465B0013445B00564A02
:10152C001344184609F0E8FB0346DBB2184655494C
:10153C007A6913465B0013441B010B44203318607B
:10154C007B6901337B617B69022BE3DD8FE04A4BC6
:10155C001B78502B40F08B8001222021474801F052
:10156C0087F900221021454801F082F9464B444A84
:10157C000421022000F03EFB434809F0BDFB03466A
:10158C00DBB2592B2AD8404809F0B6FB0346DBB234
:10159C00002B23D03C4809F0AFFB0346DBB29BB2D7
:1015AC00184600F005FB394B00221A7038493948AF
:1015BC0009F02EFC3748FEF7C3FD03469BB21946D3
:1015CC00344808F0BBFF10210220FEF761FF4320D6
:1015DC00FEF70EFF962000F095FE48E02A4809F031
:1015EC008BFB0346DBB2592B2AD9274809F084FB25
:1015FC000346DBB2002B23D0234809F07DFB0346C6
:10160C00DBB29BB2184600F0D3FA204B01221A70C1
:10161C002149204809F0FCFB1E48FEF791FD0346CA
:10162C009BB219461B4808F089FF10210220FEF7D7
:10163C002FFF4120FEF7DCFE962000F063FE16E043
:10164C001649144809F0E4FB1248FEF779FD0346ED
:10165C009BB219460F4808F071FF10210220FEF7CB
:10166C0017FF3F20FEF7C4FE962000F04BFE01232F
:10167C0018461837BD4680BD58030020000C0140A9
:10168C00F40200204402002064030020D402002055
:10169C00B8BE00081C030020D4BE0008F0BE000831
:1016AC0080B586B000AF6B4B1B78442B3DD101222B
:1016BC002021694801F0DCF800221021664801F075
:1016CC00D7F83B1D654A0421022000F093FA3B1D1C
:1016DC000533624A0821062000F08CFA3B1D0A33C0
:1016EC005E4A0B21092000F085FA00237B6118E08B
:1016FC007A6913465B0013445B00564A1344184640
:10170C0009F0FAFA0346DBB2184655497A691346D2
:10171C005B0013441B010B44203318607B690133BD
:10172C007B617B69022BE3DD8FE04A4B1B78502BEE
:10173C0040F08B8001222021474801F099F80022CB
:10174C001021454801F094F8464B444A04210220EC
:10175C0000F050FA434809F0CFFA0346DBB2592B9C
:10176C002AD8404809F0C8FA0346DBB2002B23D034
:10177C003C4809F0C1FA0346DBB29BB2184600F0B4
:10178C0017FA394B00221A703849394809F040FBD6
:10179C003748FEF7D5FC03469BB21946344808F08F
:1017AC00CDFE10210220FEF773FE4320FEF720FE33
:1017BC00962000F0A7FD48E02A4809F09DFA034660
:1017CC00DBB2592B2AD9274809F096FA0346DBB22B
:1017DC00002B23D0234809F08FFA0346DBB29BB2CF
:1017EC00184600F0E5F9204B01221A7021492048D7
:1017FC0009F00EFB1E48FEF7A3FC03469BB21946EC
:10180C001B4808F09BFE10210220FEF741FE4120F0
:10181C00FEF7EEFD962000F075FD16E01649144813
:10182C0009F0F6FA1248FEF78BFC03469BB21946F8
:10183C000F4808F083FE10210220FEF729FE3F20FE
:10184C00FEF7D6FD962000F05DFD012318461837F3
:10185C00BD4680BD58030020000C0140F40200205E
:10186C004402002064030020D4020020B8BE00080B
:10187C001C030020D4BE0008F0BE000880B586B062
:10188C0000AFF860B9607A60012000F0EFF8002337
:10189C007B6127E071497A6913465B0013441B0195
:1018AC000B4418331A6813469B0013445B001A460A
:1018BC004FF47A7393FBF2F168487A6913465B0034
:1018CC0013441B0103442833196064497A69134695
:1018DC005B0013441B010B442C3301221A607B69FF
:1018EC0001337B617B69022BD4DD5C4B0022DA6215
:1018FC005A4B0122DA65594B0122C3F88C20584B04
:10190C0000221A70574803F0F1FE04E0534BDB6AD7
:10191C00DAB2FB681A70FB681B78002B03D1504BB2
:10192C001B78022BF2D94D4B0122DA624B4B002271
:10193C00DA654A4B0122C3F88C20494B00221A70FD
:10194C0004E0464BDB6DDAB2BB681A70BB681B78DF
:10195C00002B03D1424B1B78022BF2D93F4B0122B7
:10196C00DA623E4B0122DA653C4B0022C3F88C2034
:10197C003B4B00221A7005E0384BD3F88C30DAB2AE
:10198C007B681A707B681B78002B03D1344B1B7857
:10199C00022BF1D9334803F0FBFE314B00221A70B5
:1019AC0000233B612AE02D493A6913465B0013443E
:1019BC001B010B44143300221A6028493A69134660
:1019CC005B0013441B010B44283300221A6023498B
:1019DC003A6913465B0013441B010B441C33002271
:1019EC001A601E493A6913465B0013441B010B44F1
:1019FC002C3300221A603B6901333B613B69022B9B
:101A0C00D1DDFB681B78012B0ED1BB681B78012B39
:101A1C000AD17B681B78012B06D1134B1B68013351
:101A2C00114A1360002315E0FB681B78002B02D1D0
:101A3C004FF0FF330EE0BB681B78002B02D16FF028
:101A4C00010307E07B681B78002B02D16FF00203C7
:101A5C0000E0012318461837BD4680BD4402002023
:101A6C00F0020020BC030020E802002080B584B006
:101A7C0000AF78607B68B3F1FF3F27D10023FB6098
:101A8C0020E01E49FA6813465B0013441B010B440B
:101A9C00143300221A601949FA6813465B00134488
:101AAC001B010B44283300221A601449FA681346B0
:101ABC005B0013441B010B442C3301221A60FB689E
:101ACC000133FB60FB68022BDBDD12E07B68012B32
:101ADC0006D100224FF48071094800F0C9FE08E0DD
:101AEC007B68002B05D101224FF48071044800F073
:101AFC00BFFE00BF1037BD4680BD00BF44020020B2
:101B0C00000C014080B485B000AFF860B9607A6019
:101B1C007B68002B03D07B681A68FB685A61BB6832
:101B2C00002B03D0BB681A68FB681A62FB685B6900
:101B3C00002B31D0FB68DA69FB681B6A9A4212DA17
:101B4C00FB6800221A61FB680022DA62FB685B69A1
:101B5C00FA68926902FB03F34FF47A7292FBF3F288
:101B6C00FB689A621EE0FB68DA69FB681B6A9A42A2
:101B7C0018DDFB6801221A61FB680022DA62FB683F
:101B8C005B69FA68926902FB03F34FF47A7292FB79
:101B9C00F3F2FB689A6205E0FB6800229A62FB682C
:101BAC000122DA6200BF1437BD4680BC70470000CA
:101BBC0080B485B000AF0346FB80FB8840F26C72AA
:101BCC0002FB03F3094A82FB03121A44D211DB17FE
:101BDC00D31A9BB203F22623FB81054B1B68FA89AF
:101BEC001A6400BF1437BD4680BC7047B7600BB693
:101BFC000404002080B487B000AFBA607B60034659
:101C0C00FB730B46BB730023FB75FB7BBB820DE0A8
:101C1C00BB8ABA681A44FB7D79680B4412781A7037
:101C2C00FB7D0133FB75BB8A0133BB82BB7B9BB253
:101C3C00BA8A9A42ECD3FB7D7A68134400221A705C
:101C4C000023FB7500BF1C37BD4680BC70470000ED
:101C5C0080B584B000AF78607B681B68B3F1804FAF
:101C6C005FD10023FB6059E0FA6813465B00134414
:101C7C001B01334A1344BB60BB685B6A5A1CBB68CC
:101C8C005A62BB681A6ABB68DB699A4203D12D4B56
:101C9C001B68002B3FDBBB685A6ABB689B6A9A4285
:101CAC0039DBBB689B6A002B35D0BB6800225A62BB
:101CBC00BB68DB6A002B26D1BB681B69002B0DD1DE
:101CCC00BB68DB695A1CBB68DA61BB689868BB6887
:101CDC009B890122194600F0CBFD0CE0BB68DB6947
:101CEC005A1EBB68DA61BB689868BB689B89002286
:101CFC00194600F0BDFDBB681868BB689B880122C3
:101D0C00194600F0B5FDBB681868BB689B880022BB
:101D1C00194600F0ADFDFB680133FB60FB68022B3C
:101D2C00A2DD7B681B68084A934205D1074B1B78E0
:101D3C000133DAB2054B1A7000BF1037BD4680BDB7
:101D4C0044020020E802002000040040F0020020C1
:101D5C0080B400AF72B600BFFEE7000080B485B05F
:101D6C0000AF154B9B69144A43F001039361124B6E
:101D7C009B6903F00103BB60BB680F4BDB690E4A28
:101D8C0043F08053D3610C4BDB6903F080537B60D1
:101D9C007B680A4B5B68FB60FB6823F0E063FB60CD
:101DAC00FB6843F00073FB60044AFB68536000BFA0
:101DBC001437BD4680BC7047001002400000014043
:101DCC0080B400AFFEE780B400AFFEE780B400AF94
:101DDC00FEE780B400AFFEE780B400AFFEE780B44E
:101DEC0000AF00BFBD4680BC704780B400AF00BFE1
:101DFC00BD4680BC704780B400AF00BFBD4680BC00
:101E0C00704780B500AF00F061FA00BF80BD0000E4
:101E1C0080B500AF024801F01EFB00BF80BD00BFC3
:101E2C001811002080B500AF024803F0D9FD00BFA7
:101E3C0080BD00BF7403002080B500AF024803F0E2
:101E4C00CFFD00BF80BD00BFBC03002080B586B0B5
:101E5C0000AF7860144A154BD31A7B617B693B61E8
:101E6C00134B1B68002B02D1114B124A1A60104BFA
:101E7C001A687B6813443A699A4207D208F0F0FF5B
:101E8C0003460C221A604FF0FF3309E0084B1B6825
:101E9C00FB60074B1A687B681344054A1360FB68A8
:101EAC0018461837BD4680BD0050002000040000C5
:101EBC00700300207017002080B400AF00BFBD4637
:101ECC0080BC704780B586B000AF07F108030022D4
:101EDC001A605A609A60DA603B4600221A605A60B7
:101EEC001D4B4FF080421A601B4B47225A601A4B15
:101EFC0000229A60184B4FF6FF72DA60164B0022E4
:101F0C001A61154B00229A61134803F09FFB03469C
:101F1C00002B01D0FFF71CFF4FF48053BB6007F17F
:101F2C00080319460C4803F025FF0346002B01D08B
:101F3C00FFF70EFF00233B6000237B603B461946F6
:101F4C00054804F0A7FA0346002B01D0FFF700FF69
:101F5C0000BF1837BD4680BD7403002080B586B025
:101F6C0000AF07F1080300221A605A609A60DA6029
:101F7C003B4600221A605A601D4B1E4A1A601C4BCD
:101F8C0041F61F425A601A4B00229A60184B42F2DB
:101F9C000F72DA60164B00221A61154B00229A61FF
:101FAC00134803F053FB0346002B01D0FFF7D0FE80
:101FBC004FF48053BB6007F1080319460C4803F03B
:101FCC00D9FE0346002B01D0FFF7C2FE00233B6075
:101FDC0000237B603B461946054804F05BFA034638
:101FEC00002B01D0FFF7B4FE00BF1837BD4680BDF3
:101FFC00BC0300200004004080B58EB000AF07F198
:10200C00280300221A605A609A60DA6007F12003F4
:10201C0000221A605A603B1D00221A605A609A60B6
:10202C00DA601A615A619A612C4B2D4A1A602B4B5B
:10203C0047225A60294B00229A60284B44F61F62B3
:10204C00DA60264B00221A61244B00229A61234845
:10205C0003F0FCFA0346002B01D0FFF779FE4FF496
:10206C008053BB6207F1280319461C4803F082FE1B
:10207C000346002B01D0FFF76BFE184803F0B6FBAC
:10208C000346002B01D0FFF763FE00233B620023C5
:10209C007B6207F120031946104804F0FBF9034654
:1020AC00002B01D0FFF754FE60237B600023BB6044
:1020BC000023FB6000237B613B1D0C221946074863
:1020CC0003F096FD0346002B01D0FFF741FE0348B9
:1020DC0000F05CF800BF3837BD4680BD040400201A
:1020EC000008004080B586B000AF78607B681B6844
:1020FC00B3F1804F14D1224BDB69214A43F0010329
:10210C00D3611F4BDB6903F001037B617B69002208
:10211C0000211C2000F0F1F91C2000F00AFA2AE042
:10212C007B681B68174A934214D1154BDB69144A20
:10213C0043F00203D361124BDB6903F002033B61F2
:10214C003B69002200211D2000F0D7F91D2000F072
:10215C00F0F910E07B681B680B4A93420BD1084BDB
:10216C00DB69074A43F00403D361054BDB6903F0D9
:10217C000403FB60FB6800BF1837BD4680BD00BF81
:10218C0000100240000400400008004080B588B0F8
:10219C0000AF786007F1100300221A605A609A6051
:1021AC00DA607B681B68104A934218D10F4B9B690D
:1021BC000E4A43F0080393610C4B9B6903F0080330
:1021CC00FB60FB684FF400733B6102237B610223CD
:1021DC00FB6107F110031946054800F0C5F900BF73
:1021EC002037BD4680BD00BF0008004000100240F3
:1021FC00000C0140FFF760FE0B480C490C4A002311
:10220C0002E0D458C4500433C4188C42F9D3094AA0
:10221C00094C002301E013600432A242FBD308F006
:10222C0025FEFEF783F9704700000020D401002042
:10223C00C4C00008D401002070170020FEE7000085
:10224C0080B500AF084B1B68074A43F010031360BE
:10225C00032000F047F90F2000F008F8FFF77EFD8F
:10226C000023184680BD00BF0020024080B582B01C
:10227C0000AF7860124B1A68124B1B7819464FF45A
:10228C007A73B3FBF1F3B2FBF3F3184600F05FF98A
:10229C000346002B01D001230EE07B680F2B0AD8DC
:1022AC00002279684FF0FF3000F027F9064A7B686E
:1022BC001360002300E0012318460837BD4680BD9B
:1022CC0008000020100000200C00002080B400AF9B
:1022DC00054B1B781A46054B1B681344034A1360C5
:1022EC0000BFBD4680BC7047100000204C0400208D
:1022FC0080B400AF024B1B681846BD4680BC7047CB
:10230C004C04002080B584B000AF7860FFF7F0FF7C
:10231C00B8607B68FB60FB68B3F1FF3F05D00A4BEC
:10232C001B781A46FB681344FB6000BFFFF7E0FF05
:10233C000246BB68D31AFA689A42F7D800BF00BFAE
:10234C001037BD4680BD00BF1000002080B485B0A2
:10235C0000AF78607B6803F00703FB600C4BDB6815
:10236C00BB60BA684FF6FF031340BB60FB681A02F0
:10237C00BB68134343F0BF6343F40033BB60044AB0
:10238C00BB68D36000BF1437BD4680BC704700BF2C
:10239C0000ED00E080B400AF044BDB681B0A03F0D7
:1023AC0007031846BD4680BC704700BF00ED00E037
:1023BC0080B483B000AF0346FB7197F90730002B54
:1023CC000BDBFB7903F01F02064997F907305B0919
:1023DC00012000FA02F241F8232000BF0C37BD4661
:1023EC0080BC704700E100E080B483B000AF0346CE
:1023FC003960FB7197F90730002B0ADB3B68DAB2C6
:10240C000C4997F907301201D2B20B4483F8002320
:10241C000AE03B68DAB20849FB7903F00F03043B8E
:10242C001201D2B20B441A7600BF0C37BD4680BCE9
:10243C00704700BF00E100E000ED00E080B489B01F
:10244C0000AFF860B9607A60FB6803F00703FB61CA
:10245C00FB69C3F10703042B28BF0423BB61FB6991
:10246C000433062B02D9FB69033B00E000237B619C
:10247C004FF0FF32BB6902FA03F3DA43BB681A4030
:10248C007B699A404FF0FF317B6901FA03F3D94322
:10249C007B680B40134318462437BD4680BC7047FD
:1024AC0080B582B000AF78607B68013BB3F1807F70
:1024BC0001D301230FE00A4A7B68013B53600F21D3
:1024CC004FF0FF30FFF790FF054B00229A60044B52
:1024DC0007221A60002318460837BD4680BD00BF8E
:1024EC0010E000E080B582B000AF78607868FFF74C
:1024FC002DFF00BF0837BD4680BD80B586B000AF4C
:10250C000346B9607A60FB7300237B61FFF742FFDF
:10251C0078617A68B9687869FFF790FF024697F995
:10252C000F3011461846FFF75FFF00BF1837BD4646
:10253C0080BD80B582B000AF0346FB7197F90730C0
:10254C001846FFF735FF00BF0837BD4680BD80B584
:10255C0082B000AF78607868FFF7A2FF0346184698
:10256C000837BD4680BD000080B48BB000AF7860EA
:10257C00396000237B6200233B6269E101227B6AA4
:10258C0002FA03F3FB613B681B68FA691340BB61F9
:10259C00BA69FB699A4240F058813B685B689A4A79
:1025AC0093425ED0984A934275D8984A934258D039
:1025BC00964A93426FD8964A934252D0944A934289
:1025CC0069D8944A93424CD0924A934263D8924A27
:1025DC00934246D0904A93425DD8122B2AD8122BA4
:1025EC0059D801A252F823F06F260008492600089A
:1025FC005B2600089D260008A3260008A3260008D9
:10260C00A3260008A3260008A3260008A32600087A
:10261C00A3260008A3260008A3260008A32600086A
:10262C00A3260008A3260008A326000851260008AC
:10263C0065260008794A934213D02CE03B68DB688E
:10264C003B6229E03B68DB6804333B6224E03B6877
:10265C00DB6808333B621FE03B68DB680C333B6292
:10266C001AE03B689B68002B02D104233B6213E009
:10267C003B689B68012B05D108233B627B68FA6998
:10268C001A6109E008233B627B68FA695A6103E02E
:10269C0000233B6200E000BFBB69FF2B01D87B68C5
:1026AC0001E07B6804337B61BB69FF2B02D87B6A3A
:1026BC009B0002E07B6A083B9B003B617B691A68CC
:1026CC000F213B6901FA03F3DB431A40396A3B697A
:1026DC0001FA03F31A437B691A603B685B6803F0E9
:1026EC008053002B00F0B1804D4B9B694C4A43F05A
:1026FC00010393614A4B9B6903F00103BB60BB6808
:10270C00484A7B6A9B08023352F82330FB607B6A91
:10271C0003F003039B000F2202FA03F3DB43FA6876
:10272C001340FB607B68404A934213D07B683F4A5E
:10273C0093420DD07B683E4A934207D07B683D4A5A
:10274C00934201D1032306E0042304E0022302E0B8
:10275C00012300E000237A6A02F003029200934006
:10276C00FA681343FB602F497B6A9B080233FA68B3
:10277C0041F823203B685B6803F48013002B06D0E0
:10278C002D4B9A682C49BB6913438B6006E02A4B8E
:10279C009A68BB69DB43284913408B603B685B68D4
:1027AC0003F40013002B06D0234BDA682249BB69D3
:1027BC001343CB6006E0204BDA68BB69DB431E4950
:1027CC001340CB603B685B6803F40033002B06D0EE
:1027DC00194B5A681849BB6913434B6006E0164BFA
:1027EC005A68BB69DB43144913404B603B685B6818
:1027FC0003F48033002B21D00F4B1A680E49BB69B0
:10280C0013430B6021E000BF0000321000003110B8
:10281C000000221000002110000012100000111006
:10282C00001002400000014000080140000C014073
:10283C000010014000140140000401400B4B1A68C9
:10284C00BB69DB43094913400B607B6A01337B6234
:10285C003B681A687B6A22FA03F3002B7FF48EAE76
:10286C0000BF00BF2C37BD4680BC70470004014040
:10287C0080B483B000AF78600B467B8013467B70CE
:10288C007B78002B03D07A887B681A6103E07B8805
:10289C001A047B681A6100BF0C37BD4680BC7047B8
:1028AC0080B485B000AF78600B467B807B68DB68BA
:1028BC00FB607A88FB6813401A04FB68D9437B8859
:1028CC000B401A437B681A6100BF1437BD4680BCAD
:1028DC007047000080B584B000AF78607B68002B37
:1028EC0001D101232BE17B6893F83D30DBB2002B47
:1028FC0006D17B68002283F83C207868FDF70AFD3E
:10290C007B68242283F83D207B681B681A687B68EF
:10291C001B6822F001021A607B681B681A687B68CE
:10292C001B6842F400421A607B681B681A687B685B
:10293C001B6822F400421A6002F0A0FDF8607B686C
:10294C005B68814A934207D8FB68804A934294BFE4
:10295C0001230023DBB206E0FB687D4A934294BF5F
:10296C0001230023DBB2002B01D00123E7E0FB683D
:10297C00784AA2FB03239B0CBB607B681B685B68DB
:10298C0023F03F017B681B68BA680A435A607B6876
:10299C001B681B6A23F03F017B685B686A4A9342A1
:1029AC0002D8BB68013309E0BB684FF4967202FB96
:1029BC0003F3694AA2FB03239B0901337A6812686B
:1029CC000B4313627B681B68DB6923F44F4222F0D4
:1029DC00FF027B685B685C498B4219D8FB68591E07
:1029EC007B685B685B00B1FBF3F3591C40F6FC732E
:1029FC000B40002B0AD0FB68591E7B685B685B00A0
:102A0C00B1FBF3F30133C3F30B0351E004234FE0A9
:102A1C007B689B68002B11D1FB68581E7B6859683A
:102A2C000B465B000B44B0FBF3F30133C3F30B0316
:102A3C00002B0CBF01230023DBB212E0FB68581EF5
:102A4C007B6859680B469B000B4499000B44B0FB08
:102A5C00F3F30133C3F30B03002B0CBF012300234F
:102A6C00DBB2002B01D0012322E07B689B68002B9A
:102A7C000ED1FB68581E7B6859680B465B000B44F3
:102A8C00B0FBF3F30133C3F30B0343F400430FE048
:102A9C00FB68581E7B6859680B469B000B449900D9
:102AAC000B44B0FBF3F30133C3F30B0343F4404388
:102ABC00796809681343CB617B681B681B6823F03A
:102ACC00C0017B68DA697B681B6A1A437B681B68E8
:102ADC000A431A607B681B689B6823F4034323F04A
:102AEC00FF037A6811697A68D26811437A681268B0
:102AFC000B4393607B681B68DB6823F0FF017B68EA
:102B0C005A697B689B691A437B681B680A43DA60C5
:102B1C007B681B681A687B681B6842F001021A60AC
:102B2C007B6800221A647B68202283F83D207B6836
:102B3C0000221A637B68002283F83E20002318468B
:102B4C001037BD4680BD00BFA08601007F841E00EB
:102B5C00FF083D0083DE1B43D34D621080B588B067
:102B6C0002AFF8607A601A460B467B8113463B81B4
:102B7C00FFF7BEFB7861FB6893F83D30DBB2202B8E
:102B8C0040F0E0807B690093192301227049F868BA
:102B9C0000F064F90346002B01D00223D3E0FB685C
:102BAC0093F83C30012B01D10223CCE0FB680122CD
:102BBC0083F83C20FB681B681B6803F00103012BA6
:102BCC0007D0FB681B681A68FB681B6842F001029F
:102BDC001A60FB681B681A68FB681B6822F40062A9
:102BEC001A60FB68212283F83D20FB68102283F8D1
:102BFC003E20FB6800221A64FB687A685A62FB6804
:102C0C003A895A85FB685B8D9AB2FB681A85FB681A
:102C1C00504ADA6279897B693A6AF86800F09CF864
:102C2C000346002B01D001238DE000233B61FB68A0
:102C3C001B685B693B61FB681B689B693B613B697B
:102C4C0066E07A69396AF86800F022FA0346002BCC
:102C5C000DD0FB681B6C042B07D1FB681B681A6832
:102C6C00FB681B6842F400721A6001236BE0FB687E
:102C7C005B6A1A78FB681B681A61FB685B6A5A1CF2
:102C8C00FB685A62FB685B8D9BB2013B9AB2FB6896
:102C9C005A85FB681B8D013B9AB2FB681A85FB6851
:102CAC001B685B6903F00403042B1BD1FB681B8DB1
:102CBC00002B17D0FB685B6A1A78FB681B681A61DB
:102CCC00FB685B6A5A1CFB685A62FB685B8D9BB2A3
:102CDC00013B9AB2FB685A85FB681B8D013B9AB28B
:102CEC00FB681A857A69396AF86800F019FA0346A4
:102CFC00002B0DD0FB681B6C042B07D1FB681B68E9
:102D0C001A68FB681B6842F400721A6001231AE00F
:102D1C00FB681B8D002B94D1FB681B681A68FB6841
:102D2C001B6842F400721A60FB68202283F83D2075
:102D3C00FB68002283F83E20FB68002283F83C20CD
:102D4C00002300E0022318461837BD4680BD00BFA3
:102D5C00020010000000FFFF80B588B002AFF860E1
:102D6C007A603B600B467B81FB68DB6A7B617B692D
:102D7C00082B06D07B69012B03D07B6913F5803FB0
:102D8C0008D1FB681B681A68FB681B6842F48072E8
:102D9C001A600BE0FB681B6B122B07D1FB681B68DE
:102DAC001A68FB681B6842F480721A603B680093D7
:102DBC007B6800224FF00111F86800F04FF80346D1
:102DCC00002B0DD0FB681B681B6803F48073B3F5F4
:102DDC00807F03D1FB684FF400721A64032335E043
:102DEC00FB681B69B3F5804F08D17B89DBB21A46AF
:102DFC00FB681B6802F0FE021A611BE07B89DB1189
:102E0C00DBB203F00603DBB263F00F03DAB2FB684C
:102E1C001B681A613B687A680E49F86800F098F8EC
:102E2C000346002B01D0012310E07B89DAB2FB684A
:102E3C001B681A613B687A680749F86800F088F8E3
:102E4C000346002B01D0012300E00023184618375D
:102E5C00BD4680BD080001000200010080B584B0B1
:102E6C0000AFF860B9603B601346FB7148E03B680B
:102E7C00B3F1FF3F44D0FFF73BFA0246BB69D31ACC
:102E8C003A689A4202D33B68002B39D1BB681B0CC1
:102E9C00DBB2012B0DD1FB681B685B69DA43BB68A5
:102EAC0013409BB2002B0CBF01230023DBB21A464C
:102EBC000CE0FB681B689B69DA43BB6813409BB250
:102ECC00002B0CBF01230023DBB21A46FB799A427C
:102EDC0016D1FB6800221A63FB68202283F83D2080
:102EEC00FB68002283F83E20FB681B6C43F0200239
:102EFC00FB681A64FB68002283F83C20012323E062
:102F0C00BB681B0CDBB2012B0DD1FB681B685B692A
:102F1C00DA43BB6813409BB2002B0CBF0123002388
:102F2C00DBB21A460CE0FB681B689B69DA43BB6892
:102F3C0013409BB2002B0CBF01230023DBB21A46BB
:102F4C00FB799A4293D0002318461037BD4680BDBA
:102F5C0080B584B000AFF860B9607A603B6071E016
:102F6C00FB681B685B6903F48063B3F5806F23D146
:102F7C00FB681B681A68FB681B6842F400721A60D5
:102F8C00FB681B686FF480625A61FB6800221A634D
:102F9C00FB68202283F83D20FB68002283F83E204A
:102FAC00FB681B6C43F00402FB681A64FB6800228C
:102FBC0083F83C20012367E07B68B3F1FF3F41D0ED
:102FCC00FFF796F902463B68D31A7A689A4202D305
:102FDC007B68002B36D1BB681B0CDBB2012B0CD1F0
:102FEC00FB681B685B69DA43BB6813409BB2002B20
:102FFC0014BF01230023DBB20BE0FB681B689B6949
:10300C00DA43BB6813409BB2002B14BF012300238F
:10301C00DBB2002B16D0FB6800221A63FB6820225F
:10302C0083F83D20FB68002283F83E20FB681B6C74
:10303C0043F02002FB681A64FB68002283F83C20F2
:10304C00012321E0BB681B0CDBB2012B0CD1FB680C
:10305C001B685B69DA43BB6813409BB2002B14BF3F
:10306C0001230023DBB20BE0FB681B689B69DA438E
:10307C00BB6813409BB2002B14BF01230023DBB2AF
:10308C00002B7FF46DAF002318461037BD4680BD72
:10309C0080B584B000AFF860B9607A6034E0F8684D
:1030AC0000F086F80346002B01D0012334E0BB6806
:1030BC00B3F1FF3F28D0FFF71BF902467B68D31A08
:1030CC00BA689A4202D3BB68002B1DD1FB681B68FF
:1030DC005B6903F08003802B16D0FB6800221A6317
:1030EC00FB68202283F83D20FB68002283F83E20F9
:1030FC00FB681B6C43F02002FB681A64FB6800221F
:10310C0083F83C20012307E0FB681B685B6903F034
:10311C008003802BC3D1002318461037BD4680BDD9
:10312C0080B584B000AFF860B9607A6034E0F868BC
:10313C0000F03EF80346002B01D0012334E0BB68BD
:10314C00B3F1FF3F28D0FFF7D3F802467B68D31AC0
:10315C00BA689A4202D3BB68002B1DD1FB681B686E
:10316C005B6903F00403042B16D0FB6800221A637E
:10317C00FB68202283F83D20FB68002283F83E2068
:10318C00FB681B6C43F02002FB681A64FB6800228E
:10319C0083F83C20012307E0FB681B685B6903F0A4
:1031AC000403042BC3D1002318461037BD4680BD41
:1031BC0080B483B000AF78607B681B685B6903F4F4
:1031CC008063B3F5806F1BD17B681B686FF48062E2
:1031DC005A617B6800221A637B68202283F83D20A9
:1031EC007B68002283F83E207B681B6C43F0040252
:1031FC007B681A647B68002283F83C20012300E082
:10320C00002318460C37BD4680BC7047F0B58BB018
:10321C0006AF78607B68002B01D10123F1E07B685D
:10322C0093F8A932DBB2002B06D17B68002283F81D
:10323C00A822786807F0B6FA7B68032283F8A922E3
:10324C007B681B68184603F0BBF97B681B683B6006
:10325C007E686D4606F110040FCC0FC523682B60F9
:10326C00331D0ECB386803F085F90346002B05D0CF
:10327C007B68022283F8A9220123C2E07B681B68C9
:10328C000021184603F0B6F90023FB7340E0FB7BEA
:10329C0079685A1C13469B001344DB000B44013322
:1032AC0001221A70FB7B79685A1C13469B0013444D
:1032BC00DB000B44FA7B1A70FB7B79685A1C1346B3
:1032CC009B001344DB000B44033300221A70FA7B7F
:1032DC00796813469B001344DB000B4438330022FF
:1032EC001A60FA7B796813469B001344DB000B448D
:1032FC003C3300221A60FA7B796813469B00134416
:10330C00DB000B44403300221A60FB7B0133FB7360
:10331C00FA7B7B685B689A42B9D30023FB7344E069
:10332C00FA7B796813469B001344DB000B4403F2D1
:10333C00691300221A70FA7B796813469B001344B8
:10334C00DB000B4403F5B473FA7B1A70FA7B7968D3
:10335C0013469B001344DB000B4403F26B13002257
:10336C001A70FA7B796813469B001344DB000B44FC
:10337C0003F5BC7300221A60FA7B796813469B0034
:10338C001344DB000B4403F5BE7300221A60FA7B76
:10339C00796813469B001344DB000B4403F5C073A0
:1033AC0000221A60FB7B0133FB73FA7B7B685B6842
:1033BC009A42B5D37B681B683B607E686D4606F10C
:1033CC0010040FCC0FC523682B60331D0ECB38684F
:1033DC0003F01CF90346002B05D07B68022283F80E
:1033EC00A92201230DE07B68002283F824207B684E
:1033FC00012283F8A9227B681B68184605F09DFB07
:10340C00002318461437BD46F0BD80B582B000AF1E
:10341C0078607B6893F8A832012B01D1022316E067
:10342C007B68012283F8A8227B681B68184603F08E
:10343C00B1F80121786807F028FC7B681B681846F6
:10344C0005F071FB7B68002283F8A8220023184644
:10345C000837BD4680BD80B588B000AF78607B680A
:10346C001B68184605F073FBB861BB6903F4004395
:10347C00002B03D0786800F01BFB19E1BB6903F447
:10348C008063002B13D07B681B68B3F844309AB26E
:10349C007B681B6822F4806292B2A3F8442078689F
:1034AC0007F0FBF90021786800F005F900E1BB6931
:1034BC0003F48043002B0CD07B681B68B3F84430BA
:1034CC009AB27B681B6822F4804292B2A3F8442023
:1034DC00EEE0BB6903F40053002B0CD07B681B6837
:1034EC00B3F844309AB27B681B6822F4005292B253
:1034FC00A3F84420DCE0BB6903F48053002B27D0F5
:10350C007B681B68B3F840309AB27B681B6822F06A
:10351C00040292B2A3F840207B681B68B3F84030D9
:10352C009AB27B681B6822F0080292B2A3F8402082
:10353C00786807F0EBF97B681B68B3F844309AB2F3
:10354C007B681B6822F4805292B2A3F84420AFE04F
:10355C00BB6903F40063002B00F083800023FB772E
:10356C0010E07B681B681A46FB7F9B001A44FB7FAC
:10357C00128892B25B0020333B4423F8182CFB7F5B
:10358C000133FB77FB7F072BEBD97B681B68B3F808
:10359C0040309AB27B681B6842F0010292B2A3F8E9
:1035AC0040207B681B68B3F840309AB27B681B687C
:1035BC0022F0010292B2A3F8402000BF7B681B6886
:1035CC00B3F844309BB203F48063002BF6D07B68D5
:1035DC001B68B3F844309AB27B681B6822F4806293
:1035EC0092B2A3F844200023FB770FE0FB7F7A68AC
:1035FC0012681146FA7F92000A445B0020333B4468
:10360C0033F8183C1380FB7F0133FB77FB7F072BD0
:10361C00ECD97B681B68B3F840309AB27B681B68A6
:10362C0042F0080292B2A3F840207B681B68B3F802
:10363C0044309AB27B681B6822F4006292B2A3F801
:10364C0044207B681B68B3F840309AB27B681B68D7
:10365C0042F0040292B2A3F84020786807F03CF9DB
:10366C0026E0BB6903F40073002B0FD07B681B684A
:10367C00B3F844309AB27B681B6822F4007292B2A1
:10368C00A3F84420786807F0FAF811E0BB6903F45A
:10369C008073002B0CD07B681B68B3F844309AB253
:1036AC007B681B6822F4807292B2A3F8442000BF9E
:1036BC002037BD4680BD80B582B000AF78600B4628
:1036CC00FB707B6893F8A832012B01D1022313E025
:1036DC007B68012283F8A8227B68FA7883F824207F
:1036EC007B681B68FA781146184605F009FA7B6866
:1036FC00002283F8A822002318460837BD4680BD57
:10370C0080B584B000AF7860084611461A4603466F
:10371C00FB700B463B801346BB700023FB7297F982
:10372C000330002B0EDAFB7803F007035A1C134608
:10373C009B001344DB007A681344FB60FB68012296
:10374C005A700EE0FB7803F0070213469B001344FB
:10375C00DB0003F5B4737A681344FB60FB6800224A
:10376C005A70FB7803F00703DAB2FB681A703A88D8
:10377C00FB681A61FB68BA78DA70BB78022B02D14D
:10378C00FB6800221A717B6893F8A832012B01D1D7
:10379C0002230EE07B68012283F8A8227B681B6859
:1037AC00F968184602F052FF7B68002283F8A822C1
:1037BC00FB7A18461037BD4680BD80B584B000AF8B
:1037CC0078600B46FB7097F90330002B0EDAFB7810
:1037DC0003F007035A1C13469B001344DB007A6862
:1037EC001344FB60FB6801225A700EE0FB7803F077
:1037FC00070213469B001344DB0003F5B4737A688D
:10380C001344FB60FB6800225A70FB7803F007033B
:10381C00DAB2FB681A707B6893F8A832012B01D1DD
:10382C0002230EE07B68012283F8A8227B681B68C8
:10383C00F968184603F0CAFA7B68002283F8A822BC
:10384C00002318461037BD4680BD80B586B000AF4A
:10385C00F8607A603B600B46FB72FB7A03F0070260
:10386C0013469B001344DB0003F5B473FA6813444E
:10387C007B617B697A685A617B693A689A617B697A
:10388C000022DA617B6900225A70FB7A03F007038D
:10389C00DAB27B691A70FB681B687969184603F009
:1038AC0081FC002318461837BD4680BD80B483B018
:1038BC0000AF78600B46FB70FB7803F00702796869
:1038CC0013469B001344DB000B4403F5C2731B68C7
:1038DC0018460C37BD4680BC704780B586B000AF2B
:1038EC00F8607A603B600B46FB72FB7A03F00703CF
:1038FC005A1C13469B001344DB00FA6813447B618B
:10390C007B697A685A617B693A689A617B690122A2
:10391C0083F824207B693A681A627B690022DA6199
:10392C007B6901225A70FB7A03F00703DAB27B69D8
:10393C001A70FB681B687969184603F033FC002386
:10394C0018461837BD4680BD80B584B000AF78608E
:10395C000B46FB70FB7803F007027B685B689A42AE
:10396C0001D901234CE097F90330002B0EDAFB78D8
:10397C0003F007035A1C13469B001344DB007A68C0
:10398C001344FB60FB6801225A700CE0FA78134672
:10399C009B001344DB0003F5B4737A681344FB609B
:1039AC00FB6800225A70FB6801229A70FB7803F0C6
:1039BC000703DAB2FB681A707B6893F8A832012B04
:1039CC0001D102231CE07B68012283F8A8227B68CA
:1039DC001B68F968184604F096FFFB7803F00703A0
:1039EC00002B08D17B681A687B6803F52C73194689
:1039FC00104605F0BBF87B68002283F8A822002350
:103A0C0018461037BD4680BD80B584B000AF7860D5
:103A1C000B46FB70FB7803F00F027B685B689A42E5
:103A2C0001D9012340E097F90330002B0EDAFB7823
:103A3C0003F007035A1C13469B001344DB007A68FF
:103A4C001344FB60FB6801225A700EE0FB7803F014
:103A5C00070213469B001344DB0003F5B4737A682A
:103A6C001344FB60FB6800225A70FB6800229A70BA
:103A7C00FB7803F00703DAB2FB681A707B6893F8E3
:103A8C00A832012B01D102230EE07B68012283F8BE
:103A9C00A8227B681B68F968184604F084FF7B68D1
:103AAC00002283F8A822002318461037BD4680BD9B
:103ABC0080B596B000AF7860BFE37B681B68B3F845
:103ACC004430A7F84E30B7F84E30DBB203F00F039A
:103ADC0087F84D3097F84D30002B40F07981B7F8CE
:103AEC004E3003F01003002B52D17B681B681B88EF
:103AFC009BB223F4E14323F07003FB817B681A68CB
:103B0C00FB896FEA43436FEA53439BB213807B6894
:103B1C0028337B657B681B68B3F850309BB21A4620
:103B2C007B6D1B78DB00134402335B007A681268F0
:103B3C00134403F580631B88C3F309027B6DDA61C0
:103B4C007B6D5A697B6DDB691A447B6D5A61002170
:103B5C00786806F07AFE7B6893F82430DBB2002B91
:103B6C0000F06B837B6D9B69002B40F066837B6858
:103B7C0093F82430DBB263F07F03DAB27B681B6806
:103B8C0092B2A3F84C207B68002283F8242054E3E3
:103B9C007B6803F5B4737B657B681B681B88A7F88F
:103BAC004A30B7F84A3003F40063002B34D07B68FA
:103BBC001B68B3F850309BB21A467B6D1B78DB0048
:103BCC00134406335B007A681268134403F5806370
:103BDC001B88C3F309027B6DDA617B6818687B680C
:103BEC0003F52C717B6DDA887B6DDB699BB205F07C
:103BFC000DF87B681B681B889AB240F68F731340D4
:103C0C003B827B681B683A8A42F0800292B21A802F
:103C1C00786806F0EDFD10E3B7F94A30002B80F21E
:103C2C000C837B681B681B889AB240F68F73134019
:103C3C00FB837B681B68FA8B42F0800292B21A807D
:103C4C007B681B68B3F850309BB21A467B6D1B78AF
:103C5C00DB00134406335B007A681268134403F5E7
:103C6C0080631B88C3F309027B6DDA617B6DDB69B2
:103C7C00002B19D07B6D5B69002B15D07B68186805
:103C8C007B6D59697B6DDA887B6DDB699BB204F0C7
:103C9C00BDFF7B6D5A697B6DDB691A447B6D5A6184
:103CAC000021786806F0B6FD7B681B681B88A7F8B6
:103CBC004A30B7F84A3003F40063002B40F0BD8261
:103CCC00B7F84A3003F44053B3F5405F00F0B582C7
:103CDC007B681B68BB617B681B68B3F850309BB278
:103CEC001A46BB691344BB61BB6903F20C437B618D
:103CFC007B691B889BB2C3F309039AB27B691A8058
:103D0C007B6D1B693E2B1DD97B6D1B695B097B642D
:103D1C007B6D1B6903F01F03002B02D17B6C013BF5
:103D2C007B647B691B889AB27B6C9BB29B029BB2B7
:103D3C0013439BB26FEA43436FEA53439AB27B69D6
:103D4C001A8026E07B6D1B69002B0AD17B691B88CE
:103D5C009BB26FEA43436FEA53439AB27B691A8072
:103D6C0017E07B6D1B695B087B647B6D1B6903F043
:103D7C000103002B02D07B6C01337B647B691B88B5
:103D8C009AB27B6C9BB29B029BB213439AB27B6937
:103D9C001A807B681B681B889BB223F4804323F03A
:103DAC0070037B827B8A83F480537B827B8A83F4CF
:103DBC0000537B827B681A687B8A43F07F4343F411
:103DCC007F0343F4004343F080039BB2138034E23F
:103DDC007B681B681A4697F84D309B0013441B8870
:103DEC00A7F84A30B7F94A30002B80F2FC807B6888
:103DFC001B681A4697F84D309B0013441B889AB2E7
:103E0C0040F68F731340A7F848307B681B681A463E
:103E1C0097F84D309B001344B7F8482042F08002CD
:103E2C0092B21A8097F84D2013469B001344DB0086
:103E3C0003F5B4737A6813447B657B6D1B7B002B95
:103E4C0025D17B681B68B3F850309BB21A467B6D4A
:103E5C001B78DB00134406335B007A68126813444A
:103E6C0003F580631B88C3F30903A7F85030B7F838
:103E7C005030002B00F092807B6818687B6D59697C
:103E8C007B6DDA88B7F8503004F0C0FE86E07B6DAD
:103E9C00DB78022B0AD1B7F84A301A46796D78686C
:103EAC0000F0D9F90346A7F8503077E07B681B681F
:103EBC001A467B6D1B789B0013441B889BB223F422
:103ECC00E04323F07003A7F852307B681B681A4656
:103EDC007B6D1B789B001A44B7F8523043F07F433C
:103EEC0043F47F0343F4004343F0C0039BB21380BD
:103EFC007B681B681A467B6D1B789B0013441B88E0
:103F0C009BB203F48043002B24D07B681B68B3F86E
:103F1C0050309BB21A467B6D1B78DB001344023386
:103F2C005B007A681268134403F580631B88C3F343
:103F3C000903A7F85030B7F85030002B2ED07B680F
:103F4C0018687B6D59697B6D1A89B7F8503004F08D
:103F5C005DFE23E07B681B68B3F850309BB21A46B9
:103F6C007B6D1B78DB00134406335B007A681268A8
:103F7C00134403F580631B88C3F30903A7F850307F
:103F8C00B7F85030002B09D07B6818687B6D5969E5
:103F9C007B6D5A89B7F8503004F038FE7B6DDA69C6
:103FAC00B7F850301A447B6DDA617B6D5A69B7F8FB
:103FBC0050301A447B6D5A617B6D9B69002B05D088
:103FCC00B7F850207B6D1B699A4206D27B6D1B782B
:103FDC001946786806F01EFC05E07B681B68796D55
:103FEC00184603F0DFF8B7F84A3003F08003002BD3
:103FFC0000F0238197F84D305A1C13469B00134454
:10400C00DB007A6813447B657B681B681A4697F85B
:10401C004D309B0013441B889BB223F4E14323F0E7
:10402C007003A7F842307B681B681A4697F84D302E
:10403C009B001A44B7F842306FEA43436FEA53438C
:10404C009BB213807B6DDB78012B40F0A2807B6DE3
:10405C0000229A617B6D1B7B002B00F09380B7F8DC
:10406C004A3003F04003002B46D07B6D5B78002B6D
:10407C0026D17B681B687B627B681B68B3F8503069
:10408C009BB21A467B6A13447B627B6D1B781A01C8
:10409C007B6A134403F204433B623B6A1B889BB26A
:1040AC00C3F309039AB23B6A1A803B6A1B889BB222
:1040BC006FEA43436FEA53439AB23B6A1A8061E05A
:1040CC007B6D5B78012B5DD17B681B68FB627B6829
:1040DC001B68B3F850309BB21A46FB6A1344FB6260
:1040EC007B6D1B781A01FB6A134403F20443BB6219
:1040FC00BB6A00221A8045E07B681B68FB637B6D02
:10410C005B78002B26D17B681B687B637B681B6804
:10411C00B3F850309BB21A467B6B13447B637B6DB8
:10412C001B781A017B6B134403F20C433B633B6B10
:10413C001B889BB2C3F309039AB23B6B1A803B6B8F
:10414C001B889BB26FEA43436FEA53439AB23B6BB3
:10415C001A8017E07B6D5B78012B13D17B681B6891
:10416C00B3F850309BB21A46FB6B1344FB637B6D68
:10417C001B781A01FB6B134403F20C43BB63BB6B40
:10418C0000221A807B6D1B781946786806F05DFB5F
:10419C0053E0B7F84A3003F48073002B46D17B68A8
:1041AC001B68B3F850309BB21A467B6D1B78DB0052
:1041BC00134402335B007A681268134403F580637E
:1041CC001B88C3F30903A7F840307B6D9A69B7F8D5
:1041DC0040309A4207D97B6D9A69B7F84030D21AB1
:1041EC007B6D9A6102E07B6D00229A617B6D9B690D
:1041FC00002B06D17B6D1B781946786806F025FBE1
:10420C001BE07B6D5A69B7F840301A447B6D5A61DC
:10421C007B6DDA69B7F840301A447B6DDA617B68E4
:10422C001B68796D184602F0BDFF06E0B7F84A30FE
:10423C001A46796D786800F01BF97B681B68B3F837
:10424C0044309BB21BB2002BFFF637AC0023184650
:10425C005837BD4680BD80B588B000AFF860B960F6
:10426C001346FB80FB8803F48043002B7ED0FB6855
:10427C001B68B3F850309BB21A46BB681B78DB0046
:10428C00134402335B00FA681268134403F580632D
:10429C001B88C3F309037B83BB689A697B8B9A42A7
:1042AC0006D3BB689A697B8BD21ABB689A6102E011
:1042BC00BB6800229A61BB689B69002B23D1FB6809
:1042CC001B681A46BB681B789B0013441B889BB267
:1042DC0023F4804323F070033B833B8B83F4005324
:1042EC003B83FB681B681A46BB681B789B001A440F
:1042FC003B8B43F07F4343F47F0343F4004343F091
:10430C0080039BB21380FB8803F04003002B1FD06B
:10431C00FB681B681A46BB681B789B0013441B8800
:10432C009BB223F4E04323F07003FB82FB681B6811
:10433C001A46BB681B789B001A44FB8A43F07F43E8
:10434C0043F47F0343F4004343F0C0039BB2138058
:10435C007B8B002B00F08780FB681868BB68596961
:10436C00BB681A897B8B04F051FC7CE0FB681B68F2
:10437C00B3F850309BB21A46BB681B78DB00134471
:10438C0006335B00FA681268134403F580631B88DC
:10439C00C3F309037B83BB689A697B8B9A4206D370
:1043AC00BB689A697B8BD21ABB689A6102E0BB68C6
:1043BC0000229A61BB689B69002B23D1FB681B68A8
:1043CC001A46BB681B789B0013441B889BB223F4D2
:1043DC00804323F07003FB83FB8B83F40053FB833C
:1043EC00FB681B681A46BB681B789B001A44FB8B46
:1043FC0043F07F4343F47F0343F4004343F08003D3
:10440C009BB21380FB8803F04003002B1FD1FB6889
:10441C001B681A46BB681B789B0013441B889BB215
:10442C0023F4E04323F07003BB83FB681B681A463C
:10443C00BB681B789B001A44BB8B43F07F4343F44F
:10444C007F0343F4004343F0C0039BB213807B8B88
:10445C00002B08D0FB681868BB685969BB685A897F
:10446C007B8B04F0D3FB7B8B18462037BD4680BD7D
:10447C0080B5A4B000AFF860B9601346FB80FB8830
:10448C0003F04003002B00F0DD81FB681B68B3F8E0
:10449C0050309BB21A46BB681B78DB0013440233C6
:1044AC005B00FA681268134403F580631B88C3F33E
:1044BC000903A7F88630BB689A69B7F886309A4228
:1044CC0007D9BB689A69B7F88630D21ABB689A616B
:1044DC0002E0BB6800229A61BB689B69002B40F02C
:1044EC00B980BB685B78002B26D1FB681B68FB622C
:1044FC00FB681B68B3F850309BB21A46FB6A134436
:10450C00FB62BB681B781A01FB6A134403F2044379
:10451C00BB62BB6A1B889BB2C3F309039AB2BB6A2A
:10452C001A80BB6A1B889BB26FEA43436FEA534302
:10453C009AB2BB6A1A801AE0BB685B78012B16D161
:10454C00FB681B687B63FB681B68B3F850309BB23D
:10455C001A467B6B13447B63BB681B781A017B6B1D
:10456C00134403F204433B633B6B00221A80FB6849
:10457C001B687B62BB685B78002B26D1FB681B68D1
:10458C00FB61FB681B68B3F850309BB21A46FB69A1
:10459C001344FB61BB681B781A01FB69134403F2DB
:1045AC000C43BB61BB691B889BB2C3F309039AB272
:1045BC00BB691A80BB691B889BB26FEA43436FEAE5
:1045CC0053439AB2BB691A8017E0BB685B78012B26
:1045DC0013D1FB681B68B3F850309BB21A467B6A48
:1045EC0013447B62BB681B781A017B6A134403F289
:1045FC000C433B623B6A00221A80BB681B7819464D
:10460C00F86806F022F9FB8803F48043002B00F0D5
:10461C00FC82FB681B681A46BB681B789B00134422
:10462C001B889BB223F4E04323F07003FB82FB68EE
:10463C001B681A46BB681B789B001A44FB8A43F024
:10464C007F4343F47F0343F4404343F080039BB226
:10465C001380DAE2FB8803F48043002B21D0FB6843
:10466C001B681A46BB681B789B0013441B889BB2C3
:10467C0023F4E04323F07003A7F88A30FB681B682F
:10468C001A46BB681B789B001A44B7F88A3043F073
:10469C007F4343F47F0343F4404343F080039BB2D6
:1046AC001380BB6893F82430012B40F0AE82BB68BA
:1046BC005A69B7F886301A44BB685A61BB68DA6924
:1046CC00B7F886301A44BB68DA61BB681A6ABB68F3
:1046DC001B699A420BD3BB681B69C7F88C30BB684B
:1046EC001A6AD7F88C30D21ABB681A6217E0BB680A
:1046FC001B6A002B08D1B7F88630C7F88C30BB6822
:10470C00002283F824200AE0BB68002283F82420CE
:10471C00BB681B6AC7F88C30BB6800221A62BB6886
:10472C005B78002B65D1FB681B68FB63FB681B681F
:10473C00B3F850309BB21A46FB6B1344FB63BB6857
:10474C001B781A01FB6B134403F20443BB63BB6B72
:10475C001B889BB2C3F309039AB2BB6B1A80D7F8C0
:10476C008C303E2B1DD9D7F88C305B09BB64D7F845
:10477C008C3003F01F03002B02D1BB6C013BBB64DC
:10478C00BB6B1B889AB2BB6C9BB29B029BB2134354
:10479C009BB26FEA43436FEA53439AB2BB6B1A80E6
:1047AC0044E0D7F88C30002B0AD1BB6B1B889BB232
:1047BC006FEA43436FEA53439AB2BB6B1A8035E0FE
:1047CC00D7F88C305B08BB64D7F88C3003F001034E
:1047DC00002B02D0BB6C0133BB64BB6B1B889AB241
:1047EC00BB6C9BB29B029BB213439AB2BB6B1A80FD
:1047FC001CE0BB685B78012B18D1FB681B687B64E1
:10480C00FB681B68B3F850309BB21A467B6C1344A0
:10481C007B64BB681B781A017B6C134403F2044362
:10482C003B64D7F88C309AB23B6C1A80FB681868E2
:10483C00BB685969BB681A89D7F88C309BB204F0F5
:10484C00A0F9E2E1FB681B68B3F850309BB21A4642
:10485C00BB681B78DB00134406335B00FA681268F4
:10486C00134403F580631B88C3F30903A7F8863050
:10487C00BB689A69B7F886309A4207D3BB689A69C5
:10488C00B7F88630D21ABB689A6102E0BB68002286
:10489C009A61BB689B69002B40F0C080BB685B7859
:1048AC00002B26D1FB681B68FB67FB681B68B3F801
:1048BC0050309BB21A46FB6F1344FB67BB681B78E6
:1048CC001A01FB6F134403F20443BB67BB6F1B88D5
:1048DC009BB2C3F309039AB2BB6F1A80BB6F1B88E0
:1048EC009BB26FEA43436FEA53439AB2BB6F1A8091
:1048FC001AE0BB685B78012B16D1FB681B687B66E2
:10490C00FB681B68B3F850309BB21A467B6E13449D
:10491C007B66BB681B781A017B6E134403F204435D
:10492C003B663B6E00221A80FB681B687B67BB688A
:10493C005B78002B2BD1FB681B68FB66FB681B6844
:10494C00B3F850309BB21A46FB6E1344FB66BB683F
:10495C001B781A01FB6E134403F20C43C7F880302A
:10496C00D7F880301B889BB2C3F309039AB2D7F8EF
:10497C0080301A80D7F880301B889BB26FEA434393
:10498C006FEA53439AB2D7F880301A8017E0BB68AD
:10499C005B78012B13D1FB681B68B3F850309BB2CA
:1049AC001A467B6F13447B67BB681B781A017B6FBD
:1049BC00134403F20C433B673B6F00221A80BB6825
:1049CC001B781946F86805F040FFFB8803F4804318
:1049DC00002B40F01A81FB681B681A46BB681B78D9
:1049EC009B0013441B889BB223F4E04323F0700319
:1049FC00A7F88830FB681B681A46BB681B789B00BD
:104A0C001A44B7F8883043F07F4343F47F0343F4F0
:104A1C00404343F080039BB21380F6E0FB8803F421
:104A2C008043002B21D1FB681B681A46BB681B789E
:104A3C009B0013441B889BB223F4E04323F07003C8
:104A4C00A7F84E30FB681B681A46BB681B789B00A6
:104A5C001A44B7F84E3043F07F4343F47F0343F4DA
:104A6C00404343F080039BB21380BB6893F824301F
:104A7C00012B40F0CA80BB685A69B7F886301A44DB
:104A8C00BB685A61BB68DA69B7F886301A44BB68F0
:104A9C00DA61BB681A6ABB681B699A420BD3BB68A4
:104AAC001B69C7F88C30BB681A6AD7F88C30D21ADD
:104ABC00BB681A6217E0BB681B6A002B08D1B7F8F9
:104ACC008630C7F88C30BB68002283F824200AE0BB
:104ADC00BB681B6AC7F88C30BB6800221A62BB68C3
:104AEC00002283F82420FB681B687B65BB685B781D
:104AFC00002B65D1FB681B68FB65FB681B68B3F872
:104B0C0050309BB21A46FB6D1344FB65BB681B7897
:104B1C001A01FB6D134403F20C43BB65BB6D1B8880
:104B2C009BB2C3F309039AB2BB6D1A80D7F88C30D1
:104B3C003E2B1DD9D7F88C305B09BB66D7F88C306F
:104B4C0003F01F03002B02D1BB6E013BBB66BB6D98
:104B5C001B889AB2BB6E9BB29B029BB213439BB257
:104B6C006FEA43436FEA53439AB2BB6D1A8041E03C
:104B7C00D7F88C30002B0AD1BB6D1B889BB26FEA27
:104B8C0043436FEA53439AB2BB6D1A8032E0D7F8B5
:104B9C008C305B08BB66D7F88C3003F00103002B1C
:104BAC0002D0BB6E0133BB66BB6D1B889AB2BB6E69
:104BBC009BB29B029BB213439AB2BB6D1A8019E055
:104BCC00BB685B78012B15D1FB681B68B3F85030C0
:104BDC009BB21A467B6D13447B65BB681B781A012C
:104BEC007B6D134403F20C433B65D7F88C309AB2BF
:104BFC003B6D1A80FB681868BB685969BB685A8999
:104C0C00D7F88C309BB203F0BCFFFB681B681A46CC
:104C1C00BB681B789B0013441B889BB223F4E043B6
:104C2C0023F04003BB82BB8A83F01003BB82BB8A98
:104C3C0083F02003BB82FB681B681A46BB681B7899
:104C4C009B001A44BB8A43F07F4343F47F0343F435
:104C5C00004343F080039BB2138000231846903727
:104C6C00BD4680BD80B487B000AFF8607B600B465A
:104C7C007B8113463B817B8903F080039BB2002B25
:104C8C000BD07B8903F007035A1C13469B0013447B
:104C9C00DB00FA6813447B6109E07A8913469B00B8
:104CAC001344DB0003F5B473FA6813447B613B894E
:104CBC00002B07D17B6900221A737B689AB27B693F
:104CCC00DA800BE07B6901221A737B689AB27B69EC
:104CDC001A817B681B0C9AB27B695A810023184697
:104CEC001C37BD4680BC704780B586B000AF78607D
:104CFC007B68002B01D1012372E27B681B6803F0F7
:104D0C000103002B00F08780924B5B6803F00C03CF
:104D1C00042B0CD08F4B5B6803F00C03082B12D1C7
:104D2C008C4B5B6803F48033B3F5803F0BD1894B1C
:104D3C001B6803F40033002B6CD07B685B68002B82
:104D4C0068D101234CE27B685B68B3F5803F06D1E8
:104D5C00804B1B687F4A43F4803313602EE07B68E2
:104D6C005B68002B0CD17B4B1B687A4A23F4803395
:104D7C001360784B1B68774A23F4802313601DE083
:104D8C007B685B68B3F5A02F0CD1724B1B68714A22
:104D9C0043F4802313606F4B1B686E4A43F48033DB
:104DAC0013600BE06B4B1B686A4A23F4803313606F
:104DBC00684B1B68674A23F4802313607B685B682D
:104DCC00002B13D0FDF794FA386108E0FDF790FA48
:104DDC0002463B69D31A642B01D9032300E25D4BD5
:104DEC001B6803F40033002BF0D014E0FDF780FABD
:104DFC00386108E0FDF77CFA02463B69D31A642B54
:104E0C0001D90323ECE1534B1B6803F40033002B53
:104E1C00F0D100E000BF7B681B6803F00203002B9D
:104E2C0063D04C4B5B6803F00C03002B0BD0494B4D
:104E3C005B6803F00C03082B1CD1464B5B6803F436
:104E4C008033002B16D1434B1B6803F00203002B5D
:104E5C0005D07B681B69012B01D00123C0E13D4BC0
:104E6C001B6823F0F8027B685B69DB00394913434C
:104E7C000B603AE07B681B69002B20D0364B01227B
:104E8C001A60FDF735FA386108E0FDF731FA024691
:104E9C003B69D31A022B01D90323A1E12D4B1B68CB
:104EAC0003F00203002BF0D02A4B1B6823F0F8020E
:104EBC007B685B69DB00274913430B6015E0264BCD
:104ECC0000221A60FDF714FA386108E0FDF710FAB9
:104EDC0002463B69D31A022B01D9032380E11D4BF7
:104EEC001B6803F00203002BF0D17B681B6803F0F6
:104EFC000803002B3AD07B689B69002B19D0174B09
:104F0C0001221A60FDF7F4F9386108E0FDF7F0F9B9
:104F1C0002463B69D31A022B01D9032360E10D4BE6
:104F2C005B6A03F00203002BF0D0012000F0BAFA08
:104F3C001CE00A4B00221A60FDF7DAF938610FE029
:104F4C00FDF7D6F902463B69D31A022B08D9032385
:104F5C0046E100BF00100240000042428004424281
:104F6C00924B5B6A03F00203002BE9D17B681B6850
:104F7C0003F00403002B00F0A6800023FB758B4B81
:104F8C00DB6903F08053002B0DD1884BDB69874A1A
:104F9C0043F08053D361854BDB6903F08053BB60D6
:104FAC00BB680123FB75824B1B6803F48073002BD9
:104FBC0018D17F4B1B687E4A43F480731360FDF756
:104FCC0097F9386108E0FDF793F902463B69D31A6B
:104FDC00642B01D9032303E1754B1B6803F4807325
:104FEC00002BF0D07B68DB68012B06D16F4B1B6A62
:104FFC006E4A43F0010313622DE07B68DB68002BE3
:10500C000CD16A4B1B6A694A23F001031362674B8C
:10501C001B6A664A23F0040313621CE07B68DB689E
:10502C00052B0CD1614B1B6A604A43F004031362DD
:10503C005E4B1B6A5D4A43F0010313620BE05B4B52
:10504C001B6A5A4A23F001031362584B1B6A574AD6
:10505C0023F0040313627B68DB68002B15D0FDF78B
:10506C0047F938610AE0FDF743F902463B69D31A68
:10507C0041F28832934201D90323B1E04B4B1B6AB6
:10508C0003F00203002BEED014E0FDF731F9386188
:10509C000AE0FDF72DF902463B69D31A41F288323A
:1050AC00934201D903239BE0404B1B6A03F002039C
:1050BC00002BEED1FB7D012B05D13C4BDB693B4A30
:1050CC0023F08053D3617B68DB69002B00F0878071
:1050DC00364B5B6803F00C03082B61D07B68DB69F3
:1050EC00022B46D1334B00221A60FDF701F93861CF
:1050FC0008E0FDF7FDF802463B69D31A022B01D9F3
:10510C0003236DE0294B1B6803F00073002BF0D1D7
:10511C007B681B6AB3F5803F08D1244B5B6823F492
:10512C0000327B689B68214913434B601F4B5B68C3
:10513C0023F474127B68196A7B685B6A0B431B4906
:10514C0013434B601B4B01221A60FDF7D1F83861F9
:10515C0008E0FDF7CDF802463B69D31A022B01D9C2
:10516C0003233DE0114B1B6803F00073002BF0D0C0
:10517C0035E0104B00221A60FDF7BAF8386108E0F0
:10518C00FDF7B6F802463B69D31A022B01D903236B
:10519C0026E0064B1B6803F00073002BF0D11EE0D9
:1051AC007B68DB69012B07D1012319E00010024059
:1051BC0000700040600042420B4B5B68FB60FB6878
:1051CC0003F480327B681B6A9A4206D1FB6803F4B5
:1051DC0070127B685B6A9A4201D0012300E00023C5
:1051EC0018461837BD4680BD0010024080B584B00B
:1051FC0000AF786039607B68002B01D10123D0E0CF
:10520C006A4B1B6803F007033A689A4210D9674B44
:10521C001B6823F0070265493B6813430B60634B23
:10522C001B6803F007033A689A4201D00123B8E0E7
:10523C007B681B6803F00203002B20D07B681B6883
:10524C0003F00403002B05D0594B5B68584A43F418
:10525C00E06353607B681B6803F00803002B05D0E8
:10526C00534B5B68524A43F460535360504B5B683A
:10527C0023F0F0027B689B684D4913434B607B68BD
:10528C001B6803F00103002B40D07B685B68012B8B
:10529C0007D1474B1B6803F40033002B15D10123B6
:1052AC007FE07B685B68022B07D1414B1B6803F0E6
:1052BC000073002B09D1012373E03D4B1B6803F0F5
:1052CC000203002B01D101236BE0394B5B6823F007
:1052DC0003027B685B68364913434B60FDF708F8A3
:1052EC00F8600AE0FDF704F80246FB68D31A41F2B5
:1052FC008832934201D9032353E02D4B5B6803F0B2
:10530C000C027B685B689B009A42EBD1274B1B68B5
:10531C0003F007033A689A4210D2244B1B6823F01F
:10532C00070222493B6813430B60204B1B6803F0B8
:10533C0007033A689A4201D0012332E07B681B686C
:10534C0003F00403002B08D0194B5B6823F4E062D4
:10535C007B68DB68164913434B607B681B6803F062
:10536C000803002B09D0124B5B6823F460527B6856
:10537C001B69DB000E4913434B6000F021F8024619
:10538C000B4B5B681B0903F00F030A49CB5C22FA39
:10539C0003F3094A1360094B1B681846FCF766FFB8
:1053AC00002318461037BD4680BD00BF00200240C8
:1053BC00001002405CBF0008080000200C00002018
:1053CC0080B487B000AF0023FB600023BB600023D8
:1053DC007B6100237B6000233B611E4B5B68FB60A1
:1053EC00FB6803F00C03042B02D0082B03D027E03E
:1053FC00194B3B6127E0FB689B0C03F00F03174A2A
:10540C00D35C7B60FB6803F48033002B10D0114B12
:10541C005B685B0C03F00103114AD35CBB607B68D7
:10542C000D4A03FB02F2BB68B2FBF3F37B6104E0B1
:10543C007B680C4A02FB03F37B617B693B6102E0F6
:10544C00054B3B6100BF3B6918461C37BD4680BC11
:10545C00704700BF0010024000127A0074BF0008B1
:10546C0084BF000800093D0080B400AF024B1B68EC
:10547C001846BD4680BC70470800002080B500AFC0
:10548C00FFF7F2FF0246054B5B681B0A03F00703AC
:10549C000349CB5C22FA03F3184680BD001002408E
:1054AC006CBF000880B485B000AF78600A4B1B68F5
:1054BC000A4AA2FB03235B0A7A6802FB03F3FB6034
:1054CC0000BFFB685A1EFA60002BF9D100BF00BF69
:1054DC001437BD4680BC704708000020D34D6210C5
:1054EC0080B586B000AF786000233B610023FB6081
:1054FC007B681B6803F00103002B7DD00023FB7538
:10550C004F4BDB6903F08053002B0DD14C4BDB6907
:10551C004B4A43F08053D361494BDB6903F0805312
:10552C00BB60BB680123FB75464B1B6803F480739F
:10553C00002B18D1434B1B68424A43F48073136011
:10554C00FCF7D6FE386108E0FCF7D2FE02463B6958
:10555C00D31A642B01D903236DE03A4B1B6803F477
:10556C008073002BF0D0364B1B6A03F44073FB6046
:10557C00FB68002B2ED07B685B6803F44073FA68E1
:10558C009A4227D02E4B1B6A23F44073FB602E4BA0
:10559C0001221A602C4B00221A60294AFB68136204
:1055AC00FB6803F00103002B14D0FCF7A1FE38615B
:1055BC000AE0FCF79DFE02463B69D31A41F28832A1
:1055CC00934201D9032336E01D4B1B6A03F00203FF
:1055DC00002BEED01A4B1B6A23F440727B685B687D
:1055EC00174913430B62FB7D012B05D1144BDB696F
:1055FC00134A23F08053D3617B681B6803F00203CA
:10560C00002B08D00E4B5B6823F440427B689B68F0
:10561C000B4913434B607B681B6803F01003002B92
:10562C0008D0074B5B6823F480027B68DB68044975
:10563C0013434B60002318461837BD4680BD00BF8E
:10564C0000100240007000404004424280B582B01D
:10565C0000AF78607B68002B01D1012341E07B68AF
:10566C0093F83D30DBB2002B06D17B68002283F827
:10567C003C207868FCF736FD7B68022283F83D20DD
:10568C007B681A687B6804331946104600F05EFC90
:10569C007B68012283F846207B68012283F83E2038
:1056AC007B68012283F83F207B68012283F840202D
:1056BC007B68012283F841207B68012283F8422019
:1056CC007B68012283F843207B68012283F8442005
:1056DC007B68012283F845207B68012283F83D20FA
:1056EC00002318460837BD4680BD000080B485B045
:1056FC0000AF78607B6893F83D30DBB2012B01D0B2
:10570C0001233AE07B68022283F83D207B681B680A
:10571C00DA687B681B6842F00102DA607B681B6800
:10572C00184A93420ED07B681B68B3F1804F09D0A6
:10573C007B681B68144A934204D07B681B68134A2D
:10574C00934211D17B681B689B6803F00703FB60D5
:10575C00FB68062B10D07B681B681A687B681B687B
:10576C0042F001021A6007E07B681B681A687B68CC
:10577C001B6842F001021A60002318461437BD461C
:10578C0080BC7047002C0140000400400008004021
:10579C0080B483B000AF78607B681B68DA687B6884
:1057AC001B6822F00102DA607B681B681A6A41F2FE
:1057BC0011131340002B0FD17B681B681A6A40F23F
:1057CC0044431340002B07D17B681B681A687B6825
:1057DC001B6822F001021A607B68012283F83D20CD
:1057EC00002318460C37BD4680BC704780B582B08C
:1057FC0000AF78607B68002B01D1012341E07B680E
:10580C0093F83D30DBB2002B06D17B68002283F885
:10581C003C20786800F039F87B68022283F83D2040
:10582C007B681A687B6804331946104600F08EFBBF
:10583C007B68012283F846207B68012283F83E2096
:10584C007B68012283F83F207B68012283F840208B
:10585C007B68012283F841207B68012283F8422077
:10586C007B68012283F843207B68012283F8442063
:10587C007B68012283F845207B68012283F83D2058
:10588C00002318460837BD4680BD80B483B000AFF6
:10589C00786000BF0C37BD4680BC704780B584B0C3
:1058AC0000AF786039603B68002B09D17B6893F8B6
:1058BC003E30DBB2012B14BF01230023DBB222E00C
:1058CC003B68042B09D17B6893F83F30DBB2012B8A
:1058DC0014BF01230023DBB215E03B68082B09D170
:1058EC007B6893F84030DBB2012B14BF01230023FB
:1058FC00DBB208E07B6893F84130DBB2012B14BFBC
:10590C0001230023DBB2002B01D001235EE03B68B6
:10591C00002B04D17B68022283F83E2013E03B6805
:10592C00042B04D17B68022283F83F200BE03B68F8
:10593C00082B04D17B68022283F8402003E07B68AB
:10594C00022283F841207B681B68012239681846C3
:10595C0000F07CFD7B681B681E4A934207D17B6874
:10596C001B685A6C7B681B6842F400425A647B6863
:10597C001B68184A93420ED07B681B68B3F1804FAA
:10598C0009D07B681B68144A934204D07B681B685F
:10599C00124A934211D17B681B689B6803F0070382
:1059AC00FB60FB68062B10D07B681B681A687B6851
:1059BC001B6842F001021A6007E07B681B681A68DA
:1059CC007B681B6842F001021A60002318461037EE
:1059DC00BD4680BD002C0140000400400008004082
:1059EC0080B582B000AF78607B681B681B6903F0E0
:1059FC000203022B22D17B681B68DB6803F00203D5
:105A0C00022B1BD17B681B686FF002021A617B684A
:105A1C0001221A777B681B689B6903F00303002B38
:105A2C0003D0786800F076FA05E0786800F069FA3F
:105A3C00786800F078FA7B6800221A777B681B681C
:105A4C001B6903F00403042B22D17B681B68DB6801
:105A5C0003F00403042B1BD17B681B686FF004025A
:105A6C001A617B6802221A777B681B689B6903F4B6
:105A7C004073002B03D0786800F04CFA05E078688E
:105A8C0000F03FFA786800F04EFA7B6800221A7733
:105A9C007B681B681B6903F00803082B22D17B6809
:105AAC001B68DB6803F00803082B1BD17B681B68A1
:105ABC006FF008021A617B6804221A777B681B68F6
:105ACC00DB6903F00303002B03D0786800F022FAA3
