:020000040800F2
:1000000000500020F9040008D5040008D7040008B7
:10001000D9040008DB040008DD040008000000002B
:10002000000000000000000000000000DF040008E5
:10003000E104000800000000E3040008E5040008F3
:100040004105000841050008410500084105000878
:100050004105000841050008410500084105000868
:100060004105000841050008410500084105000858
:100070004105000841050008410500084105000848
:100080004105000841050008410500084105000838
:100090004105000841050008410500084105000828
:1000A0004105000841050008410500084105000818
:1000B000E904000841050008410500084105000861
:1000C00041050008410500084105000841050008F8
:1000D00041050008410500084105000841050008E8
:1000E0004105000841050008410500080000000026
:1000F0000000000000000000000000000000000000
:0C01000000000000000000005FF808F1A3
:10010C0010B5054C237833B9044B13B10448AFF345
:10011C0000800123237010BD0C00002000000000A3
:10012C00D012000808B5034B1BB103490348AFF3C9
:10013C00008008BD0000000010000020D012000854
:10014C0010B590B01422002108A801F08FF81422E9
:10015C00002101A801F08AF802244FF48033012217
:10016C00CDE90D43CDE906234FF4E01306A80A921E
:10017C000F9300F02FFC08B172B6FEE70F23CDE908
:10018C0001344FF480630390CDE90430214601A87B
:10019C0000F0E2FD08B172B6FEE710B010BD000031
:1001AC0070B58AB000F0ECF9FFF7CAFF10220021FD
:1001BC0006A801F05BF8764B4FF400519A6975482C
:1001CC0042F010029A619A69002402F01002009227
:1001DC00009A9A69012642F020029A619A690225D6
:1001EC0002F020020192019A9A6942F004029A618B
:1001FC009A6902F004020292029A9A6942F0080289
:10020C009A619B69002203F008030393039B00F09F
:10021C002BFB00223F21604800F026FB00224FF40C
:10022C0080715E4800F020FB4FF40053594806A93A
:10023C00CDE90636CDE9084500F03CFA3F23564897
:10024C0006A9CDE90636CDE9084500F033FA4FF49E
:10025C008073524806A9CDE90636CDE9084500F071
:10026C0029FA4F484F49504BC0E90244C0E90013EA
:10027C004FF48043C0E90644C0E90434046200F042
:10028C0001FB044608B172B6FEE70146102206A82F
:10029C0000F0ECFF454D464B2846C5E900344FF6BF
:1002AC00FF73CDE90444C5E90334C5E90544AC60EA
:1002BC0000F0DCFE08B172B6FEE74FF4805628461B
:1002CC0006A9069600F008FF08B172B6FEE7CDE964
:1002DC00040004A9284600F099FF054608B172B63F
:1002EC00FEE71022014606A800F0C0FF47234FF09E
:1002FC008042304CCDE90455C4E900234FF47A73A5
:10030C002046C4E90335A560A56100F0AFFE08B135
:10031C0072B6FEE7204606A9069600F0DDFE08B18F
:10032C0072B6FEE7CDE9040004A9204600F06EFF8A
:10033C0008B172B6FEE7204D174C164E2B68092BF0
:10034C0016DC01332B60642000F03EF920460421BA
:10035C0000F08FFA2046022100F08BFA2046012192
:10036C0000F087FA4FF40051304600F082FAE5E7CE
:10037C000023204620212B6000F07BFA2046102120
:10038C0000F077FA0821204600F073FADBE700BF93
:10039C00001002400010014000080140000C014018
:1003AC002C00002000540040A0860100800000209A
:1003BC00002C0140C80000202800002070470000DD
:1003CC000E4B82B09A6942F001029A619A6902F06E
:1003DC0001020092009ADA6942F08052DA61DB691C
:1003EC00074A03F080530193019B536823F0E063A9
:1003FC0043F00073536002B0704700BF001002401E
:10040C000000014010B5044686B01022002102A85D
:10041C0000F02CFF2268114B9A421CD1104CC022C8
:10042C00A369104843F00803A361A36902A903F070
:10043C0008030093009B1223CDE9022303230593A9
:10044C0000F038F9E36943F40013E361E36903F462
:10045C0000130193019B06B010BD00BF0054004077
:10046C0000100240000C014007B50368144A934287
:10047C000CD1144B9A6942F400629A619B6903F4A3
:10048C0000630093009B03B05DF804FBB3F1804F55
:10049C00F9D103F50433DA691C2042F00102DA6168
:1004AC000022DB69114603F001030193019B00F06C
:1004BC00AFF81C2003B05DF804EB00F0D9B800BF16
:1004CC00002C014000100240FEE7FEE7FEE7FEE7CD
:1004DC00FEE770477047704700F064B8014800F0C1
:1004EC00EBBC00BFC800002070470000FFF7FCFF0A
:1004FC000B480C490C4A002302E0D458C450043376
:10050C00C4188C42F9D3094A094C002301E013604A
:10051C000432A242FBD300F0B1FEFFF741FE70475C
:10052C00000000200C0000201C1300080C00002010
:10053C0014010020FEE7000038B50E4B05461A7872
:10054C004FF47A73B3FBF2F30B4A1068B0FBF3F081
:10055C0000F09CF8044658B90F2D09D802462946DC
:10056C004FF0FF3000F054F82046044B1D6038BDAE
:10057C000120FCE7040000200000002008000020FF
:10058C00074A08B51368032043F01003136000F00A
:10059C002DF80F20FFF7D0FFFFF712FF002008BD4A
:1005AC0000200240034A044B11681B780B44136073
:1005BC00704700BF1001002004000020014B186898
:1005CC00704700BF1001002038B50446FFF7F6FF56
:1005DC000546631C1EBF044B1B78E418FFF7EEFFA7
:1005EC00431BA342FAD338BD040000200749030281
:1005FC00CA6803F4E06322F4E0621204120C1343A1
:10060C0043F0BF6343F40033CB60704700ED00E070
:10061C00154B30B5DC68C4F30224C4F10703251D67
:10062C00042B28BF0423062D4FF0FF3594BF002464
:10063C00033C05FA03F321EA0303A54022EA050271
:10064C00A340002843EA0203ACBF00F16040074A14
:10065C004FEA0313DBB2ABBF00F5614000F00F00B3
:10066C0080F80033135430BD00ED00E014ED00E0D1
:10067C00002807DB01234109034A00F01F008340D7
:10068C0042F82130704700BF00E100E00138B0F1C2
:10069C00807F0BD24FF0E023F021054A586182F89D
:1006AC0023100020072298611A61704701207047BF
:1006BC0000ED00E02DE9F74F00221646644F654B24
:1006CC00DFF894C1DFF894E10D6835FA06F402D135
:1006DC0003B0BDE8F08F4FF0010808FA06F805EA00
:1006EC00080438EA05057AD14D68032D07D8013D79
:1006FC00022D00F28780DFE805F0959AA000122DFC
:10070C0000F098806DD8112D00F08E80FF2C98BFD2
:10071C0082464FF00F0988BF00F1040A4FEA8605A4
:10072C00DAF8008088BF203D09FA05FB28EA0B089F
:10073C0002FA05F548EA0505CAF80050D1F804A0FC
:10074C001AF0805F4BD0BD6926F0030845F0010517
:10075C00BD61BD6908F1804805F00105019508F5FA
:10076C00803806F0030B019D4FEA8B0BD8F808502C
:10077C0009FA0BF925EA0909394DA84261D005F5AA
:10078C008065A8425FD005F58065A8425DD005F56F
:10079C008065A8420CBF0325042505FA0BF545EA34
:1007AC000905C8F808509D681AF4801F14BF25432A
:1007BC00A5439D60DD681AF4001F14BF2543A543B3
:1007CC00DD605D681AF4003F14BF2543A5435D60EE
:1007DC001D681AF4803F14BF2543A5431D600136E4
:1007EC0072E7DFF880904D450CD017D8A9F5801929
:1007FC004D4507D009F570294D4503D0A9F5801951
:10080C004D4583D18A68D2B1012A08BFC0F8108047
:10081C004FF0080218BFC0F8148077E76545F1D097
:10082C007545EEE7CA6871E7CA6804326EE7CA68B4
:10083C0008326BE7CA680C3268E7002266E70422CC
:10084C0064E70025A9E70125A7E70225A5E700BF76
:10085C000010024000040140000031100000321072
:10086C0000080140000022100AB101617047090420
:10087C00FBE7C36801EA030221EA030141EA0241F2
:10088C000161704770B5044608B9012070BD90F83D
:10089C003D3003F0FF021BB980F83C20FFF7B2FD9E
:1008AC00242384F83D3023681A6822F001021A6070
:1008BC001A6842F400421A601A6822F400421A6064
:1008CC0000F0E6FA3F4B65689D4294BF3E4B3F4BB0
:1008DC0098428CBF00230123002BD6D1394E3C4BC0
:1008EC00B542B0FBF3F388BF4FF49676226851689B
:1008FC0021F03F0141EA030182BF73434FF47A7642
:10090C00B3FBF6F35160116A013321F03F010B4345
:10091C001362D169431E2B4821F44F41854221F0CB
:10092C00FF0132D86D00B3FBF5F340F6FC700133D8
:10093C00034242D0C3F30B031943D1611168D4E9CC
:10094C00073021F0C00103430B4313609168D4E9D5
:10095C00030321F40341034321F0FF010B43936094
:10096C00D168D4E9053021F0FF0103430B43D36078
:10097C001368002043F0010313602023206484F8E3
:10098C003D30206384F83E0080E7A06850B905EB49
:10099C004505B3FBF5F30133C3F30B037BB143F410
:1009AC000043C9E719206843B3FBF0F30133C3F3E9
:1009BC000B0323B143F44043BEE70423BCE70123FC
:1009CC00BAE700BFA08601007F841E00FF083D002F
:1009DC0040420F002DE9F341054638B30368DB07AD
:1009EC0010D42B689F075ED42B68190700F19580F3
:1009FC002B685A0700F1C180E869002840F02C816F
:100A0C00002029E0904C636803F00C03042B07D002
:100A1C00636803F00C03082B0AD16368DE0307D567
:100A2C0023689C03DDD56B68002BDAD1012013E021
:100A3C006B68B3F5803F12D1236843F48033236095
:100A4C00FFF7BCFD064623689803CAD4FFF7B6FD32
:100A5C00801B6428F7D9032002B0BDE8F0819BB954
:100A6C00236823F480332360236823F480232360DA
:100A7C00FFF7A4FD064623689903B2D5FFF79EFD48
:100A8C00801B6428F7D9E6E7B3F5A02F236803D1C0
:100A9C0043F480232360CFE723F48033236023685F
:100AAC0023F48023CBE7684C636813F00C0F07D05A
:100ABC00636803F00C03082B10D16368DA030DD4C0
:100ACC0023689B0702D52B69012BAFD123686A6978
:100ADC0023F0F80343EAC203236085E72A695B4BE2
:100AEC006AB101221A60FFF769FD064623689F0769
:100AFC00ECD4FFF763FD801B0228F7D9ABE71A6033
:100B0C00FFF75CFD0646236898077FF56DAFFFF78E
:100B1C0055FD801B0228F6D99DE7AA694A4E4B4B1E
:100B2C00E2B10122C3F88024FFF748FD0446736A42
:100B3C009B070DD54FF4FA52454B1B68B3FBF2F3F0
:100B4C00019300BF019B5A1E0192002BF9D14FE774
:100B5C00FFF734FD001B0228E9D97CE7C3F8802499
:100B6C00FFF72CFD0446736A9F077FF541AFFFF733
:100B7C0025FD001B0228F6D96DE7334CE369D8003C
:100B8C0024D40127E36943F08053E361E36903F064
:100B9C0080530093009B2F4E3368D90518D5EB6812
:100BAC00012B26D1236A43F001032362FFF706FDD4
:100BBC0041F288380646236A9B073FD5002F3FF445
:100BCC001BAFE36923F08053E36115E70027E2E7ED
:100BDC00336843F480733360FFF7F0FC804633686E
:100BEC00DA05DCD4FFF7EAFCA0EB08006428F6D9A0
:100BFC0031E7ABB9236A41F2883823F00103236251
:100C0C00236A23F004032362FFF7D8FC0646236A09
:100C1C009807D3D5FFF7D2FC801B4045F7D91AE7CC
:100C2C00052B236A03D143F004032362BAE723F0B4
:100C3C0001032362236A23F00403B6E7FFF7BEFC2B
:100C4C00801B4045B7D906E7001002400000424225
:100C5C0000000020007000402A4C636803F00C0375
:100C6C00082B3ED00022284B02281A662CD1FFF705
:100C7C00A5FC06462368990120D42B6AB3F5803F66
:100C8C0005D16268A96822F400320A436260696A7D
:100C9C0062680B4322F474121343012263601A4BF3
:100CAC001A66FFF78BFC054623689A013FF5A8AE40
:100CBC00FFF784FC401B0228F6D9CCE6FFF77EFC3C
:100CCC00801B0228D6D9C6E6FFF778FC05462368B8
:100CDC009B017FF595AEFFF771FC401B0228F6D9FE
:100CEC00B9E601283FF4B8AE63682A6A03F4803190
:100CFC0091427FF49BAE6A6A03F4701393423FF403
:100D0C007FAE93E600100240000042420D4A536849
:100D1C0003F00C01082912D10B48C3F38341DB0308
:100D2C00405C09D55368094AC3F340435043084A11
:100D3C00D35CB0FBF3F07047064B58437047034845
:100D4C00704700BF001002400013000800127A0028
:100D5C001013000800093D002DE9F0410D46044632
:100D6C0010B90120BDE8F081444A136803F0070371
:100D7C008B4228D321688E0730D4CA0743D43F4A0C
:100D8C00136803F00703AB4265D822683C4D12F0A0
:100D9C00040F6CD1130706D56B68226923F46053DA
:100DAC0043EAC2036B60FFF7B1FF6B68354AC3F3CC
:100DBC000313D35CD840344B1860344B1868FFF7DE
:100DCC00BBFB0020CEE7136823F007030B43136033
:100DDC00136803F007038B42C3D1CBE7284B11F008
:100DEC00040F1EBF5A6842F4E0625A60080742BF03
:100DFC005A6842F460525A605A68A06822F0F002B5
:100E0C0002435A60B9E762681D4E012A33681AD151
:100E1C0013F4003FA5D0736841F2883823F0030324
:100E2C0013437360FFF7CAFB07467368626803F0ED
:100E3C000C03B3EB820FA2D0FFF7C0FBC01B4045E5
:100E4C00F3D903208EE7022A02D113F0007FE1E7E9
:100E5C0013F0020FDEE7136823F007032B43136034
:100E6C00136803F00703AB427FF47BAF8DE76B682D
:100E7C00E16823F4E0630B436B608BE700200240D6
:100E8C0000100240E81200080000002008000020BA
:100E9C00044B054A5B68C3F30223D35C034A106816
:100EAC00D840704700100240F812000800000020E3
:100EBC007047704770477047036810B51A6904464D
:100ECC0091070ED5DA6892070BD56FF002021A6102
:100EDC00012202779B699B0777D0FFF7EAFF00237B
:100EEC00237723681A69500710D5DA6851070DD596
:100EFC006FF004021A61022222779B69204613F4D8
:100F0C00407F68D0FFF7D5FF0023237723681A6949
:100F1C0012070FD5DA6810070CD56FF008021A61AA
:100F2C0004222277DB69204699075AD0FFF7C1FFCC
:100F3C000023237723681A69D20610D5DA68D00605
:100F4C000DD56FF010021A6108222277DB6920465A
:100F5C0013F4407F4BD0FFF7ACFF002323772368BB
:100F6C001A69D10708D5DA68D20705D56FF00102E6
:100F7C0020461A61FFF722FA23681A69100608D571
:100F8C00DA68110605D56FF0800220461A6100F070
:100F9C006CF923681A69520608D5DA68500605D52B
:100FAC006FF0400220461A61FFF785FF23681A692B
:100FBC00910622D5DA6892061FD56FF020022046E2
:100FCC00BDE810401A6100F04FB9FFF771FF2046E1
:100FDC00FFF770FF83E7FFF76BFF2046FFF76AFF11
:100FEC0092E7FFF765FF2046FFF764FFA0E7FFF7E6
:100FFC005FFF2046FFF75EFFAFE710BD1A4A03689C
:10100C0090420AD0B0F1804F07D0A2F594329042B2
:10101C0003D002F58062904215D14A6823F0700328
:10102C001343114A90420AD0B0F1804F07D0A2F579
:10103C009432904203D002F58062904203D1CA6888
:10104C0023F4407313434A6923F080031343036072
:10105C008B68C3620B688362034B984204BF0B69B5
:10106C000363012343617047002C014010B5044613
:10107C0030B390F83D3003F0FF021BB980F83C20F0
:10108C00FFF7F2F90223206884F83D30211DFFF7A9
:10109C00B5FF0123002084F8463084F83E3084F8F4
:1010AC003F3084F8403084F8413084F8423084F882
:1010BC00433084F8443084F8453084F83D3010BD1A
:1010CC000120FCE710B584680A4324F47F4442EA0B
:1010DC0003222243826010BD38B590F83C300446A0
:1010EC00012B4FF0020000F08E80012284F83D00AD
:1010FC00206884F83C20836823F47F4323F0770333
:10110C0083600B68602B4FD032D8402B64D016D83C
:10111C00202B0DD00AD833F0100109D0012384F80C
:10112C003D30002384F83C30104638BD302BF5D1CF
:10113C00826822F07002134343F0070328E0502B1F
:10114C00ECD14A68CD68016A036A21F00A0123F0E8
:10115C000103036283690A4323F0F00343EA051396
:10116C0083610262836823F0700343F057030FE03E
:10117C00B3F5805F0DD0B3F5005F0CD0702BCDD1E3
:10118C00CB68D1E90121FFF79DFF836843F077031A
:10119C0083600022C2E7CB68D1E90121FFF792FFFF
:1011AC00836843F48043F3E7036A026A4D6822F0D4
:1011BC001002C9680262826923F0A00322F4704213
:1011CC0043EA051342EA013282610362836823F029
:1011DC00700343F06703DBE74A68CD68016A036A72
:1011EC0021F00A0123F00103036283690A4323F00F
:1011FC00F00343EA051383610262836823F07003F2
:10120C0043F04703C4E702468EE7000030B590F880
:10121C003C300246012B4FF0020022D0136882F8BA
:10122C003D005C680D6824F070042C4398685C6089
:10123C000C4CA3420AD0B3F1804F07D0A4F59434E0
:10124C00A34203D004F58064A34204D1496820F082
:10125C008000014399600123002082F83D3082F820
:10126C003C0030BD002C01407047704703460244DF
:10127C00934200D1704703F8011BF9E770B50026C3
:10128C000C4D0D4C641BA410A64209D100F01AF8A9
:10129C0000260A4D0A4C641BA410A64205D170BD51
:1012AC0055F8043B98470136EEE755F8043B984750
:1012BC000136F2E714130008141300081413000885
:1012CC0018130008F8B500BFF8BC08BC9E46704760
:0C12DC00F8B500BFF8BC08BC9E46704787
:1012E80000000000000000000102030406070809CE
:1012F80000000000010203040203040506070809B0
:0C1308000A0B0C0D0E0F1010010200006B
:04131400310100089B
:041318000D010008BB
:0C131C000024F40001000000100000009C
:04000005080004F9F2
:00000001FF
