:020000040800F2
:1000000000500020BD140008C9110008CB110008E1
:10001000CD110008CF110008D11100080000000028
:10002000000000000000000000000000D3110008E4
:10003000D511000800000000D7110008D9110008F0
:100040000515000805150008051500080515000828
:100050000515000805150008051500080515000818
:100060000515000805150008051500080515000808
:1000700005150008051500080515000805150008F8
:1000800005150008051500080515000805150008E8
:10009000DD11000805150008051500080515000804
:1000A00005150008051500080515000805150008C8
:1000B000E9110008F51100080515000805150008EC
:1000C00005150008051500080515000805150008A8
:1000D0000515000805150008051500080515000898
:1000E00001120008051500080515000800000000B1
:1000F0000000000000000000000000000000000000
:0C01000000000000000000005FF808F1A3
:10010C0010B5054C237833B9044B13B10448AFF345
:10011C0000800123237010BDD401002000000000DA
:10012C008C5A000808B5034B1BB103490348AFF3C5
:10013C00008008BD00000000D80100208C5A000887
:10014C0010F8012B11F8013B012A28BF9A42F7D075
:10015C00D01A7047034613F8012B002AFBD1181A4A
:10016C000138704710222DE9F04389B00DEB0200E5
:10017C00002104F0EBFF384BDFF8E0909A69DFF8D0
:10018C00E08042F010029A619A69364D02F010023A
:10019C000092009A9A69484642F020029A619A6944
:1001AC004FF4005102F020020192019A9A69002446
:1001BC0042F004029A619A69012702F00402029249
:1001CC00029A9A69022642F008029A619B690022FF
:1001DC0003F008030393039B01F028FB4046002225
:1001EC00BF2101F023FB002228464FF49C7101F043
:1001FC001DFB4FF40053484604A9CDE90437CDE963
:10020C00064601F039FABF23404604A9CDE904376C
:10021C00CDE9064601F030FA4FF47042124B2846F5
:10022C0004A9CDE90423069401F026FA4FF49C733B
:10023C00284604A9CDE90437CDE9064601F01CFA9D
:10024C0022462146282001F0C5F9282001F0F2F9B8
:10025C0009B0BDE8F08300BF00100240001001405F
:10026C0000080140000C01400000111008B50B48BB
:10027C000B4A0C4BC0E9002300234FF48042C0E929
:10028C000233C0E90423C0E90633036201F0D8FB52
:10029C0018B1BDE8084000F06DBF08BDF0010020AA
:1002AC0000540040A086010010B5044686B0102210
:1002BC00002102A804F04AFF2268114B9A421CD17B
:1002CC00104CC022A369104843F00803A361A36932
:1002DC0002A903F008030093009B1223CDE902232B
:1002EC000323059301F0C8F9E36943F40013E361B8
:1002FC00E36903F400130193019B06B010BD00BF2A
:10030C000054004000100240000C01401FB500F0EA
:10031C00F003000143F00C02C0B243F008038DF867
:10032C000D3040F00C038DF80E30642340F00800C3
:10033C008DF80C208DF80F0000934E21042303AA96
:10034C00024801F025FC05B05DF804FBF00100202B
:10035C001FB500F0F003000143F00D02C0B243F0F2
:10036C0009038DF80D3040F00D038DF80E30642329
:10037C0040F009008DF80C208DF80F0000934E21F1
:10038C00042303AA024801F003FC05B05DF804FB4A
:10039C00F001002008B53C2001F0F8F80220FFF72E
:1003AC00B5FF2820FFF7B2FF0C20FFF7AFFF80202E
:1003BC00FFF7ACFFBDE808400120FFF7A7BF08B569
:1003CC000120FFF7A3FFBDE80840022001F0DEB8D2
:1003DC0000230138032898BF054B01F1FF3198BF6A
:1003EC001B5C581860F07F00C0B2FFF78FBF00BFD6
:1003FC00A45A000810B5441E14F8010F00B910BD22
:10040C00FFF7A6FFF8E70F20FFF780BF30B595B0D8
:10041C00142200210CA804F099FE142210250021AE
:10042C000DEB020004F092FE2A46002101A804F014
:10043C008DFE02244FF480330122CDE91143CDE926
:10044C000A234FF4E0130AA80E92139302F00AFB4E
:10045C0008B172B6FEE70F23CDE905344FF4806383
:10046C000790CDE90830214605A802F0BDFC08B183
:10047C0072B6FEE7049001A8019502F061FD08B187
:10048C0072B6FEE715B030BD2DE9F04180460F463F
:10049C003F4816464FF48071002201F0C7F93D4BDE
:1004AC0003221C464FF0320C4FF47A7501209969E7
:1004BC00013A0CFB01F195FBF1F1C3E90A1003F1D0
:1004CC003003F4D1344DE065C4F88C00E26233485B
:1004DC002A7002F023FE98F8003013B92B78022B07
:1004EC003AD901220023E262E365C4F88C202B7018
:1004FC003B7813B92B78022B32D90123E362E365E5
:10050C000023C4F88C302B70337813B92B78022B62
:10051C0029D9224802F02CFE002028706061A062CC
:10052C00E061E0626064A065E064E0656067C4F867
:10053C008800E067C4F88C0098F80030012B16D1C5
:10054C003B78012B14D13378012B13D1144A136847
:10055C0001331360BDE8F081E36A88F80030BAE734
:10056C00E36D3B70C4E7D4F88C303370CCE743B107
:10057C003B784BB13378002B14BF01206FF0020095
:10058C00E8E74FF0FF30E5E76FF00100E2E700BF6E
:10059C00000C0140C8020020B5020020AC03002072
:1005AC00B8020020431C0CD1002201210B4BC3E9E3
:1005BC001621C3E922215A619A62D9625A645A6798
:1005CC007047012805D100224FF48071044801F0D6
:1005DC002DB908B90122F7E7704700BFC802002007
:1005EC00000C01400AB11368436109B10B68036246
:1005FC0043699BB1D0E9071291420ADA00220261E9
:10060C00C262826953434FF47A7292FBF3F38362B2
:10061C00704706DD012202610022F1E783620123AB
:10062C00C3627047B0F5004F08B51DD101224FF4DD
:10063C008071284801F0FAF80122274BDA62DA655A
:10064C00C3F88C204FF4804001F0FEF84FF40050BA
:10065C0001F0FAF84FF4805001F0F6F8BDE80840CC
:10066C004FF4004001F0F0B8B0F5804F10D11B4BA7
:10067C0019491A78012A4FF000021EBF184802804F
:10068C0001221A70CA628021164801F0D4F8D9E709
:10069C00B0F5005F0CD1144B0F491A78012A4FF0BA
:1006AC0000021EBF1148028001221A70CA65EAE7D7
:1006BC00B0F5805FC6D10E4B07491A78012A4FF06E
:1006CC0000021EBF0B48028001221A70C1F88C2058
:1006DC00D9E700BF000C0140C8020020BD02002079
:1006EC005803002000080140BE0200205A030020DD
:1006FC00BF0200205C030020064BB4211A6840F2B4
:10070C006C734343B3FBF1F303F226239BB21364E4
:10071C00704700BFF4030020F0B5002487B21044EA
:10072C003A1992B2E5B2914203EB050602D80023C6
:10073C003370F0BD10F8012B01345A55F0E700006E
:10074C00F8B5A14C2378482B40F0C8800122202119
:10075C009E4801F06BF8002210219C4801F066F8CD
:10076C0040F226229A4B9B491B689B481A64002234
:10077C009A4B1A709A4AFFF787FE9A4B02461860FA
:10078C0040BB9949994804F0C1FC9848FFF7E2FC3A
:10079C0081B2964804F08CFAFFF711FE012108464D
:1007AC00FFF716FE9248FFF725FE01210220FFF706
:1007BC000FFE9048FFF71EFE962000F0E7FE012288
:1007CC000821824801F032F840F2DC5000F0DEFEE5
:1007DC000024DEE00332042AF6D801A353F822F0F9
:1007EC007B0800084308000801080008D50700082A
:1007FC00B30800084FF0FF327F497C4804F086FCB8
:10080C007A48FFF7A7FC81B2784804F051FAFFF759
:10081C00D6FD01210846FFF7DBFD7848FFF7EAFD1E
:10082C0002200121FFF7D4FD7548FFF7E3FD962068
:10083C0000F0ACFEC8E76FF0010272496B4804F09F
:10084C0065FC6A48FFF786FC81B2684804F030FA10
:10085C00FFF7B5FD01210846FFF7BAFD6748FFF722
:10086C00C9FD02200121FFF7B3FD6748DDE76FF0FA
:10087C00020266495D4804F049FC5C48FFF76AFCDB
:10088C0081B25A4804F014FAFFF799FD0121084689
:10089C00FFF79EFD5948FFF7ADFD02200121FFF740
:1008AC0097FD5B48C1E701225A49504804F02EFCE1
:1008BC004E48FFF74FFC81B24C4804F0F9F9FFF7B2
:1008CC007EFD01210846FFF783FD5348FFF792FD9B
:1008DC0002200121FFF77CFD5048A6E7A378562B98
:1008EC002ED101222021394800F0A0FF0022102136
:1008FC00364800F09BFF224604210220484BFFF7AC
:10090C000BFF0324474D464E304604F073FB013C6D
:10091C00C0B2686105F13005F6D101210846FFF738
:10092C0057FD4149314804F045FC3048FFF712FCB3
:10093C0081B22E4804F0BCF9962000F027FE28E086
:10094C00762B7DD1012220212048364D00F06EFF00
:10095C00002210211D4800F069FF03242E46304F61
:10096C00384604F047FB013CC0B2686105F1300524
:10097C00F6D1052103202A4B134AFFF7CDFE2B4954
:10098C002B48FFF7DDFB30B1254804F033FBC0B238
:10099C0070612046F8BD27492548FFF7D1FB28B1E7
:1009AC001F4804F027FBC0B27064F2E722492048CC
:1009BC00FFF7C6FB28B11A4804F01CFBC0B27067E5
:1009CC00E7E71E49AEE700BF65020020000C0140BE
:1009DC00F4030020C2020020C1020020BC0200204F
:1009EC00C3020020C4020020A85A00088D02002077
:1009FC00C85A0008D85A0008E95A0008095B0008D0
:100A0C001A5B00082B5B00084B5B00085C5B000862
:100A1C007C5B00088D5B0008B25B0008C35B0008C0
:100A2C0053020020C8020020D45B0008185B0008A9
:100A3C004D020020F35B0008F55B0008F75B000833
:100A4C00452B64D1012220213F4800F0EFFE00220B
:100A5C0010213D4800F0EAFE0221224608463B4B9D
:100A6C00FFF75AFE394804F0C5FAC4B2012C3748D6
:100A7C001BD104F0BFFA354804F0BCFAC0B2FFF742
:100A8C0091FD3349334804F095FB3248FFF762FB84
:100A9C0081B2304804F00CF920462146FFF798FC4F
:100AAC002D48FFF7A7FC962090E604F0A3FA10F06F
:100ABC00FF041BD1254804F09DFA244804F09AFA4F
:100ACC00C0B2FFF76FFD2549224804F073FB2148A3
:100ADC00FFF740FB81B21F4804F0EAF801210846F9
:100AEC00FFF776FC1E48FFF785FC25E71D491948E2
:100AFC0004F060FB1748FFF72DFB81B2154804F09A
:100B0C00D7F801210846FFF763FC1748C9E7532BB8
:100B1C0017D1012220210C4800F088FE0022102160
:100B2C00094800F083FE4FF0FF30FFF73BFD0F4903
:100B3C00084804F03FFB01210846FFF749FC0C482C
:100B4C00AFE7012425E700BF000C01405302002051
:100B5C00155C00088D020020335C0008445C000822
:100B6C00655C0008765C0008905C00089E5C0008E0
:100B7C00BD5C00087FB5544C2378442B2ED1012248
:100B8C002021524800F052FE002210214F4800F064
:100B9C004DFE6B46042102204D4AFFF7BDFD082196
:100BAC0006204B4A0DF10503FFF7B6FD0B2109207A
:100BBC00474A0DF10A03FFF7AFFD0025454E2046CD
:100BCC0004F018FA0135C0B2032D306204F10604AA
:100BDC0006F13006F3D1012004B070BD502BFAD1D0
:100BEC0001222021394800F021FE00221021374833
:100BFC0000F01CFE04210220354A04F10C03FFF71F
:100C0C008BFD04F10C0004F0F5F9C0B2592825D87D
:100C1C0004F10C0004F0EEF9C0B2F8B104F10C00D0
:100C2C0004F0E8F9C0B2FFF767FD00222A4B2B490C
:100C3C002B481A7004F0BEFA2948FFF78BFA81B2E0
:100C4C00274804F035F802201021FFF7C1FB4320A0
:100C5C00FFF77EFB962000F099FCBCE7214804F0DE
:100C6C00C9F9C0B259281ED91E4804F0C3F9C0B244
:100C7C00C8B11C4804F0BEF9C0B2FFF73DFD01221B
:100C8C00154B194916481A7004F094FA1448FFF7DA
:100C9C0061FA81B2124804F00BF802201021FFF720
:100CAC0097FB4120D4E711490D4804F083FA0C4816
:100CBC00FFF750FA81B20A4803F0FAFF0220102124
:100CCC00FFF786FB3F20C3E747020020000C0140E2
:100CDC0065020020C8020020BC020020D05C000885
:100CEC008D02002053020020EC5C0008085D000817
:100CFC002DE9F047042692B000F024FCFFF786FBA8
:100D0C00FFF730FA00F0ACFA03F06AFF00F080FB5A
:100D1C0000F0DAFAFFF7AAFAFFF73CFB00222021D9
:100D2C008E4800F083FD002210218C4800F07EFDDF
:100D3C0000220821894800F079FD01224FF48071CE
:100D4C00864800F073FD864B4FF0100C1D78854BD8
:100D5C0085491C88854BDFF818921A78854B1878D2
:100D6C00854B9E8020269A610022C3E904540225FB
:100D7C00D86282489E8107788148C3E90722068899
:100D8C008048C3E9092204787F48C3E912420078FD
:100D9C00C3E91422C3E916207C48C3E91076196014
:100DAC009960196399639D86A3F83CC0012490F85F
:100DBC0000C01966996608217548C3E92022078886
:100DCC007448C3E91CC706787348C3E91E620078EF
:100DDC00A3F86C10C3E92220A3F864406F4802F01A
:100DEC009DF90C216E4802F099FC6D4802F096F9C1
:100DFC006C4802F093F96C4B1E683046FFF7AAF969
:100E0C0081B2304603F054FFFFF7D9FA2146204651
:100E1C00FFF7DEFA6548FFF7EDFA21462846FFF7A3
:100E2C00D7FA6348FFF7E6FA0E212846FFF7D0FA07
:100E3C00FFF7E9FA4FF4FA6000F0A8FB5D4E337847
:100E4C00012B3DD14FF40051484600F0F4FC5A4BB5
:100E5C001A783A2A32D15B782B2B15D02D2B03D054
:100E6C00232B1FD1554910E05549564804F0A2F9DF
:100E7C005448FFF76FF981B2524803F019FFFFF79E
:100E8C005FFC00233370DAE74F494E4804F092F9C7
:100E9C004C48FFF75FF981B24A4803F009FFFFF7AE
:100EAC0069FEEEE74949474804F084F94548FFF7E5
:100EBC0051F981B2434803F0FBFEE2E74449F2E703
:100ECC00444B1C68002C40F08F8001210846FFF732
:100EDC007FFA4148FFF78EFA01210220FFF778FADA
:100EEC003E48FFF787FA3E49364804F063F9354827
:100EFC00FFF730F981B2334803F0DAFE22462021A5
:100F0C00164800F093FC22461021144800F08EFC89
:100F1C0040F2451000F03AFB0821104800F08BFC21
:100F2C0040F2451000F032FB08210C4800F083FC25
:100F3C002C4B1B68002B82DA40F2451000F026FB8C
:100F4C000821064800F077FC40F2451000F01EFB2B
:100F5C000821024800F06FFC71E700BF000C014053
:100F6C004402002058030020000801400400002027
:100F7C0000100140BD020020C802002045020020E4
:100F8C005A03002005000020BE020020460200206B
:100F9C005C03002006000020BF0200206403002038
:100FAC00F4030020AC030020000000202A5D0008A0
:100FBC00365D0008C0020020650200208F5D00082D
:100FCC00445D00088D0200206A5D0008B35D0008D6
:100FDC00D25D0008B8020020ED5D0008C35B00087C
:100FEC00FB5D0008C40200203349344804F0E2F8E9
:100FFC00334AA2F1140002F10C01FFF7F3FA00F1ED
:10100C00440200F150013030FFF7ECFA00F14402D9
:10101C0000F150013030FFF7E5FA2848FFF79AF855
:10102C0081B2264803F044FE264B1B78002B3BD0A4
:10103C00012B14BF4FF03F084FF041080024CDE9BD
:10104C000644CDE90A44CDE90E441F4DDFF87CA0DF
:10105C0008940C94109406AFEA6957F82400092AF6
:10106C0025DC1B49043404F051F80C2C05F1300537
:10107C00F2D10EAB3A46009316490AABCDF8048078
:10108C0002A804F043F801210220FFF7A1F902A8FD
:10109C00FFF7B0F940F2EE2000F078FA01221021AF
:1010AC000D4800F0C3FB43E74FF04308C6E7632A43
:1010BC00CCBF51460949D5E7105E00088D020020CF
:1010CC00DC020020BC020020C8020020245E0008C4
:1010DC00225E0008275E0008000C0140235E000819
:1010EC0003682DE9F041B3F1804F05462DD103265D
:1010FC0000271C4CDFF87080626AD4E9073101329A
:10110C009942626203D1D8F80010002919DBA16A58
:10111C008A4216DBA9B1E26A67626AB92069A189C1
:10112C00E8B901220133E361A06800F07FFB0122E2
:10113C00A188206800F07AFB0022A188206800F0CA
:10114C0075FB013E04F13004D6D12A68074B9A4254
:10115C0001BF074A137801331370BDE8F081013BDE
:10116C00E361E1E7C8020020B8020020000400405F
:10117C00B502002072B6FEE70E4B82B09A6942F0BF
:10118C0001029A619A6902F001020092009ADA69EE
:10119C0042F08052DA61DB69074A03F08053019315
:1011AC00019B536823F0E06343F00073536002B07B
:1011BC00704700BF0010024000000140FEE7FEE750
:1011CC00FEE7FEE7FEE770477047704700F0CCB9CA
:1011DC00014800F05BBE00BF08110020014801F07F
:1011EC00E4BF00BF64030020014801F0DEBF00BF74
:1011FC00AC03002008B54FF4805000F025FB4FF4F1
:10120C00005000F021FB4FF4804000F01DFBBDE8C6
:10121C0008404FF4004000F017BB00000B4A034697
:10122C00116810B509B90A491160106809490A4CCE
:10123C000344091B8B4206D903F090FF0C23036077
:10124C004FF0FF3010BD1360FCE700BF60030020BF
:10125C0060170020005000200004000070470000C0
:10126C007FB51022002102A803F070FF47224FF037
:10127C00804114480023C0E900124FF47A72CDE982
:10128C000033C0E903238360836102F069F808B17D
:10129C00FFF770FF4FF480530A4802A9029302F043
:1012AC0046F908B1FFF766FF002369460548CDE90A
:1012BC00003302F035FA08B1FFF75CFF07B05DF8B8
:1012CC0004FB00BF640300207FB51022002102A89C
:1012DC0003F03CFF41F61F42144815490023C0E9B6
:1012EC00001242F20F72CDE90033C0E90323836090
:1012FC00836102F035F808B1FFF73CFF4FF48053DF
:10130C000A4802A9029302F012F908B1FFF732FF62
:10131C00002369460548CDE9003302F001FA08B113
:10132C00FFF728FF07B05DF804FB00BFAC030020FB
:10133C00000400401FB50368B3F1804F15D103F5CD
:10134C000433DA691C2042F00102DA610022DB6905
:10135C00114603F001030193019B00F03BF91C20A3
:10136C0005B05DF804EB00F065B9124A934210D158
:10137C00114B1D20DA6942F00202DA610022DB69AE
:10138C00114603F002030293029B00F023F91D2087
:10139C00E6E70A4A934209D1074BDA6942F00402A4
:1013AC00DA61DB6903F004030393039B05B05DF87A
:1013BC0004FB00BF00040040001002400008004085
:1013CC0010B5044686B01022002102A803F0BEFE20
:1013DC0022680D4B9A4214D103F502339A690B48DB
:1013EC0042F008029A619B694FF4007203F0080303
:1013FC000193019B022302A9CDE90223059300F07E
:10140C003BF906B010BD00BF00080040000C0140C5
:10141C0010B58EB01022002103A803F097FE002413
:10142C001C2221460DEB0200CDE9014403F08EFE97
:10143C0047231D481D4A8460C0E9002344F61F63FE
:10144C008461C0E9033401F08BFF08B1FFF792FE11
:10145C004FF48053144803A9039302F068F808B1C1
:10146C00FFF788FE104801F0A7FF08B1FFF782FED6
:10147C0000240D4801A9CDE9014402F051F908B14D
:10148C00FFF778FE60230C22074807A9CDE9073443
:10149C0009940B9401F0E8FF08B1FFF76BFE0248CA
:1014AC00FFF78EFF0EB010BDF403002000080040C3
:1014BC00FFF7D4FE0B480C490C4A002302E0D45829
:1014CC00C4500433C4188C42F9D3094A094C002384
:1014DC0001E013600432A242FBD303F045FEFFF798
:1014EC0007FC704700000020D4010020F05F0008CA
:1014FC00D401002060170020FEE7000038B50E4B29
:10150C0005461A784FF47A73B3FBF2F30B4A106862
:10151C00B0FBF3F000F09CF8044658B90F2D09D835
:10152C00024629464FF0FF3000F054F82046044B99
:10153C001D6038BD0120FCE70C00002008000020D5
:10154C0010000020074A08B51368032043F010036D
:10155C00136000F02DF80F20FFF7D0FFFFF70CFE03
:10156C00002008BD00200240034A044B11681B7880
:10157C000B441360704700BF3C0400200C0000209B
:10158C00014B1868704700BF3C04002038B5044676
:10159C00FFF7F6FF0546631C1EBF044B1B78E418CF
:1015AC00FFF7EEFF431BA342FAD338BD0C0000201B
:1015BC0007490302CA6803F4E06322F4E0621204F0
:1015CC00120C134343F0BF6343F40033CB607047FA
:1015DC0000ED00E0154B30B5DC68C4F30224C4F117
:1015EC000703251D042B28BF0423062D4FF0FF35C0
:1015FC0094BF0024033C05FA03F321EA0303A5403E
:10160C0022EA0502A340002843EA0203ACBF00F122
:10161C006040074A4FEA0313DBB2ABBF00F56140F1
:10162C0000F00F0080F80033135430BD00ED00E0E3
:10163C0014ED00E0002807DB01234109034A00F008
:10164C001F00834042F82130704700BF00E100E0EA
:10165C000138B0F1807F0BD24FF0E023F021054A26
:10166C00586182F823100020072298611A61704794
:10167C000120704700ED00E02DE9F74F00221646DF
:10168C00644F654BDFF894C1DFF894E10D6835FACF
:10169C0006F402D103B0BDE8F08F4FF0010808FA50
:1016AC0006F805EA080438EA05057AD14D68032DD9
:1016BC0007D8013D022D00F28780DFE805F0959AEE
:1016CC00A000122D00F098806DD8112D00F08E80A6
:1016DC00FF2C98BF82464FF00F0988BF00F1040A17
:1016EC004FEA8605DAF8008088BF203D09FA05FB31
:1016FC0028EA0B0802FA05F548EA0505CAF8005075
:10170C00D1F804A01AF0805F4BD0BD6926F0030815
:10171C0045F00105BD61BD6908F1804805F0010582
:10172C00019508F5803806F0030B019D4FEA8B0BF1
:10173C00D8F8085009FA0BF925EA0909394DA842DD
:10174C0061D005F58065A8425FD005F58065A8429B
:10175C005DD005F58065A8420CBF0325042505FA6C
:10176C000BF545EA0905C8F808509D681AF4801F66
:10177C0014BF2543A5439D60DD681AF4001F14BFF8
:10178C002543A543DD605D681AF4003F14BF254373
:10179C00A5435D601D681AF4803F14BF2543A54323
:1017AC001D60013672E7DFF880904D450CD017D8DC
:1017BC00A9F580194D4507D009F570294D4503D081
:1017CC00A9F580194D4583D18A68D2B1012A08BF89
:1017DC00C0F810804FF0080218BFC0F8148077E7EB
:1017EC006545F1D07545EEE7CA6871E7CA68043201
:1017FC006EE7CA6808326BE7CA680C3268E70022E9
:10180C0066E7042264E70025A9E70125A7E702257E
:10181C00A5E700BF00100240000401400000311099
:10182C000000321000080140000022100AB10161D2
:10183C0070470904FBE7C36801EA030221EA0301CC
:10184C0041EA024101617047044A08B551690142FD
:10185C0002D05061FEF7E6FE08BD00BF0004014057
:10186C00016800224B6913F4806310D06FF480631D
:10187C004B612023026380F83D3080F83E20036CDE
:10188C0080F83C2043F004030364012070471846A1
:10189C0070472DE9F84606460F4691461D464FEA1D
:1018AC00114A3368BAF1010F0CBF5C699C6927EAD5
:1018BC000404A4B2B4FA84F46409A14501D0002054
:1018CC0025E06A1CEED0FFF75BFE089BC01AA8420D
:1018DC0001D8002DE5D13368BAF1010F0CBF5B695B
:1018EC009B6927EA03039BB2B3FA83F35B0999451F
:1018FC00D7D1002320220120336386F83D2086F8BF
:10190C003E30326C86F83C3042F020023264BDE846
:10191C00F8862DE9F04104460F4616469846256890
:10192C00686927EA000080B2B8B16B695A0516D510
:10193C002B68202243F400732B606FF480636B617F
:10194C000023236384F83D2084F83E30226C42F05F
:10195C0004020120226484F83C30BDE8F081731C41
:10196C00DED0FFF70DFEA0EB0800B04201D8002E30
:10197C00D5D123685A6927EA020292B2002ACED046
:10198C0000232022236384F83D2084F83E30226C0F
:10199C0042F02002DDE770B504460D46164623687A
:1019AC005B691B0601D5002070BD2046FFF758FF70
:1019BC00C8B96A1CF3D0FFF7E3FD801BA84201D81D
:1019CC00002DECD123685B6913F08003E7D1202252
:1019DC00236384F83D2084F83E30226C84F83C303C
:1019EC0042F0200222640120DEE770B504460D4669
:1019FC00164623685B695B0701D5002070BD204645
:101A0C00FFF72EFFC8B96A1CF3D0FFF7B9FD801B96
:101A1C00A84201D8002DECD123685B6913F00403B4
:101A2C00E7D12022236384F83D2084F83E30226CD9
:101A3C0084F83C3042F0200222640120DEE70000F2
:101A4C0070B5044608B9012070BD90F83D3003F024
:101A5C00FF021BB980F83C20FEF726FC242384F8F7
:101A6C003D3023681A6822F001021A601A6842F4A9
:101A7C0000421A601A6822F400421A6001F050FA0F
:101A8C003F4B65689D4294BF3E4B3F4B98428CBF89
:101A9C0000230123002BD6D1394E3C4BB542B0FB71
:101AAC00F3F388BF4FF496762268516821F03F011A
:101ABC0041EA030182BF73434FF47A76B3FBF6F32A
:101ACC005160116A013321F03F010B431362D1695C
:101ADC00431E2B4821F44F41854221F0FF0132D89F
:101AEC006D00B3FBF5F340F6FC700133034242D0BA
:101AFC00C3F30B031943D1611168D4E9073021F00A
:101B0C00C00103430B4313609168D4E9030321F430
:101B1C000341034321F0FF010B439360D168D4E9E7
:101B2C00053021F0FF0103430B43D3601368002001
:101B3C0043F0010313602023206484F83D302063BC
:101B4C0084F83E0080E7A06850B905EB4505B3FB6F
:101B5C00F5F30133C3F30B037BB143F40043C9E743
:101B6C0019206843B3FBF0F30133C3F30B0323B128
:101B7C0043F44043BEE70423BCE70123BAE700BFAC
:101B8C00A08601007F841E00FF083D0040420F002C
:101B9C002DE9F043044685B098460D4691460C9FBE
:101BAC00FFF7EEFC94F83D300646202B04D00225BE
:101BBC00284605B0BDE8F083009019230122204689
:101BCC005B49FFF766FE0028F1D194F83C30012BFD
:101BDC00EDD00123216884F83C300B68DA075EBF36
:101BEC000B6843F001030B600B6823F400630B607C
:101BFC00212384F83D30102384F83E3000232364E5
:101C0C00A4F82A80638DC4F824902385494BE362A1
:101C1C00E36A082B04D0012B02D013F5803F04D1CA
:101C2C000B6843F480730B6002E0236B122BF7D02C
:101C3C0000223B464FF0011120460096FFF729FE8B
:101C4C00226838B11368DB0544BF4FF4007323647A
:101C5C000125ADE72369B3F5804F21D105F0FE05D1
:101C6C00156133463A4620463349FFF752FE054686
:101C7C000028EDD1236803905A6903929B69039362
:101C8C00039B238DF3B921680A6842F400720A6041
:101C9C00202284F83C3084F83D2084F83E3087E7DD
:101CAC00EB1103F0060343F0F003136120463346B7
:101CBC003A462249FFF72DFE0028C9D12368EDB220
:101CCC001D61CEE7324639462046FFF764FE40B12F
:101CDC00236C042BBCD12268136843F4007313608B
:101CEC00B6E7636A20681A4612F8011B016162624A
:101CFC00628D013A92B26285228DD0F814C0511EC9
:101D0C0089B21CF0040F21850AD049B159780233ED
:101D1C0001616362638D023A013B9BB2638522854C
:101D2C00324639462046FFF760FE0028A9D0CFE79F
:101D3C00020010000000FFFF02000100080001007B
:101D4C00F0B5044687B010B390F8A93203F0FF0247
:101D5C001BB980F8A82203F041F8032325466E46F0
:101D6C0084F8A93255F8100B01F01AFD0FCD0FC6EF
:101D7C002B68271D3360264697E80E0056F8100B8B
:101D8C0001F0FEFC054620B1022384F8A93201259E
:101D9C004BE00146206801F00DFD29464FF0010E85
:101DAC0028250A46D4F804C0C8B2844501F10101C3
:101DBC001BD8002328251946D8B2844503F101030A
:101DCC001FD8EC4635460FCDACE80F002B68CCF88D
:101DDC00003097E80E00206801F0EEFC0123054668
:101DEC00E0B1022284F8A922D1E705FB0043C3E944
:101DFC000E2283F829E083F8280083F82B201A643C
:101E0C00D2E705FB0042C2E95E1182F8691182F843
:101E1C00680182F86B11C2F88011CDE784F82400B8
:101E2C00206884F8A93201F07FFF284607B0F0BD86
:101E3C0038B590F8A8320446012B10D0012580F853
:101E4C00A852006801F0A3FC2946204603F0D1F803
:101E5C00206801F067FF002084F8A80238BD02203A
:101E6C00FCE710B590F8A8220446012A0BD00122F9
:101E7C0080F8241080F8A822006801F04DFF0020A3
:101E8C0084F8A80210BD0220FCE700002DE9F04FF9
:101E9C00044685B0006801F049FF10F4004500F0DD
:101EAC002484DFF81C93DFF81C832068B0F84430DE
:101EBC001F0402D405B0BDE8F08FB0F84460B1B295
:101ECC0016F00F0640F0C68011F010012BD10388DC
:101EDC009BB203EA090343F400430380B0F850308B
:101EEC0094F828209BB203EBC20300EB4303B3F836
:101EFC000434E26BC3F309031A4463642046E263BF
:101F0C0002F09BFF94F82430002BCED0226C216879
:101F1C00002ACAD194F8243043F08003A1F84C3045
:101F2C0084F82420C1E70588ABB215F4006521D0F4
:101F3C00B0F8503094F868219BB203EBC20300EB6D
:101F4C004303B3F80C34B4F86E21C3F30903C4F89B
:101F5C00843104F52C7102F017F92268204613889D
:101F6C0023F070031B051B0D43F08003138002F05C
:101F7C0055FF9AE7190498D5038823F070031B05C5
:101F8C001B0D43F080030380B0F8503094F86821A7
:101F9C009BB203EBC20300EB4303B3F80C34C3F363
:101FAC000903C4F884318BB1D4F87C1171B1B4F845
:101FBC006E2102F0E9F8D4F87C31D4F8842129465A
:101FCC0013442046C4F87C3102F02EFF21680A88A5
:101FDC0093B212053FF569AF03F44053B3F5405F7C
:101FEC003FF463AFB1F8503001F20C409BB2C25ACF
:101FFC00C2F30902C252D4F878213E2A0CD95509F1
:10200C00D706C25A08BF05F1FF3592B242EA8522C3
:10201C0042EA080292B204E09AB9C25A92B242F46D
:10202C000042C2520B8823F4804323F070031B043C
:10203C001B0C83F4405343F4004343F080030B80A8
:10204C0033E75508D607C25A48BF013592B242EA67
:10205C008522DFE730F826301A049FB240F1F18078
:10206C00282130F8263001FB064123F070031B05B4
:10207C001B0D43F0800320F8263091F8743100F5E5
:10208C00806CB3B9B0F8503091F868219BB206332C
:10209C0003EBC2033CF81350C5F30905002D00F007
:1020AC00B4802B46B1F86E21D1F87C1102F06CF89B
:1020BC00ABE091F86B2191F86831022A40F08480F2
:1020CC00B0F850504FEAC30BADB217F4804AD1F8B8
:1020DC0080215D4407F0400E39D002353CF8155094
:1020EC00C5F30905954213D90022C1F8802130F8B7
:1020FC00232022F4804222F070021204120C82F48B
:10210C00005242F4004242F0800220F8232004E006
:10211C00521BC1F88021002AE9D0BEF1000F0DD06E
:10212C0030F8232022F4E04222F070021204120C48
:10213C0042F4004242F0C00220F82320002D64D06B
:10214C00282101FB06412B46B1F87021ACE706357E
:10215C003CF81550C5F30905954212D9C1F880A178
:10216C0030F8232022F4804222F070021204120C68
:10217C0082F4005242F4004242F0800220F8232004
:10218C0004E0521BC1F88021002AE9D0BEF1000FF7
:10219C000DD130F8232022F4E04222F07002120418
:1021AC00120C42F4004242F0C00220F8232065B326
:1021BC00282101FB06412B46B1F8722174E700BFC0
:1021CC000F8FFFFF0080FFFF30F8232022F4E04246
:1021DC0022F070021204120C42F4004242F0C002CF
:1021EC0020F8232091F8682130F82230D20013F423
:1021FC00804FB0F850309BB255D0023313443CF8AA
:10220C001350C5F30905002D9DD128217143631886
:10221C00D3F884212A44C3F88421D3F87C212A449E
:10222C00C3F87C21D3F880211AB1D3F878319D42C0
:10223C0042D2282303FB0643204693F8681102F090
:10224C00F3FD3B0620687FF530AE282230F82630AF
:10225C0002FB06459BB203EA090343F4004320F852
:10226C00263095F82B30012B50D1002195F83430C5
:10227C00296493B317F0400795F8292095F8283076
:10228C0031D002BBB0F850201B0192B200F20440D6
:10229C0010441A5AC2F309021A521A5A92B242F450
:1022AC0000421A5219E006331A443CF81250C5F396
:1022BC000905002DA9D07EE701F5B47120682144F1
:1022CC0001F04AFDBDE7012A07D1B0F8502000F219
:1022DC00044092B21B011044195295F82810204664
:1022EC0002F0ABFDE1E532B9B0F850201B0192B21F
:1022FC0000F20C40CCE7012AEFD1B0F8502000F2EC
:10230C000C4092B21B0110441F52E6E795F82810BE
:10231C0017F4807C2B6C4FEAC10A00F5806E1BD140
:10232C00B0F85070BFB2574402373EF81770C7F37D
:10233C0009079F4202D3C5F840C0D0E7DB1B2B64D2
:10234C00EB6B06FB02223B44EB636B6CA1183B442A
:10235C006B6401F001FDA8E5B0F8502017F0400CBB
:10236C0092B2524407F4804700F0DC8002323EF80F
:10237C0012204FF0280CC2F309029A4228BF002306
:10238C000CFB064C38BF9B1ACCF84030BFB2002B6C
:10239C004DD195F82920002A36D1B0F8502000F202
:1023AC00044692B20B011644F25AC2F30902F252DD
:1023BC00F25A92B242F40042F252B0F8502000F2BB
:1023CC000C4092B21044C25AC2F30902C252C25A11
:1023DC0092B242F40042C252204602F02EFD002F6F
:1023EC0000F0DC8095F82810226832F8213023F4B4
:1023FC00E04323F070031B041B0C43F4404343F0F5
:10240C00800322F82130C9E0012AE5D1B0F850C090
:10241C0000F204461FFA8CFC0A016644B352B0F871
:10242C00506000F20C40B6B230448352D4E76FB126
:10243C0030F8213023F4E04323F070031B041B0C11
:10244C0043F4404343F0800320F82130282707FB56
:10245C00064797F84C30012B40F0A080FB6BD7F867
:10246C0048E003EB020C7B6CC7F83CC013447B6464
:10247C00BB6B9E452CD3AEEB0302BA6495F82920B6
:10248C001FFA83FE002A41D1B0F8507000F20442CA
:10249C00BFB23A440901575A3E2BC7F309075752AA
:1024AC0023D9DF06575A4FEA531A08BF0AF1FF3AED
:1024BC00BFB247EA8A2747EA0807BFB25752282219
:1024CC007346614602FB0642128E01F035FC65E054
:1024DC00BEF1000F03D1134687F84CE0CEE7002382
:1024EC0087F84C30BB647346C8E72BB9535A9BB280
:1024FC0043F400435352E2E75F08DB07535A48BFEB
:10250C0001379BB243EA87239BB2F3E7012AD6D16A
:10251C00B0F8502000F2044392B21344090123F89E
:10252C0001E0CCE706323EF81220BFB2C2F309023A
:10253C009A4288BF63464FF0280C0CFB064C98BFA0
:10254C009B1ACCF84030002B4ED195F82920002A4C
:10255C0037D1B0F8502000F2044692B20B01164469
:10256C00F25AC2F30902F252F25A92B242F4004207
:10257C00F252B0F8502000F20C4092B21044C25A01
:10258C00C2F30902C252C25A92B242F40042C2527F
:10259C00204602F052FC002F3FF424AF95F828108F
:1025AC00226832F821309BB223F4E04323F040033D
:1025BC0083F0300343F4004343F0800322F82130CE
:1025CC0073E4012AE4D1B0F850C000F204461FFABB
:1025DC008CFC0A016644B352B0F8506000F20C4017
:1025EC00B6B230448352D3E76FB930F8213023F4BC
:1025FC00E04323F070031B041B0C43F4404343F0F3
:10260C00800320F821304FF0280C0CFB064C9CF872
:10261C004C30012BC2D1DCF84430DCF83C70134454
:10262C00DCF848E0CCF84430DCF8383017449E45F0
:10263C00CCF83C7027D3AEEB0302CCF8482095F8CD
:10264C0029201FFA83FC002A43D1B0F850E000F295
:10265C000C421FFA8EFE7244090132F801E03E2B47
:10266C00CEF3090E22F801E01BD94FEA531EDB060C
:10267C00535A08BF0EF1FF3E9BB243EA8E2343EA46
:10268C0008039BB212E0BEF1000F03D113468CF885
:10269C004CE0D4E70023CCF848308CF84C3073462F
:1026AC00CDE75BB9535A9BB243F4004353522823F2
:1026BC0003FB064639466346728E06E74FEA530E15
:1026CC00DB07535A48BF0EF1010E9BB243EA8E232F
:1026DC00D7E7012AEBD1B0F8502000F20C4392B2AC
:1026EC0013440A0123F802C0E1E7460512D522681B
:1026FC002046B2F8443023F480631B041B0CA2F870
:10270C00443002F0A6FB2946204605B0BDE8F04F48
:10271C00FFF7A7BB41040AD52268B2F8443023F472
:10272C0080431B041B0CA2F84430FFF7C3BB82048C
:10273C0005D52268B2F8443023F40053F1E7C30402
:10274C0019D522682046B2F8403023F004031B044C
:10275C001B0CA2F84030B2F8403023F008031B04E5
:10276C001B0CA2F8403002F097FB2268B2F8443000
:10277C0023F48053D5E7070548D5684622680646FA
:10278C001146134602F1200533F8047B9D4226F8CE
:10279C00027BF9D1B2F840309BB243F00103A2F8AE
:1027AC004030B2F8403023F001031B041B0CA2F89C
:1027BC004030B2F844305E05FBD5B2F8443023F417
:1027CC0080631B041B0CA2F8443030F8023B21F848
:1027DC00043B8D42F9D1B2F8403020469BB243F015
:1027EC000803A2F84030B2F8443023F400631B0411
:1027FC001B0CA2F84430B2F840309BB243F00403F7
:10280C00A2F8403002F038FBFFF754BB82050DD51F
:10281C0022682046B2F8443023F400731B041B0CCE
:10282C00A2F8443002F011FBFFF744BBC3057FF55F
:10283C0041AB2268B2F8443023F4807371E700BFD7
:10284C0011F0800F70B5054601F007004FF028011C
:10285C001AD0012400FB011129444C70022BCB70BF
:10286C0008BF0023087008BF0B710A6195F8A832E5
:10287C00012B13D00123286885F8A83200F0B0FF93
:10288C00002085F8A80270BD002601FB00F404F5B9
:10289C00B4712C44294484F86961DFE70220F2E723
:1028AC0011F0800F10B501F0070204464FF028011B
:1028BC0013D0012302FB011101444B700A7094F8F0
:1028CC00A832012B13D00123206884F8A83201F020
:1028DC00E7F8002084F8A80210BD01FB02F303F511
:1028EC00B47101440344002083F86901E6E7022037
:1028FC00F2E770B52824002601F007014C430519B6
:10290C0085F8681104F5B4710144C5E95F23C5F875
:10291C00846185F86961006801F01EFA304670BD6B
:10292C00282301F0070103FB0100D0F88401704754
:10293C0070B501F00705282101FB05040026C4E948
:10294C000F23012205FB011184F84C200144A364E0
:10295C00666484F8292084F82850006801F0FCF99A
:10296C00304670BD38B5436801F007059D420446FA
:10297C0028D811F0800F4FF028031AD005FB033331
:10298C00C11801234B7001230D708B7094F8A82291
:10299C009A4219D0206884F8A83201F054F925B96C
:1029AC00206804F52C7101F0C5F9002084F8A80208
:1029BC0038BD00224B4303F5B4710344014483F842
:1029CC006921E0E70120F3E70220F1E738B543681D
:1029DC0001F00F029A42044626D811F0800F01F044
:1029EC0007024FF0280115D0012302FB011101440D
:1029FC004B7000250A708D7094F8A832012B15D0FD
:102A0C000123206884F8A83201F03DF9284684F8A7
:102A1C00A85238BD01FB02F303F5B4710144034421
:102A2C00002083F86901E4E70120F2E70220F0E7D7
:102A3C0010B5282411F0800F1BBF01F0070101FB1A
:102A4C00044404FB0100001908BF00F5B47099B2EE
:102A5C001AB90273C180002010BD01228360027379
:102A6C00F9E700002DE9F341054638B30368DB07AD
:102A7C0010D42B689F075ED42B68190700F1958042
:102A8C002B685A0700F1C180E869002840F02C81BE
:102A9C00002029E0904C636803F00C03042B07D052
:102AAC00636803F00C03082B0AD16368DE0307D5B7
:102ABC0023689C03DDD56B68002BDAD1012013E071
:102ACC006B68B3F5803F12D1236843F480332360E5
:102ADC00FEF756FD064623689803CAD4FEF750FD50
:102AEC00801B6428F7D9032002B0BDE8F0819BB9A4
:102AFC00236823F480332360236823F4802323602A
:102B0C00FEF73EFD064623689903B2D5FEF738FD65
:102B1C00801B6428F7D9E6E7B3F5A02F236803D10F
:102B2C0043F480232360CFE723F4803323602368AE
:102B3C0023F48023CBE7684C636813F00C0F07D0A9
:102B4C00636803F00C03082B10D16368DA030DD40F
:102B5C0023689B0702D52B69012BAFD123686A69C7
:102B6C0023F0F80343EAC203236085E72A695B4B31
:102B7C006AB101221A60FEF703FD064623689F071F
:102B8C00ECD4FEF7FDFC801B0228F7D9ABE71A60EA
:102B9C00FEF7F6FC0646236898077FF56DAFFEF747
:102BAC00EFFC801B0228F6D99DE7AA694A4E4B4BD5
:102BBC00E2B10122C3F88024FEF7E2FC0446736AFA
:102BCC009B070DD54FF4FA52454B1B68B3FBF2F340
:102BDC00019300BF019B5A1E0192002BF9D14FE7C4
:102BEC00FEF7CEFC001B0228E9D97CE7C3F8802451
:102BFC00FEF7C6FC0446736A9F077FF541AFFEF7EC
:102C0C00BFFC001B0228F6D96DE7334CE369D800F2
:102C1C0024D40127E36943F08053E361E36903F0B3
:102C2C0080530093009B2F4E3368D90518D5EB6861
:102C3C00012B26D1236A43F001032362FEF7A0FC8B
:102C4C0041F288380646236A9B073FD5002F3FF494
:102C5C001BAFE36923F08053E36115E70027E2E73C
:102C6C00336843F480733360FEF78AFC8046336824
:102C7C00DA05DCD4FEF784FCA0EB08006428F6D956
:102C8C0031E7ABB9236A41F2883823F001032362A0
:102C9C00236A23F004032362FEF772FC0646236AC0
:102CAC009807D3D5FEF76CFC801B4045F7D91AE783
:102CBC00052B236A03D143F004032362BAE723F004
:102CCC0001032362236A23F00403B6E7FEF758FCE2
:102CDC00801B4045B7D906E7001002400000424275
:102CEC0008000020007000402A4C636803F00C03BD
:102CFC00082B3ED00022284B02281A662CD1FEF756
:102D0C003FFC06462368990120D42B6AB3F5803F1B
:102D1C0005D16268A96822F400320A436260696ACC
:102D2C0062680B4322F474121343012263601A4B42
:102D3C001A66FEF725FC054623689A013FF5A8AEF6
:102D4C00FEF71EFC401B0228F6D9CCE6FEF718FC59
:102D5C00801B0228D6D9C6E6FEF712FC054623686E
:102D6C009B017FF595AEFEF70BFC401B0228F6D9B4
:102D7C00B9E601283FF4B8AE63682A6A03F48031DF
:102D8C0091427FF49BAE6A6A03F4701393423FF452
:102D9C007FAE93E600100240000042420D4A536899
:102DAC0003F00C01082912D10B48C3F38341DB0358
:102DBC00405C09D55368094AC3F340435043084A61
:102DCC00D35CB0FBF3F07047064B58437047034895
:102DDC00704700BF001002405B5E000800127A00D2
:102DEC006B5E000800093D002DE9F0410D460446DC
:102DFC0010B90120BDE8F081444A136803F00703C1
:102E0C008B4228D321688E0730D4CA0743D43F4A5B
:102E1C00136803F00703AB4265D822683C4D12F0EF
:102E2C00040F6CD1130706D56B68226923F4605329
:102E3C0043EAC2036B60FFF7B1FF6B68354AC3F31B
:102E4C000313D35CD840344B1860344B1868FEF72E
:102E5C0055FB0020CEE7136823F007030B431360E8
:102E6C00136803F007038B42C3D1CBE7284B11F057
:102E7C00040F1EBF5A6842F4E0625A60080742BF52
:102E8C005A6842F460525A605A68A06822F0F00204
:102E9C0002435A60B9E762681D4E012A33681AD1A1
:102EAC0013F4003FA5D0736841F2883823F0030374
:102EBC0013437360FEF764FB07467368626803F0A4
:102ECC000C03B3EB820FA2D0FEF75AFBC01B40459C
:102EDC00F3D903208EE7022A02D113F0007FE1E739
:102EEC0013F0020FDEE7136823F007032B43136084
:102EFC00136803F00703AB427FF47BAF8DE76B687D
:102F0C00E16823F4E0630B436B608BE70020024025
:102F1C0000100240435E0008080000201000002052
:102F2C00044B054A5B68C3F30223D35C034A106865
:102F3C00D840704700100240535E00080800002083
:102F4C0003682DE9F341D907054621D5364CE369D1
:102F5C00DA0033D40126E36943F08053E361E3697B
:102F6C0003F080530193019B304F3B68DB0527D561
:102F7C00236A6A6813F4407336D1236A6A6823F4AF
:102F8C004073134323621EB1E36923F08053E36162
:102F9C002868830706D52449AB684A6822F4404266
:102FAC001A434A6010F010001BD01F4AE96853689E
:102FBC00002023F480030B43536012E00026D3E778
:102FCC003B6843F480733B60FEF7DAFA80463B685B
:102FDC00D805CDD4FEF7D4FAA0EB08006428F6D9B6
:102FEC00032002B0BDE8F08102F440729A42C4D0D2
:102FFC0001200F4A236AC2F84004002023F44071D8
:10300C00C2F840042162D907B7D5FEF7B9FA41F2EC
:10301C0088380746236A9A07AFD4FEF7B1FAC01B6B
:10302C004045F7D9DCE700BF0010024000700040BB
:10303C0000004242036A026A70B522F00102026289
:10304C00446882690D6822F073022A438D6823F06C
:10305C0002032B430A4DA8420BD1CD6823F0080381
:10306C002B4324F44074D1E90556354323F0040373
:10307C002C43446082614A684263036270BD00BFA6
:10308C00002C0140036A026A70B522F4807202625D
:10309C004468C2690D6822F073022A438D6823F4D8
:1030AC00007343EA05230B4DA8420DD1CD6823F4E0
:1030BC00006343EA052324F44054D1E90556354313
:1030CC0023F4806344EA05144460C2614A68C26315
:1030DC00036270BD002C0140036A026A30B522F411
:1030EC00805202624468C2690D6822F4E64242EAE8
:1030FC0005228D6823F4005343EA0533064DA8429C
:10310C0002BF4D6924F4804444EA85144460C261D2
:10311C004A680264036230BD002C014090F83D30D7
:10312C00012B20D1022380F83D300368DA6842F08D
:10313C000102DA600D4A93420AD0B3F1804F07D0F6
:10314C00A2F59432934203D002F58062934204D1EB
:10315C009A6802F00702062A03D01A6842F00102AC
:10316C001A60002070470120704700BF002C0140FE
:10317C000368DA6822F00102DA6041F21112196A6E
:10318C00114208D140F24442196A114202BF1A6836
:10319C0022F001021A60012380F83D3000207047B4
:1031AC0070477047704770477047036810B51A69CD
:1031BC00044691070ED5DA6892070BD56FF0020220
:1031CC001A61012202779B699B0777D0FFF7EAFF10
:1031DC000023237723681A69500710D5DA68510742
:1031EC000DD56FF004021A61022222779B692046EA
:1031FC0013F4407F68D0FFF7D5FF002323772368B3
:10320C001A6912070FD5DA6810070CD56FF008028F
:10321C001A6104222277DB69204699075AD0FFF7FE
:10322C00C1FF0023237723681A69D20610D5DA6808
:10323C00D0060DD56FF010021A6108222277DB69D7
:10324C00204613F4407F4BD0FFF7ACFF00232377CD
:10325C0023681A69D10708D5DA68D20705D56FF04B
:10326C00010220461A61FDF73BFF23681A6910061C
:10327C0008D5DA68110605D56FF0800220461A6170
:10328C0000F07DFA23681A69520608D5DA685006F0
:10329C0005D56FF0400220461A61FFF785FF2368C1
:1032AC001A69910622D5DA6892061FD56FF02002B2
:1032BC002046BDE810401A6100F060BAFFF771FFBC
:1032CC002046FFF770FF83E7FFF76BFF2046FFF701
:1032DC006AFF92E7FFF765FF2046FFF764FFA0E760
:1032EC00FFF75FFF2046FFF75EFFAFE710BD000062
:1032FC001A4A036890420AD0B0F1804F07D0A2F569
:10330C009432904203D002F58062904215D14A6803
:10331C0023F070031343114A90420AD0B0F1804F4E
:10332C0007D0A2F59432904203D002F5806290420D
:10333C0003D1CA6823F4407313434A6923F0800312
:10334C00134303608B68C3620B688362034B984220
:10335C0004BF0B690363012343617047002C0140D8
:10336C0010B5044630B390F83D3003F0FF021BB9A2
:10337C0080F83C20FDF7DEFF0223206884F83D3006
:10338C00211DFFF7B5FF0123002084F8463084F897
:10339C003E3084F83F3084F8403084F8413084F873
:1033AC00423084F8433084F8443084F8453084F853
:1033BC003D3010BD0120FCE710B5044630B390F849
:1033CC003D3003F0FF021BB980F83C20FFF7E8FE0C
:1033DC000223206884F83D30211DFFF789FF01236B
:1033EC00002084F8463084F83E3084F83F3084F86E
:1033FC00403084F8413084F8423084F8433084F80B
:10340C00443084F8453084F83D3010BD0120FCE791
:10341C00036A026A70B522F0100202624468826983
:10342C000D6822F4E64242EA05228D6823F020035F
:10343C0043EA05130B4DA8420DD1CD6823F0800350
:10344C0043EA051324F44064D1E90556354323F0CF
:10345C00400344EA8504446082614A6882630362E3
:10346C0070BD00BF002C014070B590F83C30054693
:10347C00012B50D00123082A80F83C303BD007D8D0
:10348C00C2B1042A27D01846002385F83C3070BD01
:10349C000C2AF8D10068FFF71FFEC3690A6943F4D0
:1034AC000063C361C36923F48063C361C36943EAE6
:1034BC0002232EE00068FFF7BDFD83690A6943F023
:1034CC0008038361836923F00403836183691343D5
:1034DC0083610020D8E70068FFF79AFF83690A69C7
:1034EC0043F400638361836923F48063836183699C
:1034FC0043EA0223ECE70068FFF7C4FDC3690A69DD
:10350C0043F00803C361C36923F00403C361C369B7
:10351C001343C361DDE70220B9E710B584680A43A1
:10352C0024F47F4442EA03222243826010BD38B562
:10353C0090F83C300446012B4FF0020000F08E80D6
:10354C00012284F83D00206884F83C20836823F431
:10355C007F4323F0770383600B68602B4FD032D806
:10356C00402B64D016D8202B0DD00AD833F0100184
:10357C0009D0012384F83D30002384F83C301046F8
:10358C0038BD302BF5D1826822F07002134343F022
:10359C00070328E0502BECD14A68CD68016A036A16
:1035AC0021F00A0123F00103036283690A4323F02B
:1035BC00F00343EA051383610262836823F070030E
:1035CC0043F057030FE0B3F5805F0DD0B3F5005F08
:1035DC000CD0702BCDD1CB68D1E90121FFF79DFF29
:1035EC00836843F0770383600022C2E7CB68D1E99C
:1035FC000121FFF792FF836843F48043F3E7036AEA
:10360C00026A4D6822F01002C9680262826923F0D6
:10361C00A00322F4704243EA051342EA01328261AC
:10362C000362836823F0700343F06703DBE74A68A7
:10363C00CD68016A036A21F00A0123F001030362D9
:10364C0083690A4323F0F00343EA051383610262A2
:10365C00836823F0700343F04703C4E702468EE708
:10366C0010B50124036A01F01F018C4023EA040306
:10367C000362036A8A401A43026210BD08B529B975
:10368C0090F83E30012B21D0012008BD042907D130
:10369C0090F83F30012BF7D1022380F83F3018E02F
:1036AC00082907D190F84030012BEDD1022380F886
:1036BC0040300EE090F84130012BE5D10429EBD0DD
:1036CC000829F3D0022380F8413002E0022380F86D
:1036DC003E3000680122FFF7C3FF0E4B98420AD11F
:1036EC00436C43F400434364836803F00703062BE5
:1036FC000BD10020C9E7B0F1804FF5D0064B9842B2
:10370C00F2D003F580639842EED0036843F00103D6
:10371C000360EEE7002C014000040040FFF7AEBF51
:10372C0030B590F83C300246012B4FF0020022D00D
:10373C00136882F83D005C680D6824F070042C431B
:10374C0098685C600C4CA3420AD0B3F1804F07D050
:10375C00A4F59434A34203D004F58064A34204D1AD
:10376C00496820F08000014399600123002082F811
:10377C003D3082F83C0030BD002C01407047704752
:10378C0084B001A880E80E0004B000207047034606
:10379C004FF43F420020A3F84400A3F840207047A8
:1037AC00B0F8403023F47C535B045B0CA0F8403041
:1037BC00002070470020704784B010B5044603A861
:1037CC0080E80E0000200123A4F84030A4F840004B
:1037DC00A4F84400A4F85000BDE8104004B07047B1
:1037EC00F0B50A78CD7830F82240034624F4EC4446
:1037FC0024F070042404240C032D4BD8DFE805F0CE
:10380C0002474543284644F4007448F2800634438A
:10381C0023F8224033F822409E4FA4B23C4014437C
:10382C00344323F822400C7B03EB021C002C40F0A9
:10383C008B80CC884E78640864006EB3B3F850105B
:10384C0089B26144A1F8004433F82210490609D525
:10385C0033F8221089B2394041F4004141F0C001E3
:10386C0023F8221033F822108B4C89B2012D01EA77
:10387C00040101D081F0200141F4004141F08001AC
:10388C0023F822104AE044F4C0640020BDE744F45D
:10389C008064FAE70120B8E7B3F850500969ADB27B
:1038AC006544A5F80844B3F850403E29A4B26444DA
:1038BC00B4F80C54C5F30905A4F80C542FD94D09D0
:1038CC00CE06B4F80C1408BF05F1FF3589B241EAF5
:1038DC0085216FEA41416FEA514189B2A4F80C1479
:1038EC0033F822104F040DD533F8221021F4E041A7
:1038FC0021F070010904090C41F4404141F08001B0
:10390C0023F82210654CC2B91A8892B2224082F474
:10391C00405242F4004242F080021A80F0BD11B9CC
:10392C00B4F80C14D5E74D08C907B4F80C1448BF0B
:10393C00013589B241EA8521CFE733F8221089B2EB
:10394C00214081F4005197E7022D33F822405BD1DE
:10395C00A4B23C4044F4014444F0800423F82240D7
:10396C00B3F850400E89A4B2760864447600A4F8EB
:10397C0000644E89B3F850407608A4B264447600D3
:10398C00A4F808644978002948D133F822104E0471
:10399C000DD533F8221021F4E04121F07001090417
:1039AC00090C41F4404141F0800123F8221033F816
:1039BC0022104D060DD533F8221021F4E04121F0F0
:1039CC0070010904090C41F4004141F0C00123F8D5
:1039DC00221048F2800433F8221021F4804121F0A7
:1039EC0070010904090C81F44051214323F8221081
:1039FC0033F8221021F4E04121F040010904090CB4
:103A0C000C4323F8224089E724F4E24424F07004A8
:103A1C002404240C264323F82260A1E733F8221057
:103A2C004C040DD533F8221021F4E04121F0700143
:103A3C000904090C41F4404141F0800123F82210A3
:103A4C0033F8221049060DD533F8221021F4E04149
:103A5C0021F070010904090C41F4004141F0C0014E
:103A6C0023F8221033F822100B4C89B22140012D7F
:103A7C0018BF81F0200141F4004141F0800123F88E
:103A8C00221033F8221021F4804121F07001090436
:103A9C00090CF1E68F8FFFFFBF8FFFFF8FBFFFFF7A
:103AAC004A780B78097BD9BB0AB330F8232051062E
:103ABC000DD530F8232022F4E04222F070021204DB
:103ACC00120C42F4004242F0C00220F8232030F8DD
:103ADC00232022F4E04222F040021204120C42F4A1
:103AEC00004242F0800220F823200020704730F87A
:103AFC00232052040DD530F8232022F4E04222F08A
:103B0C0070021204120C42F4404242F0800220F87F
:103B1C00232030F8232022F4804222F07002DCE7CC
:103B2C00002A4AD130F8232051040DD530F8232037
:103B3C0022F4E04222F070021204120C42F44042D1
:103B4C0042F0800220F8232030F8232052060DD5B5
:103B5C0030F8232022F4E04222F070021204120CFE
:103B6C0042F4004242F0C00220F8232048F28001C7
:103B7C0030F8232022F4E04222F070021204120CDE
:103B8C0042F4004242F0C00220F8232030F82320F7
:103B9C0022F4804222F070021204120C0A4320F824
:103BAC00232030F8232022F4E04222F040021204B9
:103BBC00120C114320F8231097E730F823205104FE
:103BCC000DD530F8232022F4E04222F070021204CA
:103BDC00120C42F4404242F0800220F8232030F8CC
:103BEC00232052060DD530F8232022F4E04222F097
:103BFC0070021204120C42F4004242F0C00220F88F
:103C0C00232048F2800130F8232022F4E04222F0F5
:103C1C0070021204120C42F4404242F0800220F86E
:103C2C00232030F8232022F4E04222F04002120438
:103C3C00120C0A4320F8232030F8232022F480426F
:103C4C0022F07002B3E74B780A788BB130F822304F
:103C5C0023F4E04323F040031B041B0C83F01003FC
:103C6C0043F4004343F0800320F8223000207047D7
:103C7C0030F8223023F4804323F070031B041B0C18
:103C8C0083F48053ECE70B7B3BBB4B780A7833B364
:103C9C0030F822305B060DD530F8223023F4E043A7
:103CAC0023F070031B041B0C43F4004343F0C003CC
:103CBC0020F82230CB78012B0FD030F8223023F4AF
:103CCC00E04323F040031B041B0C83F0200343F45C
:103CDC00004343F0800320F822300020704730F876
:103CEC0022305B040DD530F8223023F4E04323F06E
:103CFC0070031B041B0C43F4404343F0800320F877
:103D0C00223030F8223023F4804323F070031B045C
:103D1C001B0C83F44053DAE711B98023A0F84C3024
:103D2C00002070470020704700207047B0F8440016
:103D3C0080B270470020704700EB4200013300F561
:103D4C0080605B0800EB8303834200D1704731F83D
:103D5C00022B20F8042BF7E72DE9F0470C464978A5
:103D6C0005460129227B40F01881D4F81090A769F0
:103D7C0061694F4528BF4F460ABBBFB2E2883B463C
:103D8C00FFF7DAFFB5F85000217880B205F2044253
:103D9C00090102448F52227835F8223023F4E04393
:103DAC0023F040031B041B0C83F03003002043F46E
:103DBC00004343F0800325F82230BDE8F087E37818
:103DCC0094F800E0022B266A4FEA0E1C40F0D080DB
:103DDC00B14530F82E2080F0B48022F4E04222F07D
:103DEC0070021204120C42F4014242F0800220F8DC
:103DFC002E2030F82E80B0F850E0F61B18F040085A
:103E0C00266201EB070ABBB21FFA8EFE4ED000F2FF
:103E1C000C42724422F80C306289FFF78DFFB145D9
:103E2C0036BFF31B00233E4662782362C4F814A00D
:103E3C00B3B27ABBB5F85020207892B205F20441A7
:103E4C0000011144425A3E2EC2F30902425215D9C6
:103E5C00F206425A4FEA561708BF07F1FF3792B2E3
:103E6C0042EA87226FEA42426FEA524292B24252CF
:103E7C00228951462846FFF75FFF8CE70EB9425A5C
:103E8C00F0E7425A7708F60748BF013792B242EA88
:103E9C008722EBE7012AEBD1B5F85000217880B2EC
:103EAC0005F20442090102448B52E1E700F204429C
:103EBC00724422F80C302289FFF73EFFB14536BF21
:103ECC00F31B43463E4662782362C4F814A0B3B297
:103EDC005ABBB5F85020207892B205F20C41000183
:103EEC001144425A3E2EC2F30902425211D9F20633
:103EFC00425A4FEA561708BF07F1FF3792B242EA0F
:103F0C0087226FEA42426FEA524292B2425262896F
:103F1C00AFE70EB9425AF4E7425A7708F60748BFA2
:103F2C00013792B242EA8722EFE7012AEFD1B5F8C6
:103F3C005000217880B205F20C42090102448B52E8
:103F4C00E5E722F4E24222F070021204120C42F471
:103F5C00004242F0800220F82E20B0F8503000F2DF
:103F6C0004429BB21A44B3B222F80C30228982E785
:103F7C0030F82E20F61B2662B0F850605206BBB209
:103F8C00B6B206D500F20C42324422F80C306289EB
:103F9C0071E700F204423244E6E7D2B9A369216921
:103FAC00B0F850008B4284BF5A1A0B462178A2619C
:103FBC0080B205F20C4209010244505A3E2BC0F368
:103FCC000900505200F2C580002B40F0D280535AA9
:103FDC00C8E0E378022B7CD100294BD1B0F85030EB
:103FEC0020789BB205F2044100011944435AC3F3F3
:103FFC000903435223693E2B20D9425A5E09DF063E
:10400C0008BF06F1FF3692B242EA86226FEA4242BC
:10401C006FEA524292B24252B5F85000227880B206
:10402C0005F20C4112010144505A3E2BC0F3090019
:10403C00505210D8002B43D1535A15E00BB9425AA9
:10404C00E4E7DA07425A4FEA530648BF013692B208
:10405C0042EA8622DEE75809DF06535A08BF00F110
:10406C00FF309BB243EA80236FEA43436FEA53432A
:10407C009BB25352E369BBB144F24003227835F84A
:10408C00221003EA01008B4300D068B935F82230C6
:10409C0023F4E04323F070031B041B0C43F4004394
:1040AC0043F0C00325F82230227835F8223023F46F
:1040BC00804323F070031B041B0C83F4405375E600
:1040CC005808DE07535A48BF01309BB243EA80239D
:1040DC00CEE7012B56D1A3692269934294BF0020ED
:1040EC00981AA06188BF13460029DDD1B5F850207D
:1040FC00207892B205F2044100011144425A3E2B41
:10410C00C2F30902425218D9DA06425A4FEA531640
:10411C0008BF06F1FF3692B242EA86226FEA4242AB
:10412C006FEA524292B24252B5F85000227880B2F5
:10413C0005F20C41120101443FE70BB9425AEDE77D
:10414C00425A5E08DF0748BF013692B242EA862225
:10415C00E8E75809DE06535A08BF00F1FF309BB25E
:10416C0043EA80236FEA43436FEA53439BB25352B3
:10417C009AE75808DB07535A48BF01309BB243EA11
:10418C008023F3E7012018E600EB4200F0B500F5C0
:10419C0080605D080C4607462E46023436B9DB07B4
:1041AC0044BF30F8253001F81530F0BD37F8042B3A
:1041BC00013E92B204F8022C120A04F8012CECE72E
:1041CC00D0F8BC3210B56BB1D0F8B84294F80002FC
:1041DC00FF2807D09B68214694F801229847FF23BB
:1041EC0084F80032002010BD432303800048704740
:1041FC004C000020432303800048704790000020AF
:10420C004323038000487047E00000200A2303800A
:10421C0000487047D400002038B50446D0F8B85296
:10422C0000F0DDFED4F8B832C5F80C024BB1D4F86E
:10423C00BC32D5F80402DB6805F503719847002001
:10424C0038BD0220FCE7F8B5D0F8B862D6B114241A
:10425C0004FB0103DC69D0F8C0527CB1282707FBB2
:10426C000152926BB4FBF2F502FB154434B9DC61DC
:10427C002246234600F0A1FE2046F8BD0020C6F8D9
:10428C001402FAE70220F8E72DE9F7434FF0000893
:10429C000A78054612F060040E46D0F8B8728DF814
:1042AC000580ADF8068028D0202C42D1CC884B78E4
:1042BC00E4B1120611D5D0F8BC223946D2F80890D8
:1042CC0018462246C84739462846F28800F047FC73
:1042DC004446204603B0BDE8F0832246394687F8B1
:1042EC00003287F8014200F04FFCF1E7D0F8BC2215
:1042FC00184695682246A847EBE74B780A2B0CD05A
:10430C000B2B12D0ABB990F89C32032B11D102229B
:10431C000DF1060100F023FCDBE790F89C32032B37
:10432C0007D101220DF10501F4E790F89C32032B23
:10433C00CFD03146284600F0EBFB0224C9E738B554
:10434C0004460025812100F002FE01212046E56291
:10435C0000F0FDFD82212046C4F86C5100F0F7FD01
:10436C00D4F8B83225644BB1D4F8BC325B689847AA
:10437C00D4F8B80200F03CFEC4F8B852002038BDA6
:10438C002DE9F041037C0446B3BB4FF4007381214B
:10439C00022200F0D0FD01214FF40073E1620126EE
:1043AC000222204600F0C7FD08230322822120466A
:1043BC00C4F86C6100F0BFFD4FF40770266400F088
:1043CC0013FE0546C4F8B80240B34FF00008D4F809
:1043DC00BC321B689847C5F81482C5F81882277C34
:1043EC009FB94FF4007331462046D5F8042200F0F3
:1043FC00EDFD3846BDE8F08140238121022200F01A
:10440C009AFD01214023E162C9E740233146204651
:10441C00D5F8042200F0DAFD4746EAE73746E8E72C
:10442C0019B1C0F8BC120020704702207047D0F8B8
:10443C00B8320020C3F80812C3F810227047D0F825
:10444C00B8320020C3F804127047D0F8B82210B567
:10445C0082B1D2F81442012374B9C2F81432D2F8E2
:10446C00103281210363D2F808229BB200F0A5FD23
:10447C00204610BD0220FCE71846FAE7D0F8B82217
:10448C0010B582B1047CD2F8042234B94FF4007315
:10449C00012100F09BFD204610BD4023012100F0BE
:1044AC0095FD0024F7E70224F5E708B580B1D0F8B4
:1044BC00B43213B10023C0F8B43209B1C0F8B01251
:1044CC000123027080F89C3200F0EAFC002008BD49
:1044DC000220FCE719B1C0F8B4120020704702208A
:1044EC00704708B500F01EFD002008BD08B5D0F8D7
:1044FC00B43233B11B689847003818BF0120400014
:10450C0008BD0220FCE708B5D0F8B4325B689847C8
:10451C00002008BD38B500F52A750446284600F081
:10452C00E3FA012394F8A812C4F89432B4F8AE322A
:10453C00C4F8983201F01F03012B08D0022B0BD0CA
:10454C007BB92946204600F0FBF8002038BD2946EF
:10455C00204600F01DFAF8E72946204600F03CFA08
:10456C00F3E7204601F0800100F0FAFCEDE7F8B526
:10457C00044617460D4639BBD0F89432032B1CD198
:10458C00D0E9586296420BD9B61AB2423946C0F8F5
:10459C0060618CBFB2B292B200F003FB2846F8BD4A
:1045AC00D0F8B4321B6923B190F89C22032A00D1B5
:1045BC009847204600F0FDFAF0E7052BEED1C4F841
:1045CC00941200F0CDFCE9E7D0F8B4329B6933B11A
:1045DC0090F89C22032A02D198470025DEE7022599
:1045EC00DCE7F8B5044617460D46002947D1D0F84C
:1045FC009432022B3CD1D0E908639E4214D9F61AAE
:10460C0039460662B2B200F0B7FA2B462A46294662
:10461C00204600F0DBFC94F8A032012B02D10023E1
:10462C0084F8A0322846F8BDC269B2FBF3F603FB4E
:10463C0016265EB9934209D8D0F898329A4205D220
:10464C000A4600F099FAC4F89852DEE7D4F8B4326E
:10465C00DB682BB194F89C22032A01D120469847A1
:10466C008021204600F07CFC204600F0ADFAD2E719
:10467C0033F00403CFD1802100F072FCCBE7D0F8EB
:10468C00B4325B6933B190F89C22032A02D198476B
:10469C000025C7E70225C5E7002270B504460125B1
:1046AC0040261146402300F046FC33468021002270
:1046BC002046C4F85851C4F8646100F03CFC002159
:1046CC00D4F8B832A561666284F89C52C4F894128E
:1046DC006160C4F8A41223B1D4F8B43220465B68EC
:1046EC009847002070BD01740020704790F89C32F0
:1046FC0080F89D32042380F89C320020704790F89B
:10470C009C32042B04BF90F89D3280F89C32002020
:10471C00704708B590F89C22032A04D1D0F8B43223
:10472C00DB6903B19847002008BD10B50446802111
:10473C0000F016FC2046BDE81040002100F010BC33
:10474C0037B50B78044603F06003202B0D4612D0CE
:10475C00402B10D0002B51D14B78092B4ED8DFE8D1
:10476C0013F0EE0009014D0002014D00870013000B
:10477C004D00D600A300D4F8B432294620469B68DD
:10478C009847002003B030BD0023ADF806304B88AD
:10479C001A0A013A062A31D8DFE802F0041623304F
:1047AC0030485200D0F8B0321B68207C0DF1060165
:1047BC009847BDF80620EB88002A55D0002B4AD12B
:1047CC00204600F0F6F9DCE7027CD0F8B43232B9BE
:1047DC009B6A0DF10600984702234370E9E7DB6AF8
:1047EC00F7E7DBB2052B09D8DFE803F0030C101454
:1047FC00181CD0F8B0325B68002BD6D12046FFF7DE
:10480C0094FFBEE7D0F8B0329B68F5E7D0F8B03231
:10481C00DB68F1E7D0F8B0321B69EDE7D0F8B032C5
:10482C005B69E9E7D0F8B0329B69E5E7037C002BC4
:10483C00E4D1D0F8B4320DF106005B6B9847B8E7C1
:10484C00037C002BDAD1D0F8B4320DF106001B6BCF
:10485C0098470723C1E79A4228BF1A4601462046CB
:10486C00ADF8062000F07BF9EB88002B89D1A7E787
:10487C008B88002BC2D1CB88002BBFD14D887F2DCC
:10488C00BCD890F89C32032BB8D0E9B280F89E12B9
:10489C0000F08AFB204600F08CF91DB1022384F84D
:1048AC009C326EE70123FAE78978384D012929708B
:1048BC00A4D890F89C32022B08D0032B15D0FFF70C
:1048CC0034FF20462978FFF71EFE5AE700293FF4F3
:1048DC0077AF01210323416080F89C322046FFF71B
:1048EC0005FE02287FF46CAF88E731B902234160E2
:1048FC0080F89C32FFF707FE62E7416801293FF41C
:10490C005FAFC9B2FFF7FFFD29786160E6E7CA889F
:10491C00012A7FF473AF90F89C32022B0AD8002B3B
:10492C003FF46CAF0146002341F8083F204600F0ED
:10493C0016F926E7032B7FF461AF011DF6E790F81B
:10494C009C32013B022B3FF659AFCA88022A7FF4F6
:10495C0055AFD0F8A4320146002B14BF032301231A
:10496C0041F80C3FE2E74B88012B7FF40AAFC4F807
:10497C00A43225E790F89C32013B022B3FF63EAF68
:10498C004B88012B7FF4FDAE0023F0E740040020A0
:10499C0038B50B78044603F06002402A0D4601D06E
:1049AC005B0615D494F89C32013B022B10D82B7962
:1049BC00012B0DD8D4F8B43229469B682046984771
:1049CC00EB881BB910B9204600F0F3F8002038BD75
:1049DC002046FFF7AAFEF9E738B50A78044602F03C
:1049EC006002202A0B468D882CD0402A2AD0BABBD4
:1049FC005A78E9B2012A43D0032A2BD082BB90F813
:104A0C009C32022B53D0032B2AD1142201F00F031A
:104A1C0015F0800F02FB03035AD09B6903B31425D6
:104A2C0001F07F0303FB0555054411F07F0005D011
:104A3C00204600F0A7FA003818BF012002222946B0
:104A4C00286041E0D4F8B422194620469268904779
:104A5C00002038BD90F89C22022A1FD0032A03D0D4
:104A6C002046FFF762FEF3E75A882AB94A0603D0BC
:104A7C00DB880BB900F074FA204600F09AF8E7E7EF
:104A8C0090F89C22022A09D0032AE9D15B88002BDA
:104A9C00DED14D06F0D000F06CFAEDE74B06DFD01E
:104AAC0000F05EFA8021204600F05AFAD0E74A0660
:104ABC00D6D12B064FF000034FF002024CBF00F191
:104ACC00140100F5AA710B60204600F048F8BFE70E
:104ADC00D3F85831002BC3D0142301F07F0503FB0E
:104AEC00050505F5AA75A0E70B7803704B784370A4
:104AFC00CA788B7803EB022343804A790B7903EB5A
:104B0C0002238380CA798B7903EB0223C38070471D
:104B1C0010B50446802100F023FA2046BDE8104071
:104B2C00002100F01DBA30B588B1002401382346AD
:104B3C000134055D002DFAD1DBB201335B0013802B
:104B4C000B7003234B70022310F8014F04B930BDD6
:104B5C005A1CCC54D2B20233DBB28D54F4E7134658
:104B6C00022210B5C0E90733C0F894220A4600218E
:104B7C0000F023FA002010BD08B513460A460021A8
:104B8C0000F01BFA002008BD1346032210B5C0E943
:104B9C005733C0F894220A46002100F017FA00207F
:104BAC0010BD08B513460A46002100F00FFA00208C
:104BBC0008BD08B50423C0F8943200231A461946E0
:104BCC0000F0FBF9002008BD08B50523C0F89432AD
:104BDC0000231A46194600F0F9F9002008BD000020
:104BEC0008B500220E490F48FFF75FFC08B1FCF72F
:104BFC00C1FA0D490B48FFF76DFC08B1FCF7BAFA86
:104C0C000A490848FFF70CFC08B1FCF7B3FA054851
:104C1C00FFF767FC18B1BDE80840FCF7ABBA08BD5C
:104C2C003401002044040020140000202401002042
:104C3C00002070470020704770B50D4604460F4E9B
:104C4C0001463046FFF7FBFB3046FFF717FC0C4BD9
:104C5C002D681846EDB22822002100F077FA2A467A
:104C6C00214600F0AFFA2A460021204600F06EFAE9
:104C7C000122044B00201A7070BD00BF44040020B8
:104C8C0065020020C002002010B5064C0022204610
:104C9C000549FFF7CCFB20460449FFF7D0FB002069
:104CAC0010BD00BF44040020080B002008070020A2
:104CBC0010B5094C0A46D4F8B832D3F8143243B9BB
:104CCC0001462046FFF7B3FB2046BDE81040FFF736
:104CDC00BCBB012010BD00BF4404002012230148BE
:104CEC000B80704750010020042301480B80704753
:104CFC0064010020002370B51E464D1C040FB0F15A
:104D0C00204F34BF3034373401F8134005F81360AA
:104D1C000133DCB2A2424FEA0010EFD870BD0000A4
:104D2C001A2310B50B800A4BD3F8E807D3F8F027F9
:104D3C0080180AD0D3F8EC4706490822FFF7DAFFAF
:104D4C00042220461031FFF7D5FF034810BD00BFE9
:104D5C0000F0FF1F6A0100206801002010B5044C10
:104D6C000A4604482146FFF7DEFE204610BD00BF70
:104D7C00080F00206D5E000810B5044C0A4604486C
:104D8C002146FFF7D0FE204610BD00BF080F0020C3
:104D9C00805E000810B5044C0A4604482146FFF713
:104DAC00C2FE204610BD00BF080F0020965E000812
:104DBC0010B5044C0A4604482146FFF7B4FE2046C1
:104DCC0010BD00BF080F0020A15E000803289ABF89
:104DDC00014B185C02207047AF5E000807B50E4B04
:104DEC0002689A4215D103F5DA33DA69142042F4D9
:104DFC000002DA610022DB69114603F4000301931F
:104E0C00019BFCF7E7FB142003B05DF804EBFCF707
:104E1C0011BC03B05DF804FB005C004000F52C7184
:104E2C00D0F8EC02FFF776BB282303FB0103D0F884
:104E3C00EC02D3F87C21FFF79ABB282303FB010378
:104E4C00D0F8EC02DA6BFFF7CCBBD0F8EC02FFF732
:104E5C0060BC836810B5022B044601D0FCF78AF9BC
:104E6C00D4F8EC020121FFF73EFCD4F8EC02BDE8CB
:104E7C001040FFF711BC000010B50446D0F8EC024E
:104E8C00FFF734FCA36923B1024A136943F006030C
:104E9C00136110BD00ED00E0D0F8EC02FFF72FBC61
:104EAC00082310B51D4A04461D48C0E900230223FF
:104EBC0083600023C0F8EC42C4F8C002C0E906339A
:104ECC000362FCF73DFF08B1FCF754F900221823EC
:104EDC001146D4F8C002FDF7ABFD58230022802107
:104EEC00D4F8C002FDF7A4FDC02300228121D4F820
:104EFC00C002FDF79DFD4FF4887300220121D4F808
:104F0C00C002FDF795FD4FF4807300228221D4F886
:104F1C00C002FDF78DFD002010BD00BF005C0040FD
:104F2C000811002008B5D0F8C002FCF781FFBDE8DD
:104F3C000840FFF74BBF10B51446D0F8C0021A4614
:104F4C002346FDF77DFCBDE81040FFF73FBF08B5D9
:104F5C00D0F8C002FDF7A4FCBDE80840FFF736BF4F
:104F6C0008B5D0F8C002FDF7FDFCBDE80840FFF71E
:104F7C002DBF08B5D0F8C002FDF728FDBDE80840EC
:104F8C00FFF724BF282211F0800FD0F8C0321BBFCE
:104F9C0001F07F0101FB022202FB01339B1814BFBD
:104FAC00987893F86A01704708B5D0F8C002FCF7FE
:104FBC0058FFBDE80840FFF709BF08B5D0F8C0029C
:104FCC00FDF7B6FCBDE80840FFF700BF08B5D0F808
:104FDC00C002FDF78EFCBDE80840FFF7F7BED0F825
:104FEC00C002FDF79DBC000000487047F81300207C
:104FFC00704770470A22002100F07EB8012B2DE982
:10500C00F0478646904601D0242B06D900F0A6F82E
:10501C00162303600020BDE8F0870D4635482A466C
:10502C0015F8014B065D16F00806F8D12D2C2ED183
:10503C0001262C78951C002B57D0102B09D1302C25
:10504C0007D12A7802F0DF02582A49D110236C7854
:10505C000235002206F1004C0CF1FF3CBCFBF3F9CD
:10506C00104603FB19CAA4F13007092F14D83C468B
:10507C00A34220DD571C07D0814519D301D1A2458D
:10508C0016DB012200FB034015F8014BEBE72B2C40
:10509C0004BF2C78951CCEE7A4F14107192F01D839
:1050AC00373CE5E7A4F16107192F04D8573CDFE73B
:1050BC004FF0FF32E8E7531C08D122236046CEF8AC
:1050CC000030B8F1000FA6D0691E06E006B14042D0
:1050DC00B8F1000F9FD0002AF6D1C8F800109AE75B
:1050EC003024002BB5D10823B3E7302CA9D00A23E8
:1050FC00AFE700BFB45E000813460A4601460248FB
:10510C000068FFF77BBF00BFD00100200EB46FF02A
:10511C00004100B59CB01DAB029006900791049124
:10512C000848094953F8042B0591006802A901931A
:10513C0000F0A4F90022029B1A701CB05DF804EB7D
:10514C0003B07047D00100200802FFFF0346024461
:10515C00934200D1704703F8011BF9E7014B186823
:10516C00704700BFD001002070B500260C4D0D4CCF
:10517C00641BA410A64209D100F082FC00260A4D43
:10518C000A4C641BA410A64205D170BD55F8043B13
:10519C0098470136EEE755F8043B98470136F2E79D
:1051AC00E85F0008E85F0008E85F0008EC5F0008B3
:1051BC0070477047034611F8012B03F8012B002AA6
:1051CC00F9D170470A44914200F1FF3300D1704786
:1051DC0010B511F8014B914203F8014FF9D110BDF4
:1051EC0038B50546002940D051F8043C0C1F002B63
:1051FC00B8BFE41800F0DCF81C4A136833B96360DC
:10520C0014602846BDE8384000F0D8B8A34208D94D
:10521C00206821188B4201BF19685B68091821604E
:10522C00EDE71A465B680BB1A342FAD91168501826
:10523C00A0420BD120680144501883421160E0D188
:10524C0018685B68084410605360DAE702D90C23D5
:10525C002B60D6E7206821188B4201BF19685B6868
:10526C000918216063605460CBE738BD58170020E3
:10527C0070B50E4E0C463168054611B900F0AAFB0C
:10528C0030602146284600F0A5FB431C0AD0C41C04
:10529C0024F00304A04207D0211A284600F09AFB00
:1052AC00013001D14FF0FF34204670BD5C17002057
:1052BC002DE9F843CD1C25F0030508350C2D38BF1E
:1052CC000C25002D074601DBA94205D90C2300262D
:1052DC003B603046BDE8F883DFF8D08000F068F81A
:1052EC00D8F800301C465CBB29463846FFF7C0FF97
:1052FC00431C044655D1D8F800402646002E45D113
:10530C00002C48D023683146384604EB030900F0E2
:10531C0061FB81453FD1216838466D1A2946FFF75C
:10532C00A7FF013037D023682B442360D8F8003016
:10533C00002B38D05A68A2422BD100225A600FE0C1
:10534C002268521B1FD40B2A17D96119A34225605E
:10535C0018BF5960636808BFC8F8001062514B60F1
:10536C00384604F10B0600F029F826F00706231D39
:10537C00F21AAED09B1BA350ABE7A3426268DDD1FF
:10538C00C8F80020ECE723466468ACE7344676683E
:10539C00B4E71346CCE70C2338463B6000F00EF81C
:1053AC0097E72560DCE75B60FFDE00BF5817002045
:1053BC000148FFF7FDBE00BF541700200148FFF75E
:1053CC00F8BE00BF541700202DE9F0471F468E6829
:1053DC008246BE420C4690460B682CD88A8912F441
:1053EC00906F26D06569096905EB4505A3EB0109AA
:1053FC0005EBD5757B1C4B446D109D4238BF1D468B
:10540C00530527D52946FFF753FF064660B34A4696
:10541C002169FFF7D7FEA38923F4906343F080033F
:10542C00A38126614E4426603E466561A5EB0905C5
:10543C00A560BE4200D93E4632464146206800F087
:10544C00AFFA0020A3689B1BA3602368334423603E
:10545C00BDE8F0872A4600F0DBFA06460028E0D1CA
:10546C0050462169FFF7BCFE0C23CAF80030A38913
:10547C004FF0FF3043F04003A381E9E72DE9F04FF3
:10548C0098468B8907461B060D4614469DB00ED5D3
:10549C000B6963B94021FFF70BFF2860286120B925
:1054AC000C233B604FF0FF30D0E040236B610023B6
:1054BC00099320238DF8293030234FF00109CDF8C2
:1054CC000C80DFF8A0818DF82A3023469A4613F819
:1054DC00012B0AB1252AF9D1BAEB040B0BD05B4690
:1054EC00224629463846FFF76FFF013000F0A980AD
:1054FC00099A5A4409929AF80030002B00F0A180C6
:10550C0000234FF0FF32CDE905230AF1010A049381
:10551C0007938DF853301A935446052214F8011B47
:10552C00504800F067FA049AD8B9D00644BF20233B
:10553C008DF85330110744BF2B238DF853309AF854
:10554C0000302A2B15D0544600204FF00A0C079A35
:10555C00214611F8013B303B092B4DD9B0B10792D4
:10556C0014E0A0EB080309FA03F31343A2460493D7
:10557C00D2E7039B191D1B680391002BBBBF5B4239
:10558C0042F0020207930793B8BF049223782E2BA4
:10559C000CD163782A2B34D1039B02341A1D1B685F
:1055AC000392002BB8BF4FF0FF330593DFF8B8A080
:1055BC0003225046217800F01DFA38B14022049B9A
:1055CC00A0EB0A00824013430134049314F8011B2E
:1055DC00062226488DF8281000F00CFA002838D046
:1055EC00234B1BBB039B073323F0070308330393A5
:1055FC00099B3344099368E70C4601200CFB0232EB
:10560C00A6E700234FF00A0C1946013405932046F7
:10561C0010F8012B303A092A03D9002BC6D005917A
:10562C00C4E7044601230CFB0121F0E703AB009314
:10563C002A4638460F4B04A9AFF30080421C06469D
:10564C00D6D1AB895B063FF52DAF09981DB0BDE8EF
:10565C00F08F03AB00932A463846064B04A900F0A2
:10566C007DF8EBE7B45F0008BA5F0008BE5F000886
:10567C0000000000D55300082DE9F0471646994666
:10568C008A680B6907469342B8BF1346336091F89A
:10569C0043200C46DDF820800AB1013333602368C7
:1056AC00990642BF336802333360256815F006054E
:1056BC0006D104F1190AE36832689B1AAB422BDC61
:1056CC0094F84320131E226818BF0123920630D48D
:1056DC004946384604F14302C047013023D02368C1
:1056EC00226903F00603042B14BF002533684FF026
:1056FC00000608BFE56804F11A0408BFED1A54F857
:10570C00123C08BF25EAE5759342C4BF9B1AED18FD
:10571C00B5421AD1002008E00123524649463846CA
:10572C00C047013003D14FF0FF30BDE8F0870135A1
:10573C00C1E73020E11881F843005A1C94F8451059
:10574C002244023382F84310C2E701232246494621
:10575C003846C0470130E6D00136D9E72DE9FF477E
:10576C000F7E9146782F80460C469A460C9D01F18F
:10577C00430207D8622F0AD8002F00F0D580582F8B
:10578C0000F0C18004F1420584F842703AE0A7F1C0
:10579C006303152BF6D801A151F823F0015800082A
:1057AC0015580008915700089157000891570008A8
:1057BC009157000815580008915700089157000898
:1057CC0091570008915700081B59000841580008D0
:1057DC00D558000891570008915700083D5900080A
:1057EC00915700084158000891570008915700083C
:1057FC00DD5800082B681A1D1B682A6004F142054D
:10580C0084F842300123A0E020682B68070603F1DE
:10581C000401296001D51E6803E04606FBD5B3F9E7
:10582C000060002E03DA2D23764284F843300A23DD
:10583C00594812E02B682068191D2960050601D50E
:10584C001E6802E04106FBD51E886F2F0CBF082393
:10585C000A235148002184F843106568002DA8BF25
:10586C002168A560A4BF21F0040121600EB9002DB0
:10587C004BD01546B6FBF3F103FB1167C75D05F87A
:10588C00017D3746BB420E46F4D9082B0BD1236859
:10589C00DE0708D5236961689942DEBF302305F81D
:1058AC00013C05F1FF35521B22614B462146404617
:1058BC00CDF800A003AAFFF7DFFE01304AD14FF06C
:1058CC00FF3004B0BDE8F087236843F02003236069
:1058DC007827324884F84570236829681F0651F8E8
:1058EC00046B02D45F0648BFB6B2DF0748BF43F073
:1058FC002003296048BF23601EB9236823F02003CE
:10590C0023601023A6E72448E4E71546BDE72B687F
:10591C002668181D6169286035061B6801D5196059
:10592C0002E07006FBD51980002315462361BCE705
:10593C002B6800211A1D2A601D686268284600F039
:10594C0059F808B1401B606063682361002384F838
:10595C004330AAE72A46494640462369D0470130DE
:10596C00ADD023689B0713D4E068039B9842B8BF63
:10597C001846A6E70123324649464046D047013037
:10598C009DD00135E36803995B1AAB42F2DCEBE77F
:10599C00002504F11906F5E7C55F0008D65F00087D
:1059AC00884210B501EB020402D98442234607D881
:1059BC00431EA14208D011F8012B03F8012FF8E780
:1059CC00014602448A4200D110BD13F8014D02F881
:1059DC00014DF7E738B50023054D044608462B600A
:1059EC00FBF71CFC431C02D12B6803B1236038BDB0
:1059FC0050170020034610B5C9B202449342184612
:105A0C0001D1002003E0047801338C42F6D110BDA3
:105A1C002DE9F041804614460E4621B91146BDE8E9
:105A2C00F041FFF745BC2AB9FFF7DAFB25462846BB
:105A3C00BDE8F08100F01BF88442074602D8B4EBB5
:105A4C00500F12D821464046FFF732FC054600287D
:105A5C00EDD0BC422246314628BF3A46FFF7B2FB96
:105A6C0031464046FFF7BCFBE1E73546DFE751F82E
:105A7C00043C181F002BBCBF0B58C018704700000B
:105A8C00F8B500BFF8BC08BC9E467047F8B500BF1F
:085A9C00F8BC08BC9E467047EF
:105AA40000401454486F6D65205374617475733AE3
:105AB4002025750A486F6D6520657869746F736F6A
:105AC400210D0A00486F6D65205374617475733A33
